{
  "contractName": "Employee",
  "abi": [
    {
      "inputs": [
        {
          "internalType": "address",
          "name": "_admin",
          "type": "address"
        },
        {
          "internalType": "address",
          "name": "_employee_address",
          "type": "address"
        },
        {
          "internalType": "string",
          "name": "_name",
          "type": "string"
        },
        {
          "internalType": "string",
          "name": "_description",
          "type": "string"
        },
        {
          "internalType": "string",
          "name": "_location",
          "type": "string"
        }
      ],
      "payable": false,
      "stateMutability": "nonpayable",
      "type": "constructor"
    },
    {
      "anonymous": false,
      "inputs": [
        {
          "indexed": true,
          "internalType": "address",
          "name": "employee",
          "type": "address"
        },
        {
          "indexed": true,
          "internalType": "address",
          "name": "institute",
          "type": "address"
        }
      ],
      "name": "EducationAdded",
      "type": "event"
    },
    {
      "anonymous": false,
      "inputs": [
        {
          "indexed": true,
          "internalType": "address",
          "name": "employee",
          "type": "address"
        },
        {
          "indexed": true,
          "internalType": "address",
          "name": "organization",
          "type": "address"
        }
      ],
      "name": "certificationAdded",
      "type": "event"
    },
    {
      "anonymous": false,
      "inputs": [
        {
          "indexed": true,
          "internalType": "address",
          "name": "employee",
          "type": "address"
        },
        {
          "indexed": true,
          "internalType": "address",
          "name": "organization",
          "type": "address"
        }
      ],
      "name": "certificationVerified",
      "type": "event"
    },
    {
      "anonymous": false,
      "inputs": [
        {
          "indexed": true,
          "internalType": "address",
          "name": "employee",
          "type": "address"
        },
        {
          "indexed": true,
          "internalType": "address",
          "name": "institute",
          "type": "address"
        }
      ],
      "name": "educationEndorsed",
      "type": "event"
    },
    {
      "anonymous": false,
      "inputs": [
        {
          "indexed": true,
          "internalType": "address",
          "name": "employee",
          "type": "address"
        },
        {
          "indexed": false,
          "internalType": "string",
          "name": "skillname",
          "type": "string"
        }
      ],
      "name": "skillAdded",
      "type": "event"
    },
    {
      "anonymous": false,
      "inputs": [
        {
          "indexed": true,
          "internalType": "address",
          "name": "employee",
          "type": "address"
        },
        {
          "indexed": true,
          "internalType": "address",
          "name": "endorser",
          "type": "address"
        }
      ],
      "name": "skillVerified",
      "type": "event"
    },
    {
      "anonymous": false,
      "inputs": [
        {
          "indexed": true,
          "internalType": "address",
          "name": "employee",
          "type": "address"
        },
        {
          "indexed": true,
          "internalType": "address",
          "name": "organization",
          "type": "address"
        }
      ],
      "name": "workexpAdded",
      "type": "event"
    },
    {
      "anonymous": false,
      "inputs": [
        {
          "indexed": true,
          "internalType": "address",
          "name": "employee",
          "type": "address"
        },
        {
          "indexed": true,
          "internalType": "address",
          "name": "organization",
          "type": "address"
        }
      ],
      "name": "workexpEndorsed",
      "type": "event"
    },
    {
      "constant": true,
      "inputs": [],
      "name": "endorsecount",
      "outputs": [
        {
          "internalType": "uint256",
          "name": "",
          "type": "uint256"
        }
      ],
      "payable": false,
      "stateMutability": "view",
      "type": "function"
    },
    {
      "constant": true,
      "inputs": [
        {
          "internalType": "uint256",
          "name": "",
          "type": "uint256"
        }
      ],
      "name": "overallEndorsement",
      "outputs": [
        {
          "internalType": "uint256",
          "name": "",
          "type": "uint256"
        }
      ],
      "payable": false,
      "stateMutability": "view",
      "type": "function"
    },
    {
      "constant": true,
      "inputs": [],
      "name": "getEmployeeInfo",
      "outputs": [
        {
          "internalType": "address",
          "name": "",
          "type": "address"
        },
        {
          "internalType": "string",
          "name": "",
          "type": "string"
        },
        {
          "internalType": "string",
          "name": "",
          "type": "string"
        },
        {
          "internalType": "string",
          "name": "",
          "type": "string"
        },
        {
          "internalType": "uint256",
          "name": "",
          "type": "uint256"
        },
        {
          "internalType": "uint256",
          "name": "",
          "type": "uint256"
        }
      ],
      "payable": false,
      "stateMutability": "view",
      "type": "function"
    },
    {
      "constant": false,
      "inputs": [
        {
          "internalType": "string",
          "name": "_name",
          "type": "string"
        },
        {
          "internalType": "string",
          "name": "_experience",
          "type": "string"
        }
      ],
      "name": "addSkill",
      "outputs": [],
      "payable": false,
      "stateMutability": "nonpayable",
      "type": "function"
    },
    {
      "constant": false,
      "inputs": [
        {
          "internalType": "string",
          "name": "_name",
          "type": "string"
        },
        {
          "internalType": "uint256",
          "name": "_overall_percentage",
          "type": "uint256"
        }
      ],
      "name": "endorseSkill",
      "outputs": [],
      "payable": false,
      "stateMutability": "nonpayable",
      "type": "function"
    },
    {
      "constant": true,
      "inputs": [],
      "name": "getSkillCount",
      "outputs": [
        {
          "internalType": "uint256",
          "name": "",
          "type": "uint256"
        }
      ],
      "payable": false,
      "stateMutability": "view",
      "type": "function"
    },
    {
      "constant": true,
      "inputs": [
        {
          "internalType": "uint256",
          "name": "_index",
          "type": "uint256"
        }
      ],
      "name": "getSkillByIndex",
      "outputs": [
        {
          "internalType": "string",
          "name": "",
          "type": "string"
        },
        {
          "internalType": "uint256",
          "name": "",
          "type": "uint256"
        },
        {
          "internalType": "string",
          "name": "",
          "type": "string"
        },
        {
          "internalType": "bool",
          "name": "",
          "type": "bool"
        },
        {
          "internalType": "address",
          "name": "",
          "type": "address"
        },
        {
          "internalType": "string",
          "name": "",
          "type": "string"
        }
      ],
      "payable": false,
      "stateMutability": "view",
      "type": "function"
    },
    {
      "constant": false,
      "inputs": [
        {
          "internalType": "string",
          "name": "_name",
          "type": "string"
        },
        {
          "internalType": "address",
          "name": "_organization",
          "type": "address"
        },
        {
          "internalType": "uint256",
          "name": "_score",
          "type": "uint256"
        }
      ],
      "name": "addCertification",
      "outputs": [],
      "payable": false,
      "stateMutability": "nonpayable",
      "type": "function"
    },
    {
      "constant": false,
      "inputs": [
        {
          "internalType": "string",
          "name": "_name",
          "type": "string"
        }
      ],
      "name": "endorseCertification",
      "outputs": [],
      "payable": false,
      "stateMutability": "nonpayable",
      "type": "function"
    },
    {
      "constant": true,
      "inputs": [],
      "name": "getCertificationCount",
      "outputs": [
        {
          "internalType": "uint256",
          "name": "",
          "type": "uint256"
        }
      ],
      "payable": false,
      "stateMutability": "view",
      "type": "function"
    },
    {
      "constant": true,
      "inputs": [
        {
          "internalType": "uint256",
          "name": "_index",
          "type": "uint256"
        }
      ],
      "name": "getCertificationByIndex",
      "outputs": [
        {
          "internalType": "string",
          "name": "",
          "type": "string"
        },
        {
          "internalType": "address",
          "name": "",
          "type": "address"
        },
        {
          "internalType": "uint256",
          "name": "",
          "type": "uint256"
        },
        {
          "internalType": "bool",
          "name": "",
          "type": "bool"
        }
      ],
      "payable": false,
      "stateMutability": "view",
      "type": "function"
    },
    {
      "constant": false,
      "inputs": [
        {
          "internalType": "string",
          "name": "_role",
          "type": "string"
        },
        {
          "internalType": "address",
          "name": "_organization",
          "type": "address"
        },
        {
          "internalType": "string",
          "name": "_startdate",
          "type": "string"
        },
        {
          "internalType": "string",
          "name": "_enddate",
          "type": "string"
        },
        {
          "internalType": "string",
          "name": "_description",
          "type": "string"
        }
      ],
      "name": "addWorkExp",
      "outputs": [],
      "payable": false,
      "stateMutability": "nonpayable",
      "type": "function"
    },
    {
      "constant": false,
      "inputs": [],
      "name": "endorseWorkExp",
      "outputs": [],
      "payable": false,
      "stateMutability": "nonpayable",
      "type": "function"
    },
    {
      "constant": true,
      "inputs": [],
      "name": "getWorkExpCount",
      "outputs": [
        {
          "internalType": "uint256",
          "name": "",
          "type": "uint256"
        }
      ],
      "payable": false,
      "stateMutability": "view",
      "type": "function"
    },
    {
      "constant": true,
      "inputs": [
        {
          "internalType": "uint256",
          "name": "_index",
          "type": "uint256"
        }
      ],
      "name": "getWorkExpByIndex",
      "outputs": [
        {
          "internalType": "string",
          "name": "",
          "type": "string"
        },
        {
          "internalType": "address",
          "name": "",
          "type": "address"
        },
        {
          "internalType": "string",
          "name": "",
          "type": "string"
        },
        {
          "internalType": "string",
          "name": "",
          "type": "string"
        },
        {
          "internalType": "bool",
          "name": "",
          "type": "bool"
        },
        {
          "internalType": "string",
          "name": "",
          "type": "string"
        }
      ],
      "payable": false,
      "stateMutability": "view",
      "type": "function"
    },
    {
      "constant": false,
      "inputs": [
        {
          "internalType": "address",
          "name": "_institute",
          "type": "address"
        },
        {
          "internalType": "string",
          "name": "_startdate",
          "type": "string"
        },
        {
          "internalType": "string",
          "name": "_enddate",
          "type": "string"
        },
        {
          "internalType": "string",
          "name": "_description",
          "type": "string"
        }
      ],
      "name": "addEducation",
      "outputs": [],
      "payable": false,
      "stateMutability": "nonpayable",
      "type": "function"
    },
    {
      "constant": false,
      "inputs": [],
      "name": "endorseEducation",
      "outputs": [],
      "payable": false,
      "stateMutability": "nonpayable",
      "type": "function"
    },
    {
      "constant": true,
      "inputs": [],
      "name": "getEducationCount",
      "outputs": [
        {
          "internalType": "uint256",
          "name": "",
          "type": "uint256"
        }
      ],
      "payable": false,
      "stateMutability": "view",
      "type": "function"
    },
    {
      "constant": true,
      "inputs": [
        {
          "internalType": "uint256",
          "name": "_index",
          "type": "uint256"
        }
      ],
      "name": "getEducationByIndex",
      "outputs": [
        {
          "internalType": "address",
          "name": "",
          "type": "address"
        },
        {
          "internalType": "string",
          "name": "",
          "type": "string"
        },
        {
          "internalType": "string",
          "name": "",
          "type": "string"
        },
        {
          "internalType": "bool",
          "name": "",
          "type": "bool"
        },
        {
          "internalType": "string",
          "name": "",
          "type": "string"
        }
      ],
      "payable": false,
      "stateMutability": "view",
      "type": "function"
    }
  ],
  "bytecode": "0x60806040523480156200001157600080fd5b506040516200415638038062004156833981810160405260a08110156200003757600080fd5b810190808051906020019092919080519060200190929190805160405193929190846401000000008211156200006c57600080fd5b838201915060208201858111156200008357600080fd5b8251866001820283011164010000000082111715620000a157600080fd5b8083526020830192505050908051906020019080838360005b83811015620000d7578082015181840152602081019050620000ba565b50505050905090810190601f168015620001055780820380516001836020036101000a031916815260200191505b50604052602001805160405193929190846401000000008211156200012957600080fd5b838201915060208201858111156200014057600080fd5b82518660018202830111640100000000821117156200015e57600080fd5b8083526020830192505050908051906020019080838360005b838110156200019457808201518184015260208101905062000177565b50505050905090810190601f168015620001c25780820380516001836020036101000a031916815260200191505b5060405260200180516040519392919084640100000000821115620001e657600080fd5b83820191506020820185811115620001fd57600080fd5b82518660018202830111640100000000821117156200021b57600080fd5b8083526020830192505050908051906020019080838360005b838110156200025157808201518184015260208101905062000234565b50505050905090810190601f1680156200027f5780820380516001836020036101000a031916815260200191505b50604052505050846000806101000a81548173ffffffffffffffffffffffffffffffffffffffff021916908373ffffffffffffffffffffffffffffffffffffffff1602179055508260069080519060200190620002de92919062000365565b5083600160006101000a81548173ffffffffffffffffffffffffffffffffffffffff021916908373ffffffffffffffffffffffffffffffffffffffff16021790555081600290805190602001906200033892919062000365565b5080600390805190602001906200035192919062000365565b506000600581905550505050505062000414565b828054600181600116156101000203166002900490600052602060002090601f016020900481019282601f10620003a857805160ff1916838001178555620003d9565b82800160010185558215620003d9579182015b82811115620003d8578251825591602001919060010190620003bb565b5b509050620003e89190620003ec565b5090565b6200041191905b808211156200040d576000816000905550600101620003f3565b5090565b90565b613d3280620004246000396000f3fe608060405234801561001057600080fd5b50600436106101215760003560e01c8063a3e3bf7d116100ad578063d57e0ad611610071578063d57e0ad614610b93578063d862ae8714610dbc578063f1d9efb214610f0e578063f5e616a6146111ae578063fee7989e146111b857610121565b8063a3e3bf7d14610650578063b284b5c3146107ec578063be91b9c11461080a578063c07f7d16146108cf578063cf6431c614610ad857610121565b80636212fa02116100f45780636212fa0214610330578063645f29a81461034e5780637b1d2d001461050b5780637c067d8d146105f057806394fb3da71461063257610121565b806305f53b2914610126578063444fc6621461014457806344afd1341461030857806344f034ae14610326575b600080fd5b61012e6112a4565b6040518082815260200191505060405180910390f35b6101706004803603602081101561015a57600080fd5b81019080803590602001909291905050506112b1565b604051808060200187815260200180602001861515151581526020018573ffffffffffffffffffffffffffffffffffffffff1673ffffffffffffffffffffffffffffffffffffffff1681526020018060200184810384528a818151815260200191508051906020019080838360005b838110156101fa5780820151818401526020810190506101df565b50505050905090810190601f1680156102275780820380516001836020036101000a031916815260200191505b50848103835288818151815260200191508051906020019080838360005b83811015610260578082015181840152602081019050610245565b50505050905090810190601f16801561028d5780820380516001836020036101000a031916815260200191505b50848103825285818151815260200191508051906020019080838360005b838110156102c65780820151818401526020810190506102ab565b50505050905090810190601f1680156102f35780820380516001836020036101000a031916815260200191505b50995050505050505050505060405180910390f35b610310611389565b6040518082815260200191505060405180910390f35b61032e611396565b005b6103386115ed565b6040518082815260200191505060405180910390f35b61037a6004803603602081101561036457600080fd5b81019080803590602001909291905050506115fa565b604051808673ffffffffffffffffffffffffffffffffffffffff1673ffffffffffffffffffffffffffffffffffffffff16815260200180602001806020018515151515815260200180602001848103845288818151815260200191508051906020019080838360005b838110156103fe5780820151818401526020810190506103e3565b50505050905090810190601f16801561042b5780820380516001836020036101000a031916815260200191505b50848103835287818151815260200191508051906020019080838360005b83811015610464578082015181840152602081019050610449565b50505050905090810190601f1680156104915780820380516001836020036101000a031916815260200191505b50848103825285818151815260200191508051906020019080838360005b838110156104ca5780820151818401526020810190506104af565b50505050905090810190601f1680156104f75780820380516001836020036101000a031916815260200191505b509850505050505050505060405180910390f35b6105ee6004803603606081101561052157600080fd5b810190808035906020019064010000000081111561053e57600080fd5b82018360208201111561055057600080fd5b8035906020019184600183028401116401000000008311171561057257600080fd5b91908080601f016020809104026020016040519081016040528093929190818152602001838380828437600081840152601f19601f820116905080830192505050505050509192919290803573ffffffffffffffffffffffffffffffffffffffff16906020019092919080359060200190929190505050611656565b005b61061c6004803603602081101561060657600080fd5b81019080803590602001909291905050506118ae565b6040518082815260200191505060405180910390f35b61063a6118cf565b6040518082815260200191505060405180910390f35b6106586118dc565b604051808773ffffffffffffffffffffffffffffffffffffffff1673ffffffffffffffffffffffffffffffffffffffff168152602001806020018060200180602001868152602001858152602001848103845289818151815260200191508051906020019080838360005b838110156106de5780820151818401526020810190506106c3565b50505050905090810190601f16801561070b5780820380516001836020036101000a031916815260200191505b50848103835288818151815260200191508051906020019080838360005b83811015610744578082015181840152602081019050610729565b50505050905090810190601f1680156107715780820380516001836020036101000a031916815260200191505b50848103825287818151815260200191508051906020019080838360005b838110156107aa57808201518184015260208101905061078f565b50505050905090810190601f1680156107d75780820380516001836020036101000a031916815260200191505b50995050505050505050505060405180910390f35b6107f4611aff565b6040518082815260200191505060405180910390f35b6108cd6004803603604081101561082057600080fd5b810190808035906020019064010000000081111561083d57600080fd5b82018360208201111561084f57600080fd5b8035906020019184600183028401116401000000008311171561087157600080fd5b91908080601f016020809104026020016040519081016040528093929190818152602001838380828437600081840152601f19601f82011690508083019250505050505050919291929080359060200190929190505050611b05565b005b610ad6600480360360808110156108e557600080fd5b81019080803573ffffffffffffffffffffffffffffffffffffffff1690602001909291908035906020019064010000000081111561092257600080fd5b82018360208201111561093457600080fd5b8035906020019184600183028401116401000000008311171561095657600080fd5b91908080601f016020809104026020016040519081016040528093929190818152602001838380828437600081840152601f19601f820116905080830192505050505050509192919290803590602001906401000000008111156109b957600080fd5b8201836020820111156109cb57600080fd5b803590602001918460018302840111640100000000831117156109ed57600080fd5b91908080601f016020809104026020016040519081016040528093929190818152602001838380828437600081840152601f19601f82011690508083019250505050505050919291929080359060200190640100000000811115610a5057600080fd5b820183602082011115610a6257600080fd5b80359060200191846001830284011164010000000083111715610a8457600080fd5b91908080601f016020809104026020016040519081016040528093929190818152602001838380828437600081840152601f19601f820116905080830192505050505050509192919290505050611d95565b005b610b9160048036036020811015610aee57600080fd5b8101908080359060200190640100000000811115610b0b57600080fd5b820183602082011115610b1d57600080fd5b80359060200191846001830284011164010000000083111715610b3f57600080fd5b91908080601f016020809104026020016040519081016040528093929190818152602001838380828437600081840152601f19601f820116905080830192505050505050509192919290505050612023565b005b610bbf60048036036020811015610ba957600080fd5b81019080803590602001909291905050506122cd565b60405180806020018773ffffffffffffffffffffffffffffffffffffffff1673ffffffffffffffffffffffffffffffffffffffff1681526020018060200180602001861515151581526020018060200185810385528b818151815260200191508051906020019080838360005b83811015610c47578082015181840152602081019050610c2c565b50505050905090810190601f168015610c745780820380516001836020036101000a031916815260200191505b50858103845289818151815260200191508051906020019080838360005b83811015610cad578082015181840152602081019050610c92565b50505050905090810190601f168015610cda5780820380516001836020036101000a031916815260200191505b50858103835288818151815260200191508051906020019080838360005b83811015610d13578082015181840152602081019050610cf8565b50505050905090810190601f168015610d405780820380516001836020036101000a031916815260200191505b50858103825286818151815260200191508051906020019080838360005b83811015610d79578082015181840152602081019050610d5e565b50505050905090810190601f168015610da65780820380516001836020036101000a031916815260200191505b509a505050505050505050505060405180910390f35b610f0c60048036036040811015610dd257600080fd5b8101908080359060200190640100000000811115610def57600080fd5b820183602082011115610e0157600080fd5b80359060200191846001830284011164010000000083111715610e2357600080fd5b91908080601f016020809104026020016040519081016040528093929190818152602001838380828437600081840152601f19601f82011690508083019250505050505050919291929080359060200190640100000000811115610e8657600080fd5b820183602082011115610e9857600080fd5b80359060200191846001830284011164010000000083111715610eba57600080fd5b91908080601f016020809104026020016040519081016040528093929190818152602001838380828437600081840152601f19601f82011690508083019250505050505050919291929050505061232d565b005b6111ac600480360360a0811015610f2457600080fd5b8101908080359060200190640100000000811115610f4157600080fd5b820183602082011115610f5357600080fd5b80359060200191846001830284011164010000000083111715610f7557600080fd5b91908080601f016020809104026020016040519081016040528093929190818152602001838380828437600081840152601f19601f820116905080830192505050505050509192919290803573ffffffffffffffffffffffffffffffffffffffff16906020019092919080359060200190640100000000811115610ff857600080fd5b82018360208201111561100a57600080fd5b8035906020019184600183028401116401000000008311171561102c57600080fd5b91908080601f016020809104026020016040519081016040528093929190818152602001838380828437600081840152601f19601f8201169050808301925050505050505091929192908035906020019064010000000081111561108f57600080fd5b8201836020820111156110a157600080fd5b803590602001918460018302840111640100000000831117156110c357600080fd5b91908080601f016020809104026020016040519081016040528093929190818152602001838380828437600081840152601f19601f8201169050808301925050505050505091929192908035906020019064010000000081111561112657600080fd5b82018360208201111561113857600080fd5b8035906020019184600183028401116401000000008311171561115a57600080fd5b91908080601f016020809104026020016040519081016040528093929190818152602001838380828437600081840152601f19601f8201169050808301925050505050505091929192905050506125e9565b005b6111b661289e565b005b6111e4600480360360208110156111ce57600080fd5b8101908080359060200190929190505050612af5565b60405180806020018573ffffffffffffffffffffffffffffffffffffffff1673ffffffffffffffffffffffffffffffffffffffff16815260200184815260200183151515158152602001828103825286818151815260200191508051906020019080838360005b8381101561126657808201518184015260208101905061124b565b50505050905090810190601f1680156112935780820380516001836020036101000a031916815260200191505b509550505050505060405180910390f35b6000600880549050905090565b6060600060606000806060611374600888815481106112cc57fe5b906000526020600020018054600181600116156101000203166002900480601f01602080910402602001604051908101604052809291908181526020018280546001816001161561010002031660029004801561136a5780601f1061133f5761010080835404028352916020019161136a565b820191906000526020600020905b81548152906001019060200180831161134d57829003601f168201915b5050505050612bc3565b95509550955095509550955091939550919395565b6000600a80549050905090565b6000809054906101000a900473ffffffffffffffffffffffffffffffffffffffff1673ffffffffffffffffffffffffffffffffffffffff166316ab8a35336040518263ffffffff1660e01b8152600401808273ffffffffffffffffffffffffffffffffffffffff1673ffffffffffffffffffffffffffffffffffffffff16815260200191505060206040518083038186803b15801561143457600080fd5b505afa158015611448573d6000803e3d6000fd5b505050506040513d602081101561145e57600080fd5b810190808051906020019092919050505061147857600080fd5b600073ffffffffffffffffffffffffffffffffffffffff16600b60003373ffffffffffffffffffffffffffffffffffffffff1673ffffffffffffffffffffffffffffffffffffffff16815260200190815260200160002060010160009054906101000a900473ffffffffffffffffffffffffffffffffffffffff1673ffffffffffffffffffffffffffffffffffffffff16141561151457600080fd5b6001600b60003373ffffffffffffffffffffffffffffffffffffffff1673ffffffffffffffffffffffffffffffffffffffff16815260200190815260200160002060040160006101000a81548160ff0219169083151502179055503373ffffffffffffffffffffffffffffffffffffffff16600160009054906101000a900473ffffffffffffffffffffffffffffffffffffffff1673ffffffffffffffffffffffffffffffffffffffff167fd3853b28b74307a236136e78e426aefcbff624b7e212b46509ae6739c86416e260405160405180910390a3565b6000600e80549050905090565b600060608060006060611643600e878154811061161357fe5b9060005260206000200160009054906101000a900473ffffffffffffffffffffffffffffffffffffffff1661306f565b9450945094509450945091939590929450565b600160009054906101000a900473ffffffffffffffffffffffffffffffffffffffff1673ffffffffffffffffffffffffffffffffffffffff163373ffffffffffffffffffffffffffffffffffffffff16146116b057600080fd5b6116b8613ab5565b83816000018190525082816020019073ffffffffffffffffffffffffffffffffffffffff16908173ffffffffffffffffffffffffffffffffffffffff1681525050818160400181815250506000816060019015159081151581525050806009856040518082805190602001908083835b6020831061174b5780518252602082019150602081019050602083039250611728565b6001836020036101000a0380198251168184511680821785525050505050509050019150509081526020016040518091039020600082015181600001908051906020019061179a929190613af5565b5060208201518160010160006101000a81548173ffffffffffffffffffffffffffffffffffffffff021916908373ffffffffffffffffffffffffffffffffffffffff1602179055506040820151816002015560608201518160030160006101000a81548160ff021916908315150217905550905050600a84908060018154018082558091505090600182039060005260206000200160009091929091909150908051906020019061184c929190613b75565b50508273ffffffffffffffffffffffffffffffffffffffff163373ffffffffffffffffffffffffffffffffffffffff167f40b7a7c75aa35b2ef85b7e97cece105e620377c5665897153d41710a117257b260405160405180910390a350505050565b600481815481106118bb57fe5b906000526020600020016000915090505481565b6000600c80549050905090565b60006060806060600080600160009054906101000a900473ffffffffffffffffffffffffffffffffffffffff166006600260036000600554848054600181600116156101000203166002900480601f0160208091040260200160405190810160405280929190818152602001828054600181600116156101000203166002900480156119a95780601f1061197e576101008083540402835291602001916119a9565b820191906000526020600020905b81548152906001019060200180831161198c57829003601f168201915b50505050509450838054600181600116156101000203166002900480601f016020809104026020016040519081016040528092919081815260200182805460018160011615610100020316600290048015611a455780601f10611a1a57610100808354040283529160200191611a45565b820191906000526020600020905b815481529060010190602001808311611a2857829003601f168201915b50505050509350828054600181600116156101000203166002900480601f016020809104026020016040519081016040528092919081815260200182805460018160011615610100020316600290048015611ae15780601f10611ab657610100808354040283529160200191611ae1565b820191906000526020600020905b815481529060010190602001808311611ac457829003601f168201915b50505050509250819150955095509550955095509550909192939495565b60055481565b6000809054906101000a900473ffffffffffffffffffffffffffffffffffffffff1673ffffffffffffffffffffffffffffffffffffffff166316ab8a35336040518263ffffffff1660e01b8152600401808273ffffffffffffffffffffffffffffffffffffffff1673ffffffffffffffffffffffffffffffffffffffff16815260200191505060206040518083038186803b158015611ba357600080fd5b505afa158015611bb7573d6000803e3d6000fd5b505050506040513d6020811015611bcd57600080fd5b8101908080519060200190929190505050611be757600080fd5b806007836040518082805190602001908083835b60208310611c1e5780518252602082019150602081019050602083039250611bfb565b6001836020036101000a038019825116818451168082178552505050505050905001915050908152602001604051809103902060010181905550600481908060018154018082558091505090600182039060005260206000200160009091929091909150555060016005540160058190555060016007836040518082805190602001908083835b60208310611cc85780518252602082019150602081019050602083039250611ca5565b6001836020036101000a038019825116818451168082178552505050505050905001915050908152602001604051809103902060030160006101000a81548160ff0219169083151502179055503373ffffffffffffffffffffffffffffffffffffffff16600160009054906101000a900473ffffffffffffffffffffffffffffffffffffffff1673ffffffffffffffffffffffffffffffffffffffff167fd962338e9a02a44a3891ecd64b928e53cd107293a89559bcc1ac0c21be8723c260405160405180910390a35050565b600160009054906101000a900473ffffffffffffffffffffffffffffffffffffffff1673ffffffffffffffffffffffffffffffffffffffff163373ffffffffffffffffffffffffffffffffffffffff1614611def57600080fd5b611df7613bf5565b84816000019073ffffffffffffffffffffffffffffffffffffffff16908173ffffffffffffffffffffffffffffffffffffffff1681525050838160200181905250828160400181905250600081606001901515908115158152505081816080018190525080600d60008773ffffffffffffffffffffffffffffffffffffffff1673ffffffffffffffffffffffffffffffffffffffff16815260200190815260200160002060008201518160000160006101000a81548173ffffffffffffffffffffffffffffffffffffffff021916908373ffffffffffffffffffffffffffffffffffffffff1602179055506020820151816001019080519060200190611efe929190613af5565b506040820151816002019080519060200190611f1b929190613af5565b5060608201518160030160006101000a81548160ff0219169083151502179055506080820151816004019080519060200190611f58929190613af5565b50905050600e8590806001815401808255809150509060018203906000526020600020016000909192909190916101000a81548173ffffffffffffffffffffffffffffffffffffffff021916908373ffffffffffffffffffffffffffffffffffffffff160217905550508473ffffffffffffffffffffffffffffffffffffffff163373ffffffffffffffffffffffffffffffffffffffff167febf815b8f0dabf4433d35397abbc3e8df123b4de4d85eb148dc87d4072dcc28460405160405180910390a35050505050565b6000809054906101000a900473ffffffffffffffffffffffffffffffffffffffff1673ffffffffffffffffffffffffffffffffffffffff166316ab8a35336040518263ffffffff1660e01b8152600401808273ffffffffffffffffffffffffffffffffffffffff1673ffffffffffffffffffffffffffffffffffffffff16815260200191505060206040518083038186803b1580156120c157600080fd5b505afa1580156120d5573d6000803e3d6000fd5b505050506040513d60208110156120eb57600080fd5b810190808051906020019092919050505061210557600080fd5b6009816040518082805190602001908083835b6020831061213b5780518252602082019150602081019050602083039250612118565b6001836020036101000a038019825116818451168082178552505050505050905001915050908152602001604051809103902060010160009054906101000a900473ffffffffffffffffffffffffffffffffffffffff1673ffffffffffffffffffffffffffffffffffffffff163373ffffffffffffffffffffffffffffffffffffffff16146121c957600080fd5b60016009826040518082805190602001908083835b6020831061220157805182526020820191506020810190506020830392506121de565b6001836020036101000a038019825116818451168082178552505050505050905001915050908152602001604051809103902060030160006101000a81548160ff0219169083151502179055503373ffffffffffffffffffffffffffffffffffffffff16600160009054906101000a900473ffffffffffffffffffffffffffffffffffffffff1673ffffffffffffffffffffffffffffffffffffffff167fe65e4646c5f6480fa093c6b0f4b02d4ebea98d8f60b9d4daf2f3023fd810627260405160405180910390a350565b6060600060608060006060612318600c88815481106122e857fe5b9060005260206000200160009054906101000a900473ffffffffffffffffffffffffffffffffffffffff166133d8565b95509550955095509550955091939550919395565b600160009054906101000a900473ffffffffffffffffffffffffffffffffffffffff1673ffffffffffffffffffffffffffffffffffffffff163373ffffffffffffffffffffffffffffffffffffffff161461238757600080fd5b61238f613c3c565b82816000018190525081816040018190525060008160200181815250506000816060019015159081151581525050806007846040518082805190602001908083835b602083106123f457805182526020820191506020810190506020830392506123d1565b6001836020036101000a03801982511681845116808217855250505050505090500191505090815260200160405180910390206000820151816000019080519060200190612443929190613af5565b5060208201518160010155604082015181600201908051906020019061246a929190613af5565b5060608201518160030160006101000a81548160ff02191690831515021790555060808201518160030160016101000a81548173ffffffffffffffffffffffffffffffffffffffff021916908373ffffffffffffffffffffffffffffffffffffffff16021790555060a08201518160040190805190602001906124ee929190613af5565b50905050600883908060018154018082558091505090600182039060005260206000200160009091929091909150908051906020019061252f929190613b75565b50503373ffffffffffffffffffffffffffffffffffffffff167f981a3bf7992e3440945215dba219edeec66e57d6763d5da6c119cae472df9830846040518080602001828103825283818151815260200191508051906020019080838360005b838110156125aa57808201518184015260208101905061258f565b50505050905090810190601f1680156125d75780820380516001836020036101000a031916815260200191505b509250505060405180910390a2505050565b600160009054906101000a900473ffffffffffffffffffffffffffffffffffffffff1673ffffffffffffffffffffffffffffffffffffffff163373ffffffffffffffffffffffffffffffffffffffff161461264357600080fd5b61264b613c8a565b85816000018190525084816020019073ffffffffffffffffffffffffffffffffffffffff16908173ffffffffffffffffffffffffffffffffffffffff16815250508381604001819052508281606001819052506000816080019015159081151581525050818160a0018190525080600b60008773ffffffffffffffffffffffffffffffffffffffff1673ffffffffffffffffffffffffffffffffffffffff1681526020019081526020016000206000820151816000019080519060200190612714929190613af5565b5060208201518160010160006101000a81548173ffffffffffffffffffffffffffffffffffffffff021916908373ffffffffffffffffffffffffffffffffffffffff1602179055506040820151816002019080519060200190612778929190613af5565b506060820151816003019080519060200190612795929190613af5565b5060808201518160040160006101000a81548160ff02191690831515021790555060a08201518160050190805190602001906127d2929190613af5565b50905050600c8590806001815401808255809150509060018203906000526020600020016000909192909190916101000a81548173ffffffffffffffffffffffffffffffffffffffff021916908373ffffffffffffffffffffffffffffffffffffffff160217905550508473ffffffffffffffffffffffffffffffffffffffff163373ffffffffffffffffffffffffffffffffffffffff167f681eb68b60a6ff47416ab0d88be5675c91e34369f08c810a140dd20dd2afdc6160405160405180910390a3505050505050565b6000809054906101000a900473ffffffffffffffffffffffffffffffffffffffff1673ffffffffffffffffffffffffffffffffffffffff166316ab8a35336040518263ffffffff1660e01b8152600401808273ffffffffffffffffffffffffffffffffffffffff1673ffffffffffffffffffffffffffffffffffffffff16815260200191505060206040518083038186803b15801561293c57600080fd5b505afa158015612950573d6000803e3d6000fd5b505050506040513d602081101561296657600080fd5b810190808051906020019092919050505061298057600080fd5b600073ffffffffffffffffffffffffffffffffffffffff16600d60003373ffffffffffffffffffffffffffffffffffffffff1673ffffffffffffffffffffffffffffffffffffffff16815260200190815260200160002060000160009054906101000a900473ffffffffffffffffffffffffffffffffffffffff1673ffffffffffffffffffffffffffffffffffffffff161415612a1c57600080fd5b6001600d60003373ffffffffffffffffffffffffffffffffffffffff1673ffffffffffffffffffffffffffffffffffffffff16815260200190815260200160002060030160006101000a81548160ff0219169083151502179055503373ffffffffffffffffffffffffffffffffffffffff16600160009054906101000a900473ffffffffffffffffffffffffffffffffffffffff1673ffffffffffffffffffffffffffffffffffffffff167f03763cba7f8edd1642ea05d9645087d4699f4fa2317bcb91aa96aee8433a6b7c60405160405180910390a3565b60606000806000612bb4600a8681548110612b0c57fe5b906000526020600020018054600181600116156101000203166002900480601f016020809104026020016040519081016040528092919081815260200182805460018160011615610100020316600290048015612baa5780601f10612b7f57610100808354040283529160200191612baa565b820191906000526020600020905b815481529060010190602001808311612b8d57829003601f168201915b5050505050613823565b93509350935093509193509193565b60606000606060008060606007876040518082805190602001908083835b60208310612c045780518252602082019150602081019050602083039250612be1565b6001836020036101000a03801982511681845116808217855250505050505090500191505090815260200160405180910390206000016007886040518082805190602001908083835b60208310612c705780518252602082019150602081019050602083039250612c4d565b6001836020036101000a0380198251168184511680821785525050505050509050019150509081526020016040518091039020600101546007896040518082805190602001908083835b60208310612cdd5780518252602082019150602081019050602083039250612cba565b6001836020036101000a038019825116818451168082178552505050505050905001915050908152602001604051809103902060020160078a6040518082805190602001908083835b60208310612d495780518252602082019150602081019050602083039250612d26565b6001836020036101000a038019825116818451168082178552505050505050905001915050908152602001604051809103902060030160009054906101000a900460ff1660078b6040518082805190602001908083835b60208310612dc35780518252602082019150602081019050602083039250612da0565b6001836020036101000a038019825116818451168082178552505050505050905001915050908152602001604051809103902060030160019054906101000a900473ffffffffffffffffffffffffffffffffffffffff1660078c6040518082805190602001908083835b60208310612e505780518252602082019150602081019050602083039250612e2d565b6001836020036101000a0380198251168184511680821785525050505050509050019150509081526020016040518091039020600401858054600181600116156101000203166002900480601f016020809104026020016040519081016040528092919081815260200182805460018160011615610100020316600290048015612f1b5780601f10612ef057610100808354040283529160200191612f1b565b820191906000526020600020905b815481529060010190602001808311612efe57829003601f168201915b50505050509550838054600181600116156101000203166002900480601f016020809104026020016040519081016040528092919081815260200182805460018160011615610100020316600290048015612fb75780601f10612f8c57610100808354040283529160200191612fb7565b820191906000526020600020905b815481529060010190602001808311612f9a57829003601f168201915b50505050509350808054600181600116156101000203166002900480601f0160208091040260200160405190810160405280929190818152602001828054600181600116156101000203166002900480156130535780601f1061302857610100808354040283529160200191613053565b820191906000526020600020905b81548152906001019060200180831161303657829003601f168201915b5050505050905095509550955095509550955091939550919395565b600060608060006060600d60008773ffffffffffffffffffffffffffffffffffffffff1673ffffffffffffffffffffffffffffffffffffffff16815260200190815260200160002060000160009054906101000a900473ffffffffffffffffffffffffffffffffffffffff16600d60008873ffffffffffffffffffffffffffffffffffffffff1673ffffffffffffffffffffffffffffffffffffffff168152602001908152602001600020600101600d60008973ffffffffffffffffffffffffffffffffffffffff1673ffffffffffffffffffffffffffffffffffffffff168152602001908152602001600020600201600d60008a73ffffffffffffffffffffffffffffffffffffffff1673ffffffffffffffffffffffffffffffffffffffff16815260200190815260200160002060030160009054906101000a900460ff16600d60008b73ffffffffffffffffffffffffffffffffffffffff1673ffffffffffffffffffffffffffffffffffffffff168152602001908152602001600020600401838054600181600116156101000203166002900480601f0160208091040260200160405190810160405280929190818152602001828054600181600116156101000203166002900480156132865780601f1061325b57610100808354040283529160200191613286565b820191906000526020600020905b81548152906001019060200180831161326957829003601f168201915b50505050509350828054600181600116156101000203166002900480601f0160208091040260200160405190810160405280929190818152602001828054600181600116156101000203166002900480156133225780601f106132f757610100808354040283529160200191613322565b820191906000526020600020905b81548152906001019060200180831161330557829003601f168201915b50505050509250808054600181600116156101000203166002900480601f0160208091040260200160405190810160405280929190818152602001828054600181600116156101000203166002900480156133be5780601f10613393576101008083540402835291602001916133be565b820191906000526020600020905b8154815290600101906020018083116133a157829003601f168201915b505050505090509450945094509450945091939590929450565b6060600060608060006060600b60008873ffffffffffffffffffffffffffffffffffffffff1673ffffffffffffffffffffffffffffffffffffffff168152602001908152602001600020600001600b60008973ffffffffffffffffffffffffffffffffffffffff1673ffffffffffffffffffffffffffffffffffffffff16815260200190815260200160002060010160009054906101000a900473ffffffffffffffffffffffffffffffffffffffff16600b60008a73ffffffffffffffffffffffffffffffffffffffff1673ffffffffffffffffffffffffffffffffffffffff168152602001908152602001600020600201600b60008b73ffffffffffffffffffffffffffffffffffffffff1673ffffffffffffffffffffffffffffffffffffffff168152602001908152602001600020600301600b60008c73ffffffffffffffffffffffffffffffffffffffff1673ffffffffffffffffffffffffffffffffffffffff16815260200190815260200160002060040160009054906101000a900460ff16600b60008d73ffffffffffffffffffffffffffffffffffffffff1673ffffffffffffffffffffffffffffffffffffffff168152602001908152602001600020600501858054600181600116156101000203166002900480601f0160208091040260200160405190810160405280929190818152602001828054600181600116156101000203166002900480156136335780601f1061360857610100808354040283529160200191613633565b820191906000526020600020905b81548152906001019060200180831161361657829003601f168201915b50505050509550838054600181600116156101000203166002900480601f0160208091040260200160405190810160405280929190818152602001828054600181600116156101000203166002900480156136cf5780601f106136a4576101008083540402835291602001916136cf565b820191906000526020600020905b8154815290600101906020018083116136b257829003601f168201915b50505050509350828054600181600116156101000203166002900480601f01602080910402602001604051908101604052809291908181526020018280546001816001161561010002031660029004801561376b5780601f106137405761010080835404028352916020019161376b565b820191906000526020600020905b81548152906001019060200180831161374e57829003601f168201915b50505050509250808054600181600116156101000203166002900480601f0160208091040260200160405190810160405280929190818152602001828054600181600116156101000203166002900480156138075780601f106137dc57610100808354040283529160200191613807565b820191906000526020600020905b8154815290600101906020018083116137ea57829003601f168201915b5050505050905095509550955095509550955091939550919395565b606060008060006009856040518082805190602001908083835b60208310613860578051825260208201915060208101905060208303925061383d565b6001836020036101000a03801982511681845116808217855250505050505090500191505090815260200160405180910390206000016009866040518082805190602001908083835b602083106138cc57805182526020820191506020810190506020830392506138a9565b6001836020036101000a038019825116818451168082178552505050505050905001915050908152602001604051809103902060010160009054906101000a900473ffffffffffffffffffffffffffffffffffffffff166009876040518082805190602001908083835b602083106139595780518252602082019150602081019050602083039250613936565b6001836020036101000a0380198251168184511680821785525050505050509050019150509081526020016040518091039020600201546007886040518082805190602001908083835b602083106139c657805182526020820191506020810190506020830392506139a3565b6001836020036101000a038019825116818451168082178552505050505050905001915050908152602001604051809103902060030160009054906101000a900460ff16838054600181600116156101000203166002900480601f016020809104026020016040519081016040528092919081815260200182805460018160011615610100020316600290048015613a9f5780601f10613a7457610100808354040283529160200191613a9f565b820191906000526020600020905b815481529060010190602001808311613a8257829003601f168201915b5050505050935093509350935093509193509193565b604051806080016040528060608152602001600073ffffffffffffffffffffffffffffffffffffffff168152602001600081526020016000151581525090565b828054600181600116156101000203166002900490600052602060002090601f016020900481019282601f10613b3657805160ff1916838001178555613b64565b82800160010185558215613b64579182015b82811115613b63578251825591602001919060010190613b48565b5b509050613b719190613cd8565b5090565b828054600181600116156101000203166002900490600052602060002090601f016020900481019282601f10613bb657805160ff1916838001178555613be4565b82800160010185558215613be4579182015b82811115613be3578251825591602001919060010190613bc8565b5b509050613bf19190613cd8565b5090565b6040518060a00160405280600073ffffffffffffffffffffffffffffffffffffffff1681526020016060815260200160608152602001600015158152602001606081525090565b6040518060c00160405280606081526020016000815260200160608152602001600015158152602001600073ffffffffffffffffffffffffffffffffffffffff168152602001606081525090565b6040518060c0016040528060608152602001600073ffffffffffffffffffffffffffffffffffffffff1681526020016060815260200160608152602001600015158152602001606081525090565b613cfa91905b80821115613cf6576000816000905550600101613cde565b5090565b9056fea265627a7a72315820104be102957ee233a3ab481a31223b06151824ef87b5785eb4f511b9d00a039664736f6c63430005100032",
  "source": "pragma solidity >=0.5.0 <0.9.0;\r\nimport \"./Admin.sol\";\r\n\r\ncontract Employee {\r\n  address admin;\r\n  address employee_address;\r\n  string description;\r\n  string location;\r\n  uint256[] public overallEndorsement;\r\n  uint256 public endorsecount;\r\n  string name;\r\n\r\n  constructor(\r\n    address _admin,\r\n    address _employee_address,\r\n    string memory _name,\r\n    string memory _description,\r\n    string memory _location\r\n  ) public {\r\n    admin = _admin;\r\n    name = _name;\r\n    employee_address = _employee_address;\r\n    description = _description;\r\n    location = _location;\r\n    endorsecount = 0;\r\n  }\r\n\r\n  modifier OnlyEmployee() {\r\n    require(msg.sender == employee_address);\r\n    _;\r\n  }\r\n\r\n  function getEmployeeInfo()\r\n    public\r\n    view\r\n    returns (\r\n      address,\r\n      string memory,\r\n      string memory,\r\n      string memory,\r\n      uint256,\r\n      uint256\r\n    )\r\n  {\r\n    return (employee_address, name, description, location, 0, endorsecount);\r\n  }\r\n\r\n  /*********************************************************SKILLS SECTION**********************************************************/\r\n\r\n  struct skillInfo {\r\n    string name;\r\n    uint256 overall_percentage;\r\n    string experience;\r\n    bool endorsed;\r\n    address endorser_address;\r\n    string review;\r\n  }\r\n\r\n  mapping(string => skillInfo) skillmap;\r\n  string[] skills;\r\n\r\n  event skillVerified(address indexed employee, address indexed endorser);\r\n\r\n  event skillAdded(address indexed employee, string skillname);\r\n\r\n  function addSkill(string memory _name, string memory _experience)\r\n    public\r\n    OnlyEmployee\r\n  {\r\n    skillInfo memory employeeSkillSet;\r\n    employeeSkillSet.name = _name;\r\n    employeeSkillSet.experience = _experience;\r\n    employeeSkillSet.overall_percentage = 0;\r\n    employeeSkillSet.endorsed = false;\r\n    skillmap[_name] = employeeSkillSet;\r\n    skills.push(_name);\r\n    emit skillAdded(msg.sender, _name);\r\n  }\r\n\r\n  function endorseSkill(string memory _name, uint256 _overall_percentage)\r\n    public\r\n  {\r\n    require(Admin(admin).isOrganizationEndorser(msg.sender));\r\n    skillmap[_name].overall_percentage = _overall_percentage;\r\n    overallEndorsement.push(_overall_percentage);\r\n    endorsecount = endorsecount + 1;\r\n    skillmap[_name].endorsed = true;\r\n    emit skillVerified(employee_address, msg.sender);\r\n  }\r\n\r\n  function getSkillByName(string memory _name)\r\n    private\r\n    view\r\n    returns (\r\n      string memory,\r\n      uint256,\r\n      string memory,\r\n      bool,\r\n      address,\r\n      string memory\r\n    )\r\n  {\r\n    return (\r\n      skillmap[_name].name,\r\n      skillmap[_name].overall_percentage,\r\n      skillmap[_name].experience,\r\n      skillmap[_name].endorsed,\r\n      skillmap[_name].endorser_address,\r\n      skillmap[_name].review\r\n    );\r\n  }\r\n\r\n  function getSkillCount() public view returns (uint256) {\r\n    return skills.length;\r\n  }\r\n\r\n  function getSkillByIndex(uint256 _index)\r\n    public\r\n    view\r\n    returns (\r\n      string memory,\r\n      uint256,\r\n      string memory,\r\n      bool,\r\n      address,\r\n      string memory\r\n    )\r\n  {\r\n    return getSkillByName(skills[_index]);\r\n  }\r\n\r\n  /*********************************************************CERTIFICATION SECTION**********************************************************/\r\n\r\n  event certificationAdded(\r\n    address indexed employee,\r\n    address indexed organization\r\n  );\r\n\r\n  event certificationVerified(\r\n    address indexed employee,\r\n    address indexed organization\r\n  );\r\n\r\n  struct certificationInfo {\r\n    string name;\r\n    address organization;\r\n    uint256 score;\r\n    bool endorsed;\r\n  }\r\n\r\n  mapping(string => certificationInfo) certificationmap;\r\n  string[] certifications;\r\n\r\n  function addCertification(\r\n    string memory _name,\r\n    address _organization,\r\n    uint256 _score\r\n  ) public OnlyEmployee {\r\n    certificationInfo memory newcertificationInfo;\r\n    newcertificationInfo.name = _name;\r\n    newcertificationInfo.organization = _organization;\r\n    newcertificationInfo.score = _score;\r\n    newcertificationInfo.endorsed = false;\r\n    certificationmap[_name] = newcertificationInfo;\r\n    certifications.push(_name);\r\n    emit certificationAdded(msg.sender, _organization);\r\n  }\r\n\r\n  function endorseCertification(string memory _name) public {\r\n    require(Admin(admin).isOrganizationEndorser(msg.sender));\r\n    require(msg.sender == certificationmap[_name].organization);\r\n    certificationmap[_name].endorsed = true;\r\n    emit certificationVerified(employee_address, msg.sender);\r\n  }\r\n\r\n  function getCertificationByName(string memory _name)\r\n    private\r\n    view\r\n    returns (\r\n      string memory,\r\n      address,\r\n      uint256,\r\n      bool\r\n    )\r\n  {\r\n    return (\r\n      certificationmap[_name].name,\r\n      certificationmap[_name].organization,\r\n      certificationmap[_name].score,\r\n      skillmap[_name].endorsed\r\n    );\r\n  }\r\n\r\n  function getCertificationCount() public view returns (uint256) {\r\n    return certifications.length;\r\n  }\r\n\r\n  function getCertificationByIndex(uint256 _index)\r\n    public\r\n    view\r\n    returns (\r\n      string memory,\r\n      address,\r\n      uint256,\r\n      bool\r\n    )\r\n  {\r\n    return getCertificationByName(certifications[_index]);\r\n  }\r\n\r\n  /********************************************************************Work Experience Section********************************************************************/\r\n\r\n  event workexpAdded(address indexed employee, address indexed organization);\r\n\r\n  event workexpEndorsed(address indexed employee, address indexed organization);\r\n\r\n  struct workexpInfo {\r\n    string role;\r\n    address organization;\r\n    string startdate;\r\n    string enddate;\r\n    bool endorsed;\r\n    string description;\r\n  }\r\n\r\n  mapping(address => workexpInfo) workexpmap;\r\n  address[] workexps;\r\n\r\n  function addWorkExp(\r\n    string memory _role,\r\n    address _organization,\r\n    string memory _startdate,\r\n    string memory _enddate,\r\n    string memory _description\r\n  ) public OnlyEmployee {\r\n    workexpInfo memory newworkexp;\r\n    newworkexp.role = _role;\r\n    newworkexp.organization = _organization;\r\n    newworkexp.startdate = _startdate;\r\n    newworkexp.enddate = _enddate;\r\n    newworkexp.endorsed = false;\r\n    newworkexp.description = _description;\r\n    workexpmap[_organization] = newworkexp;\r\n    workexps.push(_organization);\r\n    emit workexpAdded(msg.sender, _organization);\r\n  }\r\n\r\n  function endorseWorkExp() public {\r\n    require(Admin(admin).isOrganizationEndorser(msg.sender));\r\n    require(workexpmap[msg.sender].organization != address(0x0));\r\n    workexpmap[msg.sender].endorsed = true;\r\n    emit workexpEndorsed(employee_address, msg.sender);\r\n  }\r\n\r\n  function getWorkExpByAddress(address _organization)\r\n    private\r\n    view\r\n    returns (\r\n      string memory,\r\n      address,\r\n      string memory,\r\n      string memory,\r\n      bool,\r\n      string memory\r\n    )\r\n  {\r\n    return (\r\n      workexpmap[_organization].role,\r\n      workexpmap[_organization].organization,\r\n      workexpmap[_organization].startdate,\r\n      workexpmap[_organization].enddate,\r\n      workexpmap[_organization].endorsed,\r\n      workexpmap[_organization].description\r\n    );\r\n  }\r\n\r\n  function getWorkExpCount() public view returns (uint256) {\r\n    return workexps.length;\r\n  }\r\n\r\n  function getWorkExpByIndex(uint256 _index)\r\n    public\r\n    view\r\n    returns (\r\n      string memory,\r\n      address,\r\n      string memory,\r\n      string memory,\r\n      bool,\r\n      string memory\r\n    )\r\n  {\r\n    return getWorkExpByAddress(workexps[_index]);\r\n  }\r\n\r\n  /********************************************************************Education Section********************************************************************/\r\n\r\n  event EducationAdded(address indexed employee, address indexed institute);\r\n\r\n  event educationEndorsed(address indexed employee, address indexed institute);\r\n\r\n  struct educationInfo {\r\n    address institute;\r\n    string startdate;\r\n    string enddate;\r\n    bool endorsed;\r\n    string description;\r\n  }\r\n\r\n  mapping(address => educationInfo) educationmap;\r\n  address[] educations;\r\n\r\n  function addEducation(\r\n    address _institute,\r\n    string memory _startdate,\r\n    string memory _enddate,\r\n    string memory _description\r\n  ) public OnlyEmployee {\r\n    educationInfo memory newEducation;\r\n    newEducation.institute = _institute;\r\n    newEducation.startdate = _startdate;\r\n    newEducation.enddate = _enddate;\r\n    newEducation.endorsed = false;\r\n    newEducation.description = _description;\r\n    educationmap[_institute] = newEducation;\r\n    educations.push(_institute);\r\n    emit EducationAdded(msg.sender, _institute);\r\n  }\r\n\r\n  function endorseEducation() public {\r\n    require(Admin(admin).isOrganizationEndorser(msg.sender));\r\n    require(educationmap[msg.sender].institute != address(0x0));\r\n    educationmap[msg.sender].endorsed = true;\r\n    emit educationEndorsed(employee_address, msg.sender);\r\n  }\r\n\r\n  function getEducationByAddress(address _institute)\r\n    private\r\n    view\r\n    returns (\r\n      address,\r\n      string memory,\r\n      string memory,\r\n      bool,\r\n      string memory\r\n    )\r\n  {\r\n    return (\r\n      educationmap[_institute].institute,\r\n      educationmap[_institute].startdate,\r\n      educationmap[_institute].enddate,\r\n      educationmap[_institute].endorsed,\r\n      educationmap[_institute].description\r\n    );\r\n  }\r\n\r\n  function getEducationCount() public view returns (uint256) {\r\n    return educations.length;\r\n  }\r\n\r\n  function getEducationByIndex(uint256 _index)\r\n    public\r\n    view\r\n    returns (\r\n      address,\r\n      string memory,\r\n      string memory,\r\n      bool,\r\n      string memory\r\n    )\r\n  {\r\n    return getEducationByAddress(educations[_index]);\r\n  }\r\n}\r\n",
  "sourcePath": "C:\\Users\\Asus\\Desktop\\skillset-verified\\src\\contracts\\Employee.sol",
  "compiler": {
    "name": "solc",
    "version": "0.5.16+commit.9c3226ce.Emscripten.clang"
  },
  "schemaVersion": "3.2.3",
  "updatedAt": "2021-09-25T19:01:08.655Z",
  "networkType": "ethereum",
  "devdoc": {
    "methods": {}
  },
  "userdoc": {
    "methods": {}
  }
}