{
  "contractName": "Employee",
  "abi": [
    {
      "inputs": [
        {
          "internalType": "address",
          "name": "_admin",
          "type": "address"
        },
        {
          "internalType": "address",
          "name": "_employee_address",
          "type": "address"
        },
        {
          "internalType": "string",
          "name": "_name",
          "type": "string"
        },
        {
          "internalType": "string",
          "name": "_description",
          "type": "string"
        },
        {
          "internalType": "string",
          "name": "_location",
          "type": "string"
        }
      ],
      "payable": false,
      "stateMutability": "nonpayable",
      "type": "constructor"
    },
    {
      "constant": true,
      "inputs": [],
      "name": "endorsecount",
      "outputs": [
        {
          "internalType": "uint256",
          "name": "",
          "type": "uint256"
        }
      ],
      "payable": false,
      "stateMutability": "view",
      "type": "function"
    },
    {
      "constant": true,
      "inputs": [
        {
          "internalType": "uint256",
          "name": "",
          "type": "uint256"
        }
      ],
      "name": "overallEndorsement",
      "outputs": [
        {
          "internalType": "uint256",
          "name": "",
          "type": "uint256"
        }
      ],
      "payable": false,
      "stateMutability": "view",
      "type": "function"
    },
    {
      "constant": true,
      "inputs": [],
      "name": "getEmployeeInfo",
      "outputs": [
        {
          "internalType": "address",
          "name": "",
          "type": "address"
        },
        {
          "internalType": "string",
          "name": "",
          "type": "string"
        },
        {
          "internalType": "string",
          "name": "",
          "type": "string"
        },
        {
          "internalType": "string",
          "name": "",
          "type": "string"
        },
        {
          "internalType": "uint256",
          "name": "",
          "type": "uint256"
        },
        {
          "internalType": "uint256",
          "name": "",
          "type": "uint256"
        }
      ],
      "payable": false,
      "stateMutability": "view",
      "type": "function"
    },
    {
      "constant": false,
      "inputs": [
        {
          "internalType": "string",
          "name": "_name",
          "type": "string"
        },
        {
          "internalType": "string",
          "name": "_descrip",
          "type": "string"
        },
        {
          "internalType": "string",
          "name": "_location",
          "type": "string"
        }
      ],
      "name": "editInfo",
      "outputs": [],
      "payable": false,
      "stateMutability": "nonpayable",
      "type": "function"
    },
    {
      "constant": false,
      "inputs": [
        {
          "internalType": "string",
          "name": "_name",
          "type": "string"
        },
        {
          "internalType": "string",
          "name": "_experience",
          "type": "string"
        }
      ],
      "name": "addSkill",
      "outputs": [],
      "payable": false,
      "stateMutability": "nonpayable",
      "type": "function"
    },
    {
      "constant": false,
      "inputs": [
        {
          "internalType": "string",
          "name": "_name",
          "type": "string"
        },
        {
          "internalType": "uint256",
          "name": "_overall_percentage",
          "type": "uint256"
        },
        {
          "internalType": "string",
          "name": "_review",
          "type": "string"
        }
      ],
      "name": "endorseSkill",
      "outputs": [],
      "payable": false,
      "stateMutability": "nonpayable",
      "type": "function"
    },
    {
      "constant": true,
      "inputs": [],
      "name": "getSkillCount",
      "outputs": [
        {
          "internalType": "uint256",
          "name": "",
          "type": "uint256"
        }
      ],
      "payable": false,
      "stateMutability": "view",
      "type": "function"
    },
    {
      "constant": true,
      "inputs": [
        {
          "internalType": "uint256",
          "name": "_index",
          "type": "uint256"
        }
      ],
      "name": "getSkillByIndex",
      "outputs": [
        {
          "internalType": "string",
          "name": "",
          "type": "string"
        },
        {
          "internalType": "uint256",
          "name": "",
          "type": "uint256"
        },
        {
          "internalType": "string",
          "name": "",
          "type": "string"
        },
        {
          "internalType": "bool",
          "name": "",
          "type": "bool"
        },
        {
          "internalType": "address",
          "name": "",
          "type": "address"
        },
        {
          "internalType": "string",
          "name": "",
          "type": "string"
        },
        {
          "internalType": "bool",
          "name": "",
          "type": "bool"
        }
      ],
      "payable": false,
      "stateMutability": "view",
      "type": "function"
    },
    {
      "constant": false,
      "inputs": [
        {
          "internalType": "string",
          "name": "_name",
          "type": "string"
        }
      ],
      "name": "deleteSkill",
      "outputs": [],
      "payable": false,
      "stateMutability": "nonpayable",
      "type": "function"
    },
    {
      "constant": false,
      "inputs": [
        {
          "internalType": "string",
          "name": "_name",
          "type": "string"
        },
        {
          "internalType": "address",
          "name": "_organization",
          "type": "address"
        },
        {
          "internalType": "uint256",
          "name": "_score",
          "type": "uint256"
        }
      ],
      "name": "addCertification",
      "outputs": [],
      "payable": false,
      "stateMutability": "nonpayable",
      "type": "function"
    },
    {
      "constant": false,
      "inputs": [
        {
          "internalType": "string",
          "name": "_name",
          "type": "string"
        }
      ],
      "name": "endorseCertification",
      "outputs": [],
      "payable": false,
      "stateMutability": "nonpayable",
      "type": "function"
    },
    {
      "constant": true,
      "inputs": [],
      "name": "getCertificationCount",
      "outputs": [
        {
          "internalType": "uint256",
          "name": "",
          "type": "uint256"
        }
      ],
      "payable": false,
      "stateMutability": "view",
      "type": "function"
    },
    {
      "constant": true,
      "inputs": [
        {
          "internalType": "uint256",
          "name": "_index",
          "type": "uint256"
        }
      ],
      "name": "getCertificationByIndex",
      "outputs": [
        {
          "internalType": "string",
          "name": "",
          "type": "string"
        },
        {
          "internalType": "address",
          "name": "",
          "type": "address"
        },
        {
          "internalType": "uint256",
          "name": "",
          "type": "uint256"
        },
        {
          "internalType": "bool",
          "name": "",
          "type": "bool"
        },
        {
          "internalType": "bool",
          "name": "",
          "type": "bool"
        }
      ],
      "payable": false,
      "stateMutability": "view",
      "type": "function"
    },
    {
      "constant": false,
      "inputs": [
        {
          "internalType": "string",
          "name": "_name",
          "type": "string"
        }
      ],
      "name": "deleteCertification",
      "outputs": [],
      "payable": false,
      "stateMutability": "nonpayable",
      "type": "function"
    },
    {
      "constant": false,
      "inputs": [
        {
          "internalType": "string",
          "name": "_role",
          "type": "string"
        },
        {
          "internalType": "address",
          "name": "_organization",
          "type": "address"
        },
        {
          "internalType": "string",
          "name": "_startdate",
          "type": "string"
        },
        {
          "internalType": "string",
          "name": "_enddate",
          "type": "string"
        },
        {
          "internalType": "string",
          "name": "_description",
          "type": "string"
        }
      ],
      "name": "addWorkExp",
      "outputs": [],
      "payable": false,
      "stateMutability": "nonpayable",
      "type": "function"
    },
    {
      "constant": false,
      "inputs": [],
      "name": "endorseWorkExp",
      "outputs": [],
      "payable": false,
      "stateMutability": "nonpayable",
      "type": "function"
    },
    {
      "constant": true,
      "inputs": [],
      "name": "getWorkExpCount",
      "outputs": [
        {
          "internalType": "uint256",
          "name": "",
          "type": "uint256"
        }
      ],
      "payable": false,
      "stateMutability": "view",
      "type": "function"
    },
    {
      "constant": true,
      "inputs": [
        {
          "internalType": "uint256",
          "name": "_index",
          "type": "uint256"
        }
      ],
      "name": "getWorkExpByIndex",
      "outputs": [
        {
          "internalType": "string",
          "name": "",
          "type": "string"
        },
        {
          "internalType": "address",
          "name": "",
          "type": "address"
        },
        {
          "internalType": "string",
          "name": "",
          "type": "string"
        },
        {
          "internalType": "string",
          "name": "",
          "type": "string"
        },
        {
          "internalType": "bool",
          "name": "",
          "type": "bool"
        },
        {
          "internalType": "string",
          "name": "",
          "type": "string"
        },
        {
          "internalType": "bool",
          "name": "",
          "type": "bool"
        }
      ],
      "payable": false,
      "stateMutability": "view",
      "type": "function"
    },
    {
      "constant": false,
      "inputs": [
        {
          "internalType": "address",
          "name": "org",
          "type": "address"
        }
      ],
      "name": "deleteWorkExp",
      "outputs": [],
      "payable": false,
      "stateMutability": "nonpayable",
      "type": "function"
    },
    {
      "constant": false,
      "inputs": [
        {
          "internalType": "address",
          "name": "_institute",
          "type": "address"
        },
        {
          "internalType": "string",
          "name": "_startdate",
          "type": "string"
        },
        {
          "internalType": "string",
          "name": "_enddate",
          "type": "string"
        },
        {
          "internalType": "string",
          "name": "_description",
          "type": "string"
        }
      ],
      "name": "addEducation",
      "outputs": [],
      "payable": false,
      "stateMutability": "nonpayable",
      "type": "function"
    },
    {
      "constant": false,
      "inputs": [],
      "name": "endorseEducation",
      "outputs": [],
      "payable": false,
      "stateMutability": "nonpayable",
      "type": "function"
    },
    {
      "constant": true,
      "inputs": [],
      "name": "getEducationCount",
      "outputs": [
        {
          "internalType": "uint256",
          "name": "",
          "type": "uint256"
        }
      ],
      "payable": false,
      "stateMutability": "view",
      "type": "function"
    },
    {
      "constant": true,
      "inputs": [
        {
          "internalType": "uint256",
          "name": "_index",
          "type": "uint256"
        }
      ],
      "name": "getEducationByIndex",
      "outputs": [
        {
          "internalType": "address",
          "name": "",
          "type": "address"
        },
        {
          "internalType": "string",
          "name": "",
          "type": "string"
        },
        {
          "internalType": "string",
          "name": "",
          "type": "string"
        },
        {
          "internalType": "bool",
          "name": "",
          "type": "bool"
        },
        {
          "internalType": "string",
          "name": "",
          "type": "string"
        }
      ],
      "payable": false,
      "stateMutability": "view",
      "type": "function"
    }
  ],
  "bytecode": "0x60806040523480156200001157600080fd5b506040516200458838038062004588833981810160405260a08110156200003757600080fd5b810190808051906020019092919080519060200190929190805160405193929190846401000000008211156200006c57600080fd5b838201915060208201858111156200008357600080fd5b8251866001820283011164010000000082111715620000a157600080fd5b8083526020830192505050908051906020019080838360005b83811015620000d7578082015181840152602081019050620000ba565b50505050905090810190601f168015620001055780820380516001836020036101000a031916815260200191505b50604052602001805160405193929190846401000000008211156200012957600080fd5b838201915060208201858111156200014057600080fd5b82518660018202830111640100000000821117156200015e57600080fd5b8083526020830192505050908051906020019080838360005b838110156200019457808201518184015260208101905062000177565b50505050905090810190601f168015620001c25780820380516001836020036101000a031916815260200191505b5060405260200180516040519392919084640100000000821115620001e657600080fd5b83820191506020820185811115620001fd57600080fd5b82518660018202830111640100000000821117156200021b57600080fd5b8083526020830192505050908051906020019080838360005b838110156200025157808201518184015260208101905062000234565b50505050905090810190601f1680156200027f5780820380516001836020036101000a031916815260200191505b50604052505050846000806101000a81548173ffffffffffffffffffffffffffffffffffffffff021916908373ffffffffffffffffffffffffffffffffffffffff1602179055508260069080519060200190620002de92919062000365565b5083600160006101000a81548173ffffffffffffffffffffffffffffffffffffffff021916908373ffffffffffffffffffffffffffffffffffffffff16021790555081600290805190602001906200033892919062000365565b5080600390805190602001906200035192919062000365565b506000600581905550505050505062000414565b828054600181600116156101000203166002900490600052602060002090601f016020900481019282601f10620003a857805160ff1916838001178555620003d9565b82800160010185558215620003d9579182015b82811115620003d8578251825591602001919060010190620003bb565b5b509050620003e89190620003ec565b5090565b6200041191905b808211156200040d576000816000905550600101620003f3565b5090565b90565b61416480620004246000396000f3fe608060405234801561001057600080fd5b506004361061014d5760003560e01c8063b284b5c3116100c3578063eda3467c1161007c578063eda3467c14610f8a578063f1d9efb214611045578063f5e616a6146112e5578063fc017f25146112ef578063fdb10361146114d8578063fee7989e146116345761014d565b8063b284b5c3146108de578063c07f7d16146108fc578063cf6431c614610b05578063d57e0ad614610bc0578063d862ae8714610df4578063e260175114610f465761014d565b80636212fa02116101155780636212fa0214610422578063645f29a8146104405780637b1d2d00146105fd5780637c067d8d146106e257806394fb3da714610724578063a3e3bf7d146107425761014d565b806305f53b29146101525780632186879c14610170578063444fc6621461022b57806344afd134146103fa57806344f034ae14610418575b600080fd5b61015a61172b565b6040518082815260200191505060405180910390f35b6102296004803603602081101561018657600080fd5b81019080803590602001906401000000008111156101a357600080fd5b8201836020820111156101b557600080fd5b803590602001918460018302840111640100000000831117156101d757600080fd5b91908080601f016020809104026020016040519081016040528093929190818152602001838380828437600081840152601f19601f820116905080830192505050505050509192919290505050611738565b005b6102576004803603602081101561024157600080fd5b810190808035906020019092919050505061181a565b604051808060200188815260200180602001871515151581526020018673ffffffffffffffffffffffffffffffffffffffff1673ffffffffffffffffffffffffffffffffffffffff168152602001806020018515151515815260200184810384528b818151815260200191508051906020019080838360005b838110156102eb5780820151818401526020810190506102d0565b50505050905090810190601f1680156103185780820380516001836020036101000a031916815260200191505b50848103835289818151815260200191508051906020019080838360005b83811015610351578082015181840152602081019050610336565b50505050905090810190601f16801561037e5780820380516001836020036101000a031916815260200191505b50848103825286818151815260200191508051906020019080838360005b838110156103b757808201518184015260208101905061039c565b50505050905090810190601f1680156103e45780820380516001836020036101000a031916815260200191505b509a505050505050505050505060405180910390f35b6104026118f8565b6040518082815260200191505060405180910390f35b610420611905565b005b61042a6119fe565b6040518082815260200191505060405180910390f35b61046c6004803603602081101561045657600080fd5b8101908080359060200190929190505050611a0b565b604051808673ffffffffffffffffffffffffffffffffffffffff1673ffffffffffffffffffffffffffffffffffffffff16815260200180602001806020018515151515815260200180602001848103845288818151815260200191508051906020019080838360005b838110156104f05780820151818401526020810190506104d5565b50505050905090810190601f16801561051d5780820380516001836020036101000a031916815260200191505b50848103835287818151815260200191508051906020019080838360005b8381101561055657808201518184015260208101905061053b565b50505050905090810190601f1680156105835780820380516001836020036101000a031916815260200191505b50848103825285818151815260200191508051906020019080838360005b838110156105bc5780820151818401526020810190506105a1565b50505050905090810190601f1680156105e95780820380516001836020036101000a031916815260200191505b509850505050505050505060405180910390f35b6106e06004803603606081101561061357600080fd5b810190808035906020019064010000000081111561063057600080fd5b82018360208201111561064257600080fd5b8035906020019184600183028401116401000000008311171561066457600080fd5b91908080601f016020809104026020016040519081016040528093929190818152602001838380828437600081840152601f19601f820116905080830192505050505050509192919290803573ffffffffffffffffffffffffffffffffffffffff16906020019092919080359060200190929190505050611a67565b005b61070e600480360360208110156106f857600080fd5b8101908080359060200190929190505050611c96565b6040518082815260200191505060405180910390f35b61072c611cb7565b6040518082815260200191505060405180910390f35b61074a611cc4565b604051808773ffffffffffffffffffffffffffffffffffffffff1673ffffffffffffffffffffffffffffffffffffffff168152602001806020018060200180602001868152602001858152602001848103845289818151815260200191508051906020019080838360005b838110156107d05780820151818401526020810190506107b5565b50505050905090810190601f1680156107fd5780820380516001836020036101000a031916815260200191505b50848103835288818151815260200191508051906020019080838360005b8381101561083657808201518184015260208101905061081b565b50505050905090810190601f1680156108635780820380516001836020036101000a031916815260200191505b50848103825287818151815260200191508051906020019080838360005b8381101561089c578082015181840152602081019050610881565b50505050905090810190601f1680156108c95780820380516001836020036101000a031916815260200191505b50995050505050505050505060405180910390f35b6108e6611ee7565b6040518082815260200191505060405180910390f35b610b036004803603608081101561091257600080fd5b81019080803573ffffffffffffffffffffffffffffffffffffffff1690602001909291908035906020019064010000000081111561094f57600080fd5b82018360208201111561096157600080fd5b8035906020019184600183028401116401000000008311171561098357600080fd5b91908080601f016020809104026020016040519081016040528093929190818152602001838380828437600081840152601f19601f820116905080830192505050505050509192919290803590602001906401000000008111156109e657600080fd5b8201836020820111156109f857600080fd5b80359060200191846001830284011164010000000083111715610a1a57600080fd5b91908080601f016020809104026020016040519081016040528093929190818152602001838380828437600081840152601f19601f82011690508083019250505050505050919291929080359060200190640100000000811115610a7d57600080fd5b820183602082011115610a8f57600080fd5b80359060200191846001830284011164010000000083111715610ab157600080fd5b91908080601f016020809104026020016040519081016040528093929190818152602001838380828437600081840152601f19601f820116905080830192505050505050509192919290505050611eed565b005b610bbe60048036036020811015610b1b57600080fd5b8101908080359060200190640100000000811115610b3857600080fd5b820183602082011115610b4a57600080fd5b80359060200191846001830284011164010000000083111715610b6c57600080fd5b91908080601f016020809104026020016040519081016040528093929190818152602001838380828437600081840152601f19601f820116905080830192505050505050509192919290505050612121565b005b610bec60048036036020811015610bd657600080fd5b810190808035906020019092919050505061226d565b60405180806020018873ffffffffffffffffffffffffffffffffffffffff1673ffffffffffffffffffffffffffffffffffffffff168152602001806020018060200187151515158152602001806020018615151515815260200185810385528c818151815260200191508051906020019080838360005b83811015610c7e578082015181840152602081019050610c63565b50505050905090810190601f168015610cab5780820380516001836020036101000a031916815260200191505b5085810384528a818151815260200191508051906020019080838360005b83811015610ce4578082015181840152602081019050610cc9565b50505050905090810190601f168015610d115780820380516001836020036101000a031916815260200191505b50858103835289818151815260200191508051906020019080838360005b83811015610d4a578082015181840152602081019050610d2f565b50505050905090810190601f168015610d775780820380516001836020036101000a031916815260200191505b50858103825287818151815260200191508051906020019080838360005b83811015610db0578082015181840152602081019050610d95565b50505050905090810190601f168015610ddd5780820380516001836020036101000a031916815260200191505b509b50505050505050505050505060405180910390f35b610f4460048036036040811015610e0a57600080fd5b8101908080359060200190640100000000811115610e2757600080fd5b820183602082011115610e3957600080fd5b80359060200191846001830284011164010000000083111715610e5b57600080fd5b91908080601f016020809104026020016040519081016040528093929190818152602001838380828437600081840152601f19601f82011690508083019250505050505050919291929080359060200190640100000000811115610ebe57600080fd5b820183602082011115610ed057600080fd5b80359060200191846001830284011164010000000083111715610ef257600080fd5b91908080601f016020809104026020016040519081016040528093929190818152602001838380828437600081840152601f19601f8201169050808301925050505050505091929192905050506122d3565b005b610f8860048036036020811015610f5c57600080fd5b81019080803573ffffffffffffffffffffffffffffffffffffffff16906020019092919050505061250d565b005b61104360048036036020811015610fa057600080fd5b8101908080359060200190640100000000811115610fbd57600080fd5b820183602082011115610fcf57600080fd5b80359060200191846001830284011164010000000083111715610ff157600080fd5b91908080601f016020809104026020016040519081016040528093929190818152602001838380828437600081840152601f19601f8201169050808301925050505050505091929192905050506125c5565b005b6112e3600480360360a081101561105b57600080fd5b810190808035906020019064010000000081111561107857600080fd5b82018360208201111561108a57600080fd5b803590602001918460018302840111640100000000831117156110ac57600080fd5b91908080601f016020809104026020016040519081016040528093929190818152602001838380828437600081840152601f19601f820116905080830192505050505050509192919290803573ffffffffffffffffffffffffffffffffffffffff1690602001909291908035906020019064010000000081111561112f57600080fd5b82018360208201111561114157600080fd5b8035906020019184600183028401116401000000008311171561116357600080fd5b91908080601f016020809104026020016040519081016040528093929190818152602001838380828437600081840152601f19601f820116905080830192505050505050509192919290803590602001906401000000008111156111c657600080fd5b8201836020820111156111d857600080fd5b803590602001918460018302840111640100000000831117156111fa57600080fd5b91908080601f016020809104026020016040519081016040528093929190818152602001838380828437600081840152601f19601f8201169050808301925050505050505091929192908035906020019064010000000081111561125d57600080fd5b82018360208201111561126f57600080fd5b8035906020019184600183028401116401000000008311171561129157600080fd5b91908080601f016020809104026020016040519081016040528093929190818152602001838380828437600081840152601f19601f8201169050808301925050505050505091929192905050506126a7565b005b6112ed612933565b005b6114d66004803603606081101561130557600080fd5b810190808035906020019064010000000081111561132257600080fd5b82018360208201111561133457600080fd5b8035906020019184600183028401116401000000008311171561135657600080fd5b91908080601f016020809104026020016040519081016040528093929190818152602001838380828437600081840152601f19601f820116905080830192505050505050509192919290803590602001906401000000008111156113b957600080fd5b8201836020820111156113cb57600080fd5b803590602001918460018302840111640100000000831117156113ed57600080fd5b91908080601f016020809104026020016040519081016040528093929190818152602001838380828437600081840152601f19601f8201169050808301925050505050505091929192908035906020019064010000000081111561145057600080fd5b82018360208201111561146257600080fd5b8035906020019184600183028401116401000000008311171561148457600080fd5b91908080601f016020809104026020016040519081016040528093929190818152602001838380828437600081840152601f19601f820116905080830192505050505050509192919290505050612a2c565b005b611632600480360360608110156114ee57600080fd5b810190808035906020019064010000000081111561150b57600080fd5b82018360208201111561151d57600080fd5b8035906020019184600183028401116401000000008311171561153f57600080fd5b91908080601f016020809104026020016040519081016040528093929190818152602001838380828437600081840152601f19601f82011690508083019250505050505050919291929080359060200190929190803590602001906401000000008111156115ac57600080fd5b8201836020820111156115be57600080fd5b803590602001918460018302840111640100000000831117156115e057600080fd5b91908080601f016020809104026020016040519081016040528093929190818152602001838380828437600081840152601f19601f820116905080830192505050505050509192919290505050612ad0565b005b6116606004803603602081101561164a57600080fd5b8101908080359060200190929190505050612db2565b60405180806020018673ffffffffffffffffffffffffffffffffffffffff1673ffffffffffffffffffffffffffffffffffffffff1681526020018581526020018415151515815260200183151515158152602001828103825287818151815260200191508051906020019080838360005b838110156116ec5780820151818401526020810190506116d1565b50505050905090810190601f1680156117195780820380516001836020036101000a031916815260200191505b50965050505050505060405180910390f35b6000600880549050905090565b600160009054906101000a900473ffffffffffffffffffffffffffffffffffffffff1673ffffffffffffffffffffffffffffffffffffffff163373ffffffffffffffffffffffffffffffffffffffff161461179257600080fd5b60006009826040518082805190602001908083835b602083106117ca57805182526020820191506020810190506020830392506117a7565b6001836020036101000a038019825116818451168082178552505050505050905001915050908152602001604051809103902060030160016101000a81548160ff02191690831515021790555050565b606060006060600080606060006118df6008898154811061183757fe5b906000526020600020018054600181600116156101000203166002900480601f0160208091040260200160405190810160405280929190818152602001828054600181600116156101000203166002900480156118d55780601f106118aa576101008083540402835291602001916118d5565b820191906000526020600020905b8154815290600101906020018083116118b857829003601f168201915b5050505050612e85565b9650965096509650965096509650919395979092949650565b6000600a80549050905090565b600073ffffffffffffffffffffffffffffffffffffffff16600b60003373ffffffffffffffffffffffffffffffffffffffff1673ffffffffffffffffffffffffffffffffffffffff16815260200190815260200160002060010160009054906101000a900473ffffffffffffffffffffffffffffffffffffffff1673ffffffffffffffffffffffffffffffffffffffff1614156119a157600080fd5b6001600b60003373ffffffffffffffffffffffffffffffffffffffff1673ffffffffffffffffffffffffffffffffffffffff16815260200190815260200160002060040160006101000a81548160ff021916908315150217905550565b6000600e80549050905090565b600060608060006060611a54600e8781548110611a2457fe5b9060005260206000200160009054906101000a900473ffffffffffffffffffffffffffffffffffffffff166133b1565b9450945094509450945091939590929450565b600160009054906101000a900473ffffffffffffffffffffffffffffffffffffffff1673ffffffffffffffffffffffffffffffffffffffff163373ffffffffffffffffffffffffffffffffffffffff1614611ac157600080fd5b611ac9613ecc565b83816000018190525082816020019073ffffffffffffffffffffffffffffffffffffffff16908173ffffffffffffffffffffffffffffffffffffffff16815250508181604001818152505060008160600190151590811515815250506001816080019015159081151581525050806009856040518082805190602001908083835b60208310611b6d5780518252602082019150602081019050602083039250611b4a565b6001836020036101000a03801982511681845116808217855250505050505090500191505090815260200160405180910390206000820151816000019080519060200190611bbc929190613f15565b5060208201518160010160006101000a81548173ffffffffffffffffffffffffffffffffffffffff021916908373ffffffffffffffffffffffffffffffffffffffff1602179055506040820151816002015560608201518160030160006101000a81548160ff02191690831515021790555060808201518160030160016101000a81548160ff021916908315150217905550905050600a849080600181540180825580915050906001820390600052602060002001600090919290919091509080519060200190611c8e929190613f95565b505050505050565b60048181548110611ca357fe5b906000526020600020016000915090505481565b6000600c80549050905090565b60006060806060600080600160009054906101000a900473ffffffffffffffffffffffffffffffffffffffff166006600260036000600554848054600181600116156101000203166002900480601f016020809104026020016040519081016040528092919081815260200182805460018160011615610100020316600290048015611d915780601f10611d6657610100808354040283529160200191611d91565b820191906000526020600020905b815481529060010190602001808311611d7457829003601f168201915b50505050509450838054600181600116156101000203166002900480601f016020809104026020016040519081016040528092919081815260200182805460018160011615610100020316600290048015611e2d5780601f10611e0257610100808354040283529160200191611e2d565b820191906000526020600020905b815481529060010190602001808311611e1057829003601f168201915b50505050509350828054600181600116156101000203166002900480601f016020809104026020016040519081016040528092919081815260200182805460018160011615610100020316600290048015611ec95780601f10611e9e57610100808354040283529160200191611ec9565b820191906000526020600020905b815481529060010190602001808311611eac57829003601f168201915b50505050509250819150955095509550955095509550909192939495565b60055481565b600160009054906101000a900473ffffffffffffffffffffffffffffffffffffffff1673ffffffffffffffffffffffffffffffffffffffff163373ffffffffffffffffffffffffffffffffffffffff1614611f4757600080fd5b611f4f614015565b84816000019073ffffffffffffffffffffffffffffffffffffffff16908173ffffffffffffffffffffffffffffffffffffffff1681525050838160200181905250828160400181905250600081606001901515908115158152505081816080018190525080600d60008773ffffffffffffffffffffffffffffffffffffffff1673ffffffffffffffffffffffffffffffffffffffff16815260200190815260200160002060008201518160000160006101000a81548173ffffffffffffffffffffffffffffffffffffffff021916908373ffffffffffffffffffffffffffffffffffffffff1602179055506020820151816001019080519060200190612056929190613f15565b506040820151816002019080519060200190612073929190613f15565b5060608201518160030160006101000a81548160ff02191690831515021790555060808201518160040190805190602001906120b0929190613f15565b50905050600e8590806001815401808255809150509060018203906000526020600020016000909192909190916101000a81548173ffffffffffffffffffffffffffffffffffffffff021916908373ffffffffffffffffffffffffffffffffffffffff160217905550505050505050565b6009816040518082805190602001908083835b602083106121575780518252602082019150602081019050602083039250612134565b6001836020036101000a038019825116818451168082178552505050505050905001915050908152602001604051809103902060010160009054906101000a900473ffffffffffffffffffffffffffffffffffffffff1673ffffffffffffffffffffffffffffffffffffffff163373ffffffffffffffffffffffffffffffffffffffff16146121e557600080fd5b60016009826040518082805190602001908083835b6020831061221d57805182526020820191506020810190506020830392506121fa565b6001836020036101000a038019825116818451168082178552505050505050905001915050908152602001604051809103902060030160006101000a81548160ff02191690831515021790555050565b606060006060806000606060006122ba600c898154811061228a57fe5b9060005260206000200160009054906101000a900473ffffffffffffffffffffffffffffffffffffffff1661371a565b9650965096509650965096509650919395979092949650565b600160009054906101000a900473ffffffffffffffffffffffffffffffffffffffff1673ffffffffffffffffffffffffffffffffffffffff163373ffffffffffffffffffffffffffffffffffffffff161461232d57600080fd5b61233561405c565b8281600001819052508181604001819052506000816020018181525050600081606001901515908115158152505060018160c0019015159081151581525050806007846040518082805190602001908083835b602083106123ab5780518252602082019150602081019050602083039250612388565b6001836020036101000a038019825116818451168082178552505050505050905001915050908152602001604051809103902060008201518160000190805190602001906123fa929190613f15565b50602082015181600101556040820151816002019080519060200190612421929190613f15565b5060608201518160030160006101000a81548160ff02191690831515021790555060808201518160030160016101000a81548173ffffffffffffffffffffffffffffffffffffffff021916908373ffffffffffffffffffffffffffffffffffffffff16021790555060a08201518160040190805190602001906124a5929190613f15565b5060c08201518160050160006101000a81548160ff0219169083151502179055509050506008839080600181540180825580915050906001820390600052602060002001600090919290919091509080519060200190612506929190613f95565b5050505050565b600160009054906101000a900473ffffffffffffffffffffffffffffffffffffffff1673ffffffffffffffffffffffffffffffffffffffff163373ffffffffffffffffffffffffffffffffffffffff161461256757600080fd5b6000600b60008373ffffffffffffffffffffffffffffffffffffffff1673ffffffffffffffffffffffffffffffffffffffff16815260200190815260200160002060060160006101000a81548160ff02191690831515021790555050565b600160009054906101000a900473ffffffffffffffffffffffffffffffffffffffff1673ffffffffffffffffffffffffffffffffffffffff163373ffffffffffffffffffffffffffffffffffffffff161461261f57600080fd5b60006007826040518082805190602001908083835b602083106126575780518252602082019150602081019050602083039250612634565b6001836020036101000a038019825116818451168082178552505050505050905001915050908152602001604051809103902060050160006101000a81548160ff02191690831515021790555050565b600160009054906101000a900473ffffffffffffffffffffffffffffffffffffffff1673ffffffffffffffffffffffffffffffffffffffff163373ffffffffffffffffffffffffffffffffffffffff161461270157600080fd5b6127096140b3565b85816000018190525084816020019073ffffffffffffffffffffffffffffffffffffffff16908173ffffffffffffffffffffffffffffffffffffffff1681525050838160400181905250828160600181905250600081608001901515908115158152505060018160c0019015159081151581525050818160a0018190525080600b60008773ffffffffffffffffffffffffffffffffffffffff1673ffffffffffffffffffffffffffffffffffffffff16815260200190815260200160002060008201518160000190805190602001906127e3929190613f15565b5060208201518160010160006101000a81548173ffffffffffffffffffffffffffffffffffffffff021916908373ffffffffffffffffffffffffffffffffffffffff1602179055506040820151816002019080519060200190612847929190613f15565b506060820151816003019080519060200190612864929190613f15565b5060808201518160040160006101000a81548160ff02191690831515021790555060a08201518160050190805190602001906128a1929190613f15565b5060c08201518160060160006101000a81548160ff021916908315150217905550905050600c8590806001815401808255809150509060018203906000526020600020016000909192909190916101000a81548173ffffffffffffffffffffffffffffffffffffffff021916908373ffffffffffffffffffffffffffffffffffffffff16021790555050505050505050565b600073ffffffffffffffffffffffffffffffffffffffff16600d60003373ffffffffffffffffffffffffffffffffffffffff1673ffffffffffffffffffffffffffffffffffffffff16815260200190815260200160002060000160009054906101000a900473ffffffffffffffffffffffffffffffffffffffff1673ffffffffffffffffffffffffffffffffffffffff1614156129cf57600080fd5b6001600d60003373ffffffffffffffffffffffffffffffffffffffff1673ffffffffffffffffffffffffffffffffffffffff16815260200190815260200160002060030160006101000a81548160ff021916908315150217905550565b600160009054906101000a900473ffffffffffffffffffffffffffffffffffffffff1673ffffffffffffffffffffffffffffffffffffffff163373ffffffffffffffffffffffffffffffffffffffff1614612a8657600080fd5b8260069080519060200190612a9c929190613f95565b508160029080519060200190612ab3929190613f95565b508060039080519060200190612aca929190613f95565b50505050565b6007836040518082805190602001908083835b60208310612b065780518252602082019150602081019050602083039250612ae3565b6001836020036101000a038019825116818451168082178552505050505050905001915050908152602001604051809103902060050160009054906101000a900460ff16612b5357600080fd5b816007846040518082805190602001908083835b60208310612b8a5780518252602082019150602081019050602083039250612b67565b6001836020036101000a038019825116818451168082178552505050505050905001915050908152602001604051809103902060010181905550600482908060018154018082558091505090600182039060005260206000200160009091929091909150555060016005540160058190555060016007846040518082805190602001908083835b60208310612c345780518252602082019150602081019050602083039250612c11565b6001836020036101000a038019825116818451168082178552505050505050905001915050908152602001604051809103902060030160006101000a81548160ff021916908315150217905550336007846040518082805190602001908083835b60208310612cb85780518252602082019150602081019050602083039250612c95565b6001836020036101000a038019825116818451168082178552505050505050905001915050908152602001604051809103902060030160016101000a81548173ffffffffffffffffffffffffffffffffffffffff021916908373ffffffffffffffffffffffffffffffffffffffff160217905550806007846040518082805190602001908083835b60208310612d635780518252602082019150602081019050602083039250612d40565b6001836020036101000a03801982511681845116808217855250505050505090500191505090815260200160405180910390206004019080519060200190612dac929190613f95565b50505050565b6060600080600080612e72600a8781548110612dca57fe5b906000526020600020018054600181600116156101000203166002900480601f016020809104026020016040519081016040528092919081815260200182805460018160011615610100020316600290048015612e685780601f10612e3d57610100808354040283529160200191612e68565b820191906000526020600020905b815481529060010190602001808311612e4b57829003601f168201915b5050505050613bbb565b9450945094509450945091939590929450565b606060006060600080606060006007886040518082805190602001908083835b60208310612ec85780518252602082019150602081019050602083039250612ea5565b6001836020036101000a03801982511681845116808217855250505050505090500191505090815260200160405180910390206000016007896040518082805190602001908083835b60208310612f345780518252602082019150602081019050602083039250612f11565b6001836020036101000a03801982511681845116808217855250505050505090500191505090815260200160405180910390206001015460078a6040518082805190602001908083835b60208310612fa15780518252602082019150602081019050602083039250612f7e565b6001836020036101000a038019825116818451168082178552505050505050905001915050908152602001604051809103902060020160078b6040518082805190602001908083835b6020831061300d5780518252602082019150602081019050602083039250612fea565b6001836020036101000a038019825116818451168082178552505050505050905001915050908152602001604051809103902060030160009054906101000a900460ff1660078c6040518082805190602001908083835b602083106130875780518252602082019150602081019050602083039250613064565b6001836020036101000a038019825116818451168082178552505050505050905001915050908152602001604051809103902060030160019054906101000a900473ffffffffffffffffffffffffffffffffffffffff1660078d6040518082805190602001908083835b6020831061311457805182526020820191506020810190506020830392506130f1565b6001836020036101000a038019825116818451168082178552505050505050905001915050908152602001604051809103902060040160078e6040518082805190602001908083835b60208310613180578051825260208201915060208101905060208303925061315d565b6001836020036101000a038019825116818451168082178552505050505050905001915050908152602001604051809103902060050160009054906101000a900460ff16868054600181600116156101000203166002900480601f0160208091040260200160405190810160405280929190818152602001828054600181600116156101000203166002900480156132595780601f1061322e57610100808354040283529160200191613259565b820191906000526020600020905b81548152906001019060200180831161323c57829003601f168201915b50505050509650848054600181600116156101000203166002900480601f0160208091040260200160405190810160405280929190818152602001828054600181600116156101000203166002900480156132f55780601f106132ca576101008083540402835291602001916132f5565b820191906000526020600020905b8154815290600101906020018083116132d857829003601f168201915b50505050509450818054600181600116156101000203166002900480601f0160208091040260200160405190810160405280929190818152602001828054600181600116156101000203166002900480156133915780601f1061336657610100808354040283529160200191613391565b820191906000526020600020905b81548152906001019060200180831161337457829003601f168201915b505050505091509650965096509650965096509650919395979092949650565b600060608060006060600d60008773ffffffffffffffffffffffffffffffffffffffff1673ffffffffffffffffffffffffffffffffffffffff16815260200190815260200160002060000160009054906101000a900473ffffffffffffffffffffffffffffffffffffffff16600d60008873ffffffffffffffffffffffffffffffffffffffff1673ffffffffffffffffffffffffffffffffffffffff168152602001908152602001600020600101600d60008973ffffffffffffffffffffffffffffffffffffffff1673ffffffffffffffffffffffffffffffffffffffff168152602001908152602001600020600201600d60008a73ffffffffffffffffffffffffffffffffffffffff1673ffffffffffffffffffffffffffffffffffffffff16815260200190815260200160002060030160009054906101000a900460ff16600d60008b73ffffffffffffffffffffffffffffffffffffffff1673ffffffffffffffffffffffffffffffffffffffff168152602001908152602001600020600401838054600181600116156101000203166002900480601f0160208091040260200160405190810160405280929190818152602001828054600181600116156101000203166002900480156135c85780601f1061359d576101008083540402835291602001916135c8565b820191906000526020600020905b8154815290600101906020018083116135ab57829003601f168201915b50505050509350828054600181600116156101000203166002900480601f0160208091040260200160405190810160405280929190818152602001828054600181600116156101000203166002900480156136645780601f1061363957610100808354040283529160200191613664565b820191906000526020600020905b81548152906001019060200180831161364757829003601f168201915b50505050509250808054600181600116156101000203166002900480601f0160208091040260200160405190810160405280929190818152602001828054600181600116156101000203166002900480156137005780601f106136d557610100808354040283529160200191613700565b820191906000526020600020905b8154815290600101906020018083116136e357829003601f168201915b505050505090509450945094509450945091939590929450565b60606000606080600060606000600b60008973ffffffffffffffffffffffffffffffffffffffff1673ffffffffffffffffffffffffffffffffffffffff168152602001908152602001600020600001600b60008a73ffffffffffffffffffffffffffffffffffffffff1673ffffffffffffffffffffffffffffffffffffffff16815260200190815260200160002060010160009054906101000a900473ffffffffffffffffffffffffffffffffffffffff16600b60008b73ffffffffffffffffffffffffffffffffffffffff1673ffffffffffffffffffffffffffffffffffffffff168152602001908152602001600020600201600b60008c73ffffffffffffffffffffffffffffffffffffffff1673ffffffffffffffffffffffffffffffffffffffff168152602001908152602001600020600301600b60008d73ffffffffffffffffffffffffffffffffffffffff1673ffffffffffffffffffffffffffffffffffffffff16815260200190815260200160002060040160009054906101000a900460ff16600b60008e73ffffffffffffffffffffffffffffffffffffffff1673ffffffffffffffffffffffffffffffffffffffff168152602001908152602001600020600501600b60008f73ffffffffffffffffffffffffffffffffffffffff1673ffffffffffffffffffffffffffffffffffffffff16815260200190815260200160002060060160009054906101000a900460ff16868054600181600116156101000203166002900480601f0160208091040260200160405190810160405280929190818152602001828054600181600116156101000203166002900480156139c75780601f1061399c576101008083540402835291602001916139c7565b820191906000526020600020905b8154815290600101906020018083116139aa57829003601f168201915b50505050509650848054600181600116156101000203166002900480601f016020809104026020016040519081016040528092919081815260200182805460018160011615610100020316600290048015613a635780601f10613a3857610100808354040283529160200191613a63565b820191906000526020600020905b815481529060010190602001808311613a4657829003601f168201915b50505050509450838054600181600116156101000203166002900480601f016020809104026020016040519081016040528092919081815260200182805460018160011615610100020316600290048015613aff5780601f10613ad457610100808354040283529160200191613aff565b820191906000526020600020905b815481529060010190602001808311613ae257829003601f168201915b50505050509350818054600181600116156101000203166002900480601f016020809104026020016040519081016040528092919081815260200182805460018160011615610100020316600290048015613b9b5780601f10613b7057610100808354040283529160200191613b9b565b820191906000526020600020905b815481529060010190602001808311613b7e57829003601f168201915b505050505091509650965096509650965096509650919395979092949650565b60606000806000806009866040518082805190602001908083835b60208310613bf95780518252602082019150602081019050602083039250613bd6565b6001836020036101000a03801982511681845116808217855250505050505090500191505090815260200160405180910390206000016009876040518082805190602001908083835b60208310613c655780518252602082019150602081019050602083039250613c42565b6001836020036101000a038019825116818451168082178552505050505050905001915050908152602001604051809103902060010160009054906101000a900473ffffffffffffffffffffffffffffffffffffffff166009886040518082805190602001908083835b60208310613cf25780518252602082019150602081019050602083039250613ccf565b6001836020036101000a0380198251168184511680821785525050505050509050019150509081526020016040518091039020600201546009896040518082805190602001908083835b60208310613d5f5780518252602082019150602081019050602083039250613d3c565b6001836020036101000a038019825116818451168082178552505050505050905001915050908152602001604051809103902060030160009054906101000a900460ff1660098a6040518082805190602001908083835b60208310613dd95780518252602082019150602081019050602083039250613db6565b6001836020036101000a038019825116818451168082178552505050505050905001915050908152602001604051809103902060030160019054906101000a900460ff16848054600181600116156101000203166002900480601f016020809104026020016040519081016040528092919081815260200182805460018160011615610100020316600290048015613eb25780601f10613e8757610100808354040283529160200191613eb2565b820191906000526020600020905b815481529060010190602001808311613e9557829003601f168201915b505050505094509450945094509450945091939590929450565b6040518060a0016040528060608152602001600073ffffffffffffffffffffffffffffffffffffffff168152602001600081526020016000151581526020016000151581525090565b828054600181600116156101000203166002900490600052602060002090601f016020900481019282601f10613f5657805160ff1916838001178555613f84565b82800160010185558215613f84579182015b82811115613f83578251825591602001919060010190613f68565b5b509050613f91919061410a565b5090565b828054600181600116156101000203166002900490600052602060002090601f016020900481019282601f10613fd657805160ff1916838001178555614004565b82800160010185558215614004579182015b82811115614003578251825591602001919060010190613fe8565b5b509050614011919061410a565b5090565b6040518060a00160405280600073ffffffffffffffffffffffffffffffffffffffff1681526020016060815260200160608152602001600015158152602001606081525090565b6040518060e00160405280606081526020016000815260200160608152602001600015158152602001600073ffffffffffffffffffffffffffffffffffffffff168152602001606081526020016000151581525090565b6040518060e0016040528060608152602001600073ffffffffffffffffffffffffffffffffffffffff1681526020016060815260200160608152602001600015158152602001606081526020016000151581525090565b61412c91905b80821115614128576000816000905550600101614110565b5090565b9056fea265627a7a72315820e491b775de78aeb3378cede0bd005775a519534c01b2e5ebaeadd468dde2f28c64736f6c63430005100032",
  "source": "pragma solidity >=0.5.0 <0.9.0;\r\n\r\ncontract Employee {\r\n  address admin;\r\n  address employee_address;\r\n  string description;\r\n  string location;\r\n  uint256[] public overallEndorsement;\r\n  uint256 public endorsecount;\r\n  string name;\r\n\r\n  constructor(\r\n    address _admin,\r\n    address _employee_address,\r\n    string memory _name,\r\n    string memory _description,\r\n    string memory _location\r\n  ) public {\r\n    admin = _admin;\r\n    name = _name;\r\n    employee_address = _employee_address;\r\n    description = _description;\r\n    location = _location;\r\n    endorsecount = 0;\r\n  }\r\n\r\n  modifier OnlyEmployee() {\r\n    require(msg.sender == employee_address);\r\n    _;\r\n  }\r\n\r\n  function getEmployeeInfo()\r\n    public\r\n    view\r\n    returns (\r\n      address,\r\n      string memory,\r\n      string memory,\r\n      string memory,\r\n      uint256,\r\n      uint256\r\n    )\r\n  {\r\n    return (employee_address, name, description, location, 0, endorsecount);\r\n  }\r\n\r\n  function editInfo(\r\n    string memory _name,\r\n    string memory _descrip,\r\n    string memory _location\r\n  ) public OnlyEmployee {\r\n    name = _name;\r\n    description = _descrip;\r\n    location = _location;\r\n  }\r\n\r\n  /*********************************************************SKILLS SECTION**********************************************************/\r\n\r\n  struct skillInfo {\r\n    string name;\r\n    uint256 overall_percentage;\r\n    string experience;\r\n    bool endorsed;\r\n    address endorser_address;\r\n    string review;\r\n    bool visible;\r\n  }\r\n\r\n  mapping(string => skillInfo) skillmap;\r\n  string[] skills;\r\n\r\n  function addSkill(string memory _name, string memory _experience)\r\n    public\r\n    OnlyEmployee\r\n  {\r\n    skillInfo memory employeeSkillSet;\r\n    employeeSkillSet.name = _name;\r\n    employeeSkillSet.experience = _experience;\r\n    employeeSkillSet.overall_percentage = 0;\r\n    employeeSkillSet.endorsed = false;\r\n    employeeSkillSet.visible = true;\r\n    skillmap[_name] = employeeSkillSet;\r\n    skills.push(_name);\r\n  }\r\n\r\n  function endorseSkill(\r\n    string memory _name,\r\n    uint256 _overall_percentage,\r\n    string memory _review\r\n  ) public {\r\n    require(skillmap[_name].visible);\r\n    skillmap[_name].overall_percentage = _overall_percentage;\r\n    overallEndorsement.push(_overall_percentage);\r\n    endorsecount = endorsecount + 1;\r\n    skillmap[_name].endorsed = true;\r\n    skillmap[_name].endorser_address = msg.sender;\r\n    skillmap[_name].review = _review;\r\n  }\r\n\r\n  function getSkillByName(string memory _name)\r\n    private\r\n    view\r\n    returns (\r\n      string memory,\r\n      uint256,\r\n      string memory,\r\n      bool,\r\n      address,\r\n      string memory,\r\n      bool\r\n    )\r\n  {\r\n    return (\r\n      skillmap[_name].name,\r\n      skillmap[_name].overall_percentage,\r\n      skillmap[_name].experience,\r\n      skillmap[_name].endorsed,\r\n      skillmap[_name].endorser_address,\r\n      skillmap[_name].review,\r\n      skillmap[_name].visible\r\n    );\r\n  }\r\n\r\n  function getSkillCount() public view returns (uint256) {\r\n    return skills.length;\r\n  }\r\n\r\n  function getSkillByIndex(uint256 _index)\r\n    public\r\n    view\r\n    returns (\r\n      string memory,\r\n      uint256,\r\n      string memory,\r\n      bool,\r\n      address,\r\n      string memory,\r\n      bool\r\n    )\r\n  {\r\n    return getSkillByName(skills[_index]);\r\n  }\r\n\r\n  function deleteSkill(string memory _name) public OnlyEmployee {\r\n    skillmap[_name].visible = false;\r\n  }\r\n\r\n  /*********************************************************CERTIFICATION SECTION**********************************************************/\r\n\r\n  struct certificationInfo {\r\n    string name;\r\n    address organization;\r\n    uint256 score;\r\n    bool endorsed;\r\n    bool visible;\r\n  }\r\n\r\n  mapping(string => certificationInfo) certificationmap;\r\n  string[] certifications;\r\n\r\n  function addCertification(\r\n    string memory _name,\r\n    address _organization,\r\n    uint256 _score\r\n  ) public OnlyEmployee {\r\n    certificationInfo memory newcertificationInfo;\r\n    newcertificationInfo.name = _name;\r\n    newcertificationInfo.organization = _organization;\r\n    newcertificationInfo.score = _score;\r\n    newcertificationInfo.endorsed = false;\r\n    newcertificationInfo.visible = true;\r\n    certificationmap[_name] = newcertificationInfo;\r\n    certifications.push(_name);\r\n  }\r\n\r\n  function endorseCertification(string memory _name) public {\r\n    require(msg.sender == certificationmap[_name].organization);\r\n    certificationmap[_name].endorsed = true;\r\n  }\r\n\r\n  function getCertificationByName(string memory _name)\r\n    private\r\n    view\r\n    returns (\r\n      string memory,\r\n      address,\r\n      uint256,\r\n      bool,\r\n      bool\r\n    )\r\n  {\r\n    return (\r\n      certificationmap[_name].name,\r\n      certificationmap[_name].organization,\r\n      certificationmap[_name].score,\r\n      certificationmap[_name].endorsed,\r\n      certificationmap[_name].visible\r\n    );\r\n  }\r\n\r\n  function getCertificationCount() public view returns (uint256) {\r\n    return certifications.length;\r\n  }\r\n\r\n  function getCertificationByIndex(uint256 _index)\r\n    public\r\n    view\r\n    returns (\r\n      string memory,\r\n      address,\r\n      uint256,\r\n      bool,\r\n      bool\r\n    )\r\n  {\r\n    return getCertificationByName(certifications[_index]);\r\n  }\r\n\r\n  function deleteCertification(string memory _name) public OnlyEmployee {\r\n    certificationmap[_name].visible = false;\r\n  }\r\n\r\n  /********************************************************************Work Experience Section********************************************************************/\r\n\r\n  struct workexpInfo {\r\n    string role;\r\n    address organization;\r\n    string startdate;\r\n    string enddate;\r\n    bool endorsed;\r\n    string description;\r\n    bool visible;\r\n  }\r\n\r\n  mapping(address => workexpInfo) workexpmap;\r\n  address[] workexps;\r\n\r\n  function addWorkExp(\r\n    string memory _role,\r\n    address _organization,\r\n    string memory _startdate,\r\n    string memory _enddate,\r\n    string memory _description\r\n  ) public OnlyEmployee {\r\n    workexpInfo memory newworkexp;\r\n    newworkexp.role = _role;\r\n    newworkexp.organization = _organization;\r\n    newworkexp.startdate = _startdate;\r\n    newworkexp.enddate = _enddate;\r\n    newworkexp.endorsed = false;\r\n    newworkexp.visible = true;\r\n    newworkexp.description = _description;\r\n    workexpmap[_organization] = newworkexp;\r\n    workexps.push(_organization);\r\n  }\r\n\r\n  function endorseWorkExp() public {\r\n    require(workexpmap[msg.sender].organization != address(0x0));\r\n    workexpmap[msg.sender].endorsed = true;\r\n  }\r\n\r\n  function getWorkExpByAddress(address _organization)\r\n    private\r\n    view\r\n    returns (\r\n      string memory,\r\n      address,\r\n      string memory,\r\n      string memory,\r\n      bool,\r\n      string memory,\r\n      bool\r\n    )\r\n  {\r\n    return (\r\n      workexpmap[_organization].role,\r\n      workexpmap[_organization].organization,\r\n      workexpmap[_organization].startdate,\r\n      workexpmap[_organization].enddate,\r\n      workexpmap[_organization].endorsed,\r\n      workexpmap[_organization].description,\r\n      workexpmap[_organization].visible\r\n    );\r\n  }\r\n\r\n  function getWorkExpCount() public view returns (uint256) {\r\n    return workexps.length;\r\n  }\r\n\r\n  function getWorkExpByIndex(uint256 _index)\r\n    public\r\n    view\r\n    returns (\r\n      string memory,\r\n      address,\r\n      string memory,\r\n      string memory,\r\n      bool,\r\n      string memory,\r\n      bool\r\n    )\r\n  {\r\n    return getWorkExpByAddress(workexps[_index]);\r\n  }\r\n\r\n  function deleteWorkExp(address org) public OnlyEmployee {\r\n    workexpmap[org].visible = false;\r\n  }\r\n\r\n  /********************************************************************Education Section********************************************************************/\r\n\r\n  struct educationInfo {\r\n    address institute;\r\n    string startdate;\r\n    string enddate;\r\n    bool endorsed;\r\n    string description;\r\n  }\r\n\r\n  mapping(address => educationInfo) educationmap;\r\n  address[] educations;\r\n\r\n  function addEducation(\r\n    address _institute,\r\n    string memory _startdate,\r\n    string memory _enddate,\r\n    string memory _description\r\n  ) public OnlyEmployee {\r\n    educationInfo memory newEducation;\r\n    newEducation.institute = _institute;\r\n    newEducation.startdate = _startdate;\r\n    newEducation.enddate = _enddate;\r\n    newEducation.endorsed = false;\r\n    newEducation.description = _description;\r\n    educationmap[_institute] = newEducation;\r\n    educations.push(_institute);\r\n  }\r\n\r\n  function endorseEducation() public {\r\n    require(educationmap[msg.sender].institute != address(0x0));\r\n    educationmap[msg.sender].endorsed = true;\r\n  }\r\n\r\n  function getEducationByAddress(address _institute)\r\n    private\r\n    view\r\n    returns (\r\n      address,\r\n      string memory,\r\n      string memory,\r\n      bool,\r\n      string memory\r\n    )\r\n  {\r\n    return (\r\n      educationmap[_institute].institute,\r\n      educationmap[_institute].startdate,\r\n      educationmap[_institute].enddate,\r\n      educationmap[_institute].endorsed,\r\n      educationmap[_institute].description\r\n    );\r\n  }\r\n\r\n  function getEducationCount() public view returns (uint256) {\r\n    return educations.length;\r\n  }\r\n\r\n  function getEducationByIndex(uint256 _index)\r\n    public\r\n    view\r\n    returns (\r\n      address,\r\n      string memory,\r\n      string memory,\r\n      bool,\r\n      string memory\r\n    )\r\n  {\r\n    return getEducationByAddress(educations[_index]);\r\n  }\r\n}\r\n",
  "sourcePath": "C:\\Users\\Asus\\Desktop\\skillset-verified\\src\\contracts\\Employee.sol",
  "compiler": {
    "name": "solc",
    "version": "0.5.16+commit.9c3226ce.Emscripten.clang"
  },
  "schemaVersion": "3.2.3",
  "updatedAt": "2021-09-29T19:40:31.144Z",
  "devdoc": {
    "methods": {}
  },
  "userdoc": {
    "methods": {}
  }
}