{
  "contractName": "Employee",
  "abi": [
    {
      "inputs": [
        {
          "internalType": "address",
          "name": "_admin",
          "type": "address"
        },
        {
          "internalType": "address",
          "name": "_employee_address",
          "type": "address"
        },
        {
          "internalType": "string",
          "name": "_name",
          "type": "string"
        },
        {
          "internalType": "string",
          "name": "_description",
          "type": "string"
        },
        {
          "internalType": "string",
          "name": "_location",
          "type": "string"
        }
      ],
      "payable": false,
      "stateMutability": "nonpayable",
      "type": "constructor"
    },
    {
      "anonymous": false,
      "inputs": [
        {
          "indexed": true,
          "internalType": "address",
          "name": "employee",
          "type": "address"
        },
        {
          "indexed": true,
          "internalType": "address",
          "name": "institute",
          "type": "address"
        }
      ],
      "name": "EducationAdded",
      "type": "event"
    },
    {
      "anonymous": false,
      "inputs": [
        {
          "indexed": true,
          "internalType": "address",
          "name": "employee",
          "type": "address"
        },
        {
          "indexed": true,
          "internalType": "address",
          "name": "organization",
          "type": "address"
        }
      ],
      "name": "certificationAdded",
      "type": "event"
    },
    {
      "anonymous": false,
      "inputs": [
        {
          "indexed": true,
          "internalType": "address",
          "name": "employee",
          "type": "address"
        },
        {
          "indexed": true,
          "internalType": "address",
          "name": "organization",
          "type": "address"
        }
      ],
      "name": "certificationVerified",
      "type": "event"
    },
    {
      "anonymous": false,
      "inputs": [
        {
          "indexed": true,
          "internalType": "address",
          "name": "employee",
          "type": "address"
        },
        {
          "indexed": true,
          "internalType": "address",
          "name": "institute",
          "type": "address"
        }
      ],
      "name": "educationEndorsed",
      "type": "event"
    },
    {
      "anonymous": false,
      "inputs": [
        {
          "indexed": true,
          "internalType": "address",
          "name": "employee",
          "type": "address"
        },
        {
          "indexed": false,
          "internalType": "string",
          "name": "skillname",
          "type": "string"
        }
      ],
      "name": "skillAdded",
      "type": "event"
    },
    {
      "anonymous": false,
      "inputs": [
        {
          "indexed": true,
          "internalType": "address",
          "name": "employee",
          "type": "address"
        },
        {
          "indexed": true,
          "internalType": "address",
          "name": "endorser",
          "type": "address"
        }
      ],
      "name": "skillVerified",
      "type": "event"
    },
    {
      "anonymous": false,
      "inputs": [
        {
          "indexed": true,
          "internalType": "address",
          "name": "employee",
          "type": "address"
        },
        {
          "indexed": true,
          "internalType": "address",
          "name": "organization",
          "type": "address"
        }
      ],
      "name": "workexpAdded",
      "type": "event"
    },
    {
      "anonymous": false,
      "inputs": [
        {
          "indexed": true,
          "internalType": "address",
          "name": "employee",
          "type": "address"
        },
        {
          "indexed": true,
          "internalType": "address",
          "name": "organization",
          "type": "address"
        }
      ],
      "name": "workexpEndorsed",
      "type": "event"
    },
    {
      "constant": true,
      "inputs": [],
      "name": "getEmployeeInfo",
      "outputs": [
        {
          "internalType": "address",
          "name": "",
          "type": "address"
        },
        {
          "internalType": "string",
          "name": "",
          "type": "string"
        },
        {
          "internalType": "string",
          "name": "",
          "type": "string"
        },
        {
          "internalType": "string",
          "name": "",
          "type": "string"
        },
        {
          "internalType": "uint256",
          "name": "",
          "type": "uint256"
        },
        {
          "internalType": "uint256",
          "name": "",
          "type": "uint256"
        }
      ],
      "payable": false,
      "stateMutability": "view",
      "type": "function"
    },
    {
      "constant": false,
      "inputs": [
        {
          "internalType": "string",
          "name": "_name",
          "type": "string"
        },
        {
          "internalType": "string",
          "name": "_experience",
          "type": "string"
        }
      ],
      "name": "addSkill",
      "outputs": [],
      "payable": false,
      "stateMutability": "nonpayable",
      "type": "function"
    },
    {
      "constant": false,
      "inputs": [
        {
          "internalType": "string",
          "name": "_name",
          "type": "string"
        },
        {
          "internalType": "uint256",
          "name": "_overall_percentage",
          "type": "uint256"
        }
      ],
      "name": "endorseSkill",
      "outputs": [],
      "payable": false,
      "stateMutability": "nonpayable",
      "type": "function"
    },
    {
      "constant": true,
      "inputs": [],
      "name": "getSkillCount",
      "outputs": [
        {
          "internalType": "uint256",
          "name": "",
          "type": "uint256"
        }
      ],
      "payable": false,
      "stateMutability": "view",
      "type": "function"
    },
    {
      "constant": true,
      "inputs": [
        {
          "internalType": "uint256",
          "name": "_index",
          "type": "uint256"
        }
      ],
      "name": "getSkillByIndex",
      "outputs": [
        {
          "internalType": "string",
          "name": "",
          "type": "string"
        },
        {
          "internalType": "uint256",
          "name": "",
          "type": "uint256"
        },
        {
          "internalType": "string",
          "name": "",
          "type": "string"
        },
        {
          "internalType": "bool",
          "name": "",
          "type": "bool"
        },
        {
          "internalType": "address",
          "name": "",
          "type": "address"
        },
        {
          "internalType": "string",
          "name": "",
          "type": "string"
        }
      ],
      "payable": false,
      "stateMutability": "view",
      "type": "function"
    },
    {
      "constant": false,
      "inputs": [
        {
          "internalType": "string",
          "name": "_name",
          "type": "string"
        },
        {
          "internalType": "address",
          "name": "_organization",
          "type": "address"
        },
        {
          "internalType": "uint256",
          "name": "_score",
          "type": "uint256"
        }
      ],
      "name": "addCertification",
      "outputs": [],
      "payable": false,
      "stateMutability": "nonpayable",
      "type": "function"
    },
    {
      "constant": false,
      "inputs": [
        {
          "internalType": "string",
          "name": "_name",
          "type": "string"
        }
      ],
      "name": "endorseCertification",
      "outputs": [],
      "payable": false,
      "stateMutability": "nonpayable",
      "type": "function"
    },
    {
      "constant": true,
      "inputs": [],
      "name": "getCertificationCount",
      "outputs": [
        {
          "internalType": "uint256",
          "name": "",
          "type": "uint256"
        }
      ],
      "payable": false,
      "stateMutability": "view",
      "type": "function"
    },
    {
      "constant": true,
      "inputs": [
        {
          "internalType": "uint256",
          "name": "_index",
          "type": "uint256"
        }
      ],
      "name": "getCertificationByIndex",
      "outputs": [
        {
          "internalType": "string",
          "name": "",
          "type": "string"
        },
        {
          "internalType": "address",
          "name": "",
          "type": "address"
        },
        {
          "internalType": "uint256",
          "name": "",
          "type": "uint256"
        },
        {
          "internalType": "bool",
          "name": "",
          "type": "bool"
        }
      ],
      "payable": false,
      "stateMutability": "view",
      "type": "function"
    },
    {
      "constant": false,
      "inputs": [
        {
          "internalType": "string",
          "name": "_role",
          "type": "string"
        },
        {
          "internalType": "address",
          "name": "_organization",
          "type": "address"
        },
        {
          "internalType": "string",
          "name": "_startdate",
          "type": "string"
        },
        {
          "internalType": "string",
          "name": "_enddate",
          "type": "string"
        },
        {
          "internalType": "string",
          "name": "_description",
          "type": "string"
        }
      ],
      "name": "addWorkExp",
      "outputs": [],
      "payable": false,
      "stateMutability": "nonpayable",
      "type": "function"
    },
    {
      "constant": false,
      "inputs": [],
      "name": "endorseWorkExp",
      "outputs": [],
      "payable": false,
      "stateMutability": "nonpayable",
      "type": "function"
    },
    {
      "constant": true,
      "inputs": [],
      "name": "getWorkExpCount",
      "outputs": [
        {
          "internalType": "uint256",
          "name": "",
          "type": "uint256"
        }
      ],
      "payable": false,
      "stateMutability": "view",
      "type": "function"
    },
    {
      "constant": true,
      "inputs": [
        {
          "internalType": "uint256",
          "name": "_index",
          "type": "uint256"
        }
      ],
      "name": "getWorkExpByIndex",
      "outputs": [
        {
          "internalType": "string",
          "name": "",
          "type": "string"
        },
        {
          "internalType": "address",
          "name": "",
          "type": "address"
        },
        {
          "internalType": "string",
          "name": "",
          "type": "string"
        },
        {
          "internalType": "string",
          "name": "",
          "type": "string"
        },
        {
          "internalType": "bool",
          "name": "",
          "type": "bool"
        },
        {
          "internalType": "string",
          "name": "",
          "type": "string"
        }
      ],
      "payable": false,
      "stateMutability": "view",
      "type": "function"
    },
    {
      "constant": false,
      "inputs": [
        {
          "internalType": "address",
          "name": "_institute",
          "type": "address"
        },
        {
          "internalType": "string",
          "name": "_startdate",
          "type": "string"
        },
        {
          "internalType": "string",
          "name": "_enddate",
          "type": "string"
        },
        {
          "internalType": "string",
          "name": "_description",
          "type": "string"
        }
      ],
      "name": "addEducation",
      "outputs": [],
      "payable": false,
      "stateMutability": "nonpayable",
      "type": "function"
    },
    {
      "constant": false,
      "inputs": [],
      "name": "endorseEducation",
      "outputs": [],
      "payable": false,
      "stateMutability": "nonpayable",
      "type": "function"
    },
    {
      "constant": true,
      "inputs": [],
      "name": "getEducationCount",
      "outputs": [
        {
          "internalType": "uint256",
          "name": "",
          "type": "uint256"
        }
      ],
      "payable": false,
      "stateMutability": "view",
      "type": "function"
    },
    {
      "constant": true,
      "inputs": [
        {
          "internalType": "uint256",
          "name": "_index",
          "type": "uint256"
        }
      ],
      "name": "getEducationByIndex",
      "outputs": [
        {
          "internalType": "address",
          "name": "",
          "type": "address"
        },
        {
          "internalType": "string",
          "name": "",
          "type": "string"
        },
        {
          "internalType": "string",
          "name": "",
          "type": "string"
        },
        {
          "internalType": "bool",
          "name": "",
          "type": "bool"
        },
        {
          "internalType": "string",
          "name": "",
          "type": "string"
        }
      ],
      "payable": false,
      "stateMutability": "view",
      "type": "function"
    }
  ],
  "bytecode": "0x60806040523480156200001157600080fd5b506040516200409338038062004093833981810160405260a08110156200003757600080fd5b810190808051906020019092919080519060200190929190805160405193929190846401000000008211156200006c57600080fd5b838201915060208201858111156200008357600080fd5b8251866001820283011164010000000082111715620000a157600080fd5b8083526020830192505050908051906020019080838360005b83811015620000d7578082015181840152602081019050620000ba565b50505050905090810190601f168015620001055780820380516001836020036101000a031916815260200191505b50604052602001805160405193929190846401000000008211156200012957600080fd5b838201915060208201858111156200014057600080fd5b82518660018202830111640100000000821117156200015e57600080fd5b8083526020830192505050908051906020019080838360005b838110156200019457808201518184015260208101905062000177565b50505050905090810190601f168015620001c25780820380516001836020036101000a031916815260200191505b5060405260200180516040519392919084640100000000821115620001e657600080fd5b83820191506020820185811115620001fd57600080fd5b82518660018202830111640100000000821117156200021b57600080fd5b8083526020830192505050908051906020019080838360005b838110156200025157808201518184015260208101905062000234565b50505050905090810190601f1680156200027f5780820380516001836020036101000a031916815260200191505b50604052505050846000806101000a81548173ffffffffffffffffffffffffffffffffffffffff021916908373ffffffffffffffffffffffffffffffffffffffff1602179055508260069080519060200190620002de9291906200035d565b5083600160006101000a81548173ffffffffffffffffffffffffffffffffffffffff021916908373ffffffffffffffffffffffffffffffffffffffff1602179055508160029080519060200190620003389291906200035d565b508060039080519060200190620003519291906200035d565b5050505050506200040c565b828054600181600116156101000203166002900490600052602060002090601f016020900481019282601f10620003a057805160ff1916838001178555620003d1565b82800160010185558215620003d1579182015b82811115620003d0578251825591602001919060010190620003b3565b5b509050620003e09190620003e4565b5090565b6200040991905b8082111562000405576000816000905550600101620003eb565b5090565b90565b613c77806200041c6000396000f3fe608060405234801561001057600080fd5b506004361061010b5760003560e01c8063a3e3bf7d116100a2578063d57e0ad611610071578063d57e0ad614610b1d578063d862ae8714610d46578063f1d9efb214610e98578063f5e616a614611138578063fee7989e146111425761010b565b8063a3e3bf7d146105f8578063be91b9c114610794578063c07f7d1614610859578063cf6431c614610a625761010b565b80636212fa02116100de5780636212fa021461031a578063645f29a8146103385780637b1d2d00146104f557806394fb3da7146105da5761010b565b806305f53b2914610110578063444fc6621461012e57806344afd134146102f257806344f034ae14610310575b600080fd5b61011861122e565b6040518082815260200191505060405180910390f35b61015a6004803603602081101561014457600080fd5b810190808035906020019092919050505061123b565b604051808060200187815260200180602001861515151581526020018573ffffffffffffffffffffffffffffffffffffffff1673ffffffffffffffffffffffffffffffffffffffff1681526020018060200184810384528a818151815260200191508051906020019080838360005b838110156101e45780820151818401526020810190506101c9565b50505050905090810190601f1680156102115780820380516001836020036101000a031916815260200191505b50848103835288818151815260200191508051906020019080838360005b8381101561024a57808201518184015260208101905061022f565b50505050905090810190601f1680156102775780820380516001836020036101000a031916815260200191505b50848103825285818151815260200191508051906020019080838360005b838110156102b0578082015181840152602081019050610295565b50505050905090810190601f1680156102dd5780820380516001836020036101000a031916815260200191505b50995050505050505050505060405180910390f35b6102fa611313565b6040518082815260200191505060405180910390f35b610318611320565b005b610322611577565b6040518082815260200191505060405180910390f35b6103646004803603602081101561034e57600080fd5b8101908080359060200190929190505050611584565b604051808673ffffffffffffffffffffffffffffffffffffffff1673ffffffffffffffffffffffffffffffffffffffff16815260200180602001806020018515151515815260200180602001848103845288818151815260200191508051906020019080838360005b838110156103e85780820151818401526020810190506103cd565b50505050905090810190601f1680156104155780820380516001836020036101000a031916815260200191505b50848103835287818151815260200191508051906020019080838360005b8381101561044e578082015181840152602081019050610433565b50505050905090810190601f16801561047b5780820380516001836020036101000a031916815260200191505b50848103825285818151815260200191508051906020019080838360005b838110156104b4578082015181840152602081019050610499565b50505050905090810190601f1680156104e15780820380516001836020036101000a031916815260200191505b509850505050505050505060405180910390f35b6105d86004803603606081101561050b57600080fd5b810190808035906020019064010000000081111561052857600080fd5b82018360208201111561053a57600080fd5b8035906020019184600183028401116401000000008311171561055c57600080fd5b91908080601f016020809104026020016040519081016040528093929190818152602001838380828437600081840152601f19601f820116905080830192505050505050509192919290803573ffffffffffffffffffffffffffffffffffffffff169060200190929190803590602001909291905050506115e0565b005b6105e2611838565b6040518082815260200191505060405180910390f35b610600611845565b604051808773ffffffffffffffffffffffffffffffffffffffff1673ffffffffffffffffffffffffffffffffffffffff168152602001806020018060200180602001868152602001858152602001848103845289818151815260200191508051906020019080838360005b8381101561068657808201518184015260208101905061066b565b50505050905090810190601f1680156106b35780820380516001836020036101000a031916815260200191505b50848103835288818151815260200191508051906020019080838360005b838110156106ec5780820151818401526020810190506106d1565b50505050905090810190601f1680156107195780820380516001836020036101000a031916815260200191505b50848103825287818151815260200191508051906020019080838360005b83811015610752578082015181840152602081019050610737565b50505050905090810190601f16801561077f5780820380516001836020036101000a031916815260200191505b50995050505050505050505060405180910390f35b610857600480360360408110156107aa57600080fd5b81019080803590602001906401000000008111156107c757600080fd5b8201836020820111156107d957600080fd5b803590602001918460018302840111640100000000831117156107fb57600080fd5b91908080601f016020809104026020016040519081016040528093929190818152602001838380828437600081840152601f19601f82011690508083019250505050505050919291929080359060200190929190505050611a66565b005b610a606004803603608081101561086f57600080fd5b81019080803573ffffffffffffffffffffffffffffffffffffffff169060200190929190803590602001906401000000008111156108ac57600080fd5b8201836020820111156108be57600080fd5b803590602001918460018302840111640100000000831117156108e057600080fd5b91908080601f016020809104026020016040519081016040528093929190818152602001838380828437600081840152601f19601f8201169050808301925050505050505091929192908035906020019064010000000081111561094357600080fd5b82018360208201111561095557600080fd5b8035906020019184600183028401116401000000008311171561097757600080fd5b91908080601f016020809104026020016040519081016040528093929190818152602001838380828437600081840152601f19601f820116905080830192505050505050509192919290803590602001906401000000008111156109da57600080fd5b8201836020820111156109ec57600080fd5b80359060200191846001830284011164010000000083111715610a0e57600080fd5b91908080601f016020809104026020016040519081016040528093929190818152602001838380828437600081840152601f19601f820116905080830192505050505050509192919290505050611cda565b005b610b1b60048036036020811015610a7857600080fd5b8101908080359060200190640100000000811115610a9557600080fd5b820183602082011115610aa757600080fd5b80359060200191846001830284011164010000000083111715610ac957600080fd5b91908080601f016020809104026020016040519081016040528093929190818152602001838380828437600081840152601f19601f820116905080830192505050505050509192919290505050611f68565b005b610b4960048036036020811015610b3357600080fd5b8101908080359060200190929190505050612212565b60405180806020018773ffffffffffffffffffffffffffffffffffffffff1673ffffffffffffffffffffffffffffffffffffffff1681526020018060200180602001861515151581526020018060200185810385528b818151815260200191508051906020019080838360005b83811015610bd1578082015181840152602081019050610bb6565b50505050905090810190601f168015610bfe5780820380516001836020036101000a031916815260200191505b50858103845289818151815260200191508051906020019080838360005b83811015610c37578082015181840152602081019050610c1c565b50505050905090810190601f168015610c645780820380516001836020036101000a031916815260200191505b50858103835288818151815260200191508051906020019080838360005b83811015610c9d578082015181840152602081019050610c82565b50505050905090810190601f168015610cca5780820380516001836020036101000a031916815260200191505b50858103825286818151815260200191508051906020019080838360005b83811015610d03578082015181840152602081019050610ce8565b50505050905090810190601f168015610d305780820380516001836020036101000a031916815260200191505b509a505050505050505050505060405180910390f35b610e9660048036036040811015610d5c57600080fd5b8101908080359060200190640100000000811115610d7957600080fd5b820183602082011115610d8b57600080fd5b80359060200191846001830284011164010000000083111715610dad57600080fd5b91908080601f016020809104026020016040519081016040528093929190818152602001838380828437600081840152601f19601f82011690508083019250505050505050919291929080359060200190640100000000811115610e1057600080fd5b820183602082011115610e2257600080fd5b80359060200191846001830284011164010000000083111715610e4457600080fd5b91908080601f016020809104026020016040519081016040528093929190818152602001838380828437600081840152601f19601f820116905080830192505050505050509192919290505050612272565b005b611136600480360360a0811015610eae57600080fd5b8101908080359060200190640100000000811115610ecb57600080fd5b820183602082011115610edd57600080fd5b80359060200191846001830284011164010000000083111715610eff57600080fd5b91908080601f016020809104026020016040519081016040528093929190818152602001838380828437600081840152601f19601f820116905080830192505050505050509192919290803573ffffffffffffffffffffffffffffffffffffffff16906020019092919080359060200190640100000000811115610f8257600080fd5b820183602082011115610f9457600080fd5b80359060200191846001830284011164010000000083111715610fb657600080fd5b91908080601f016020809104026020016040519081016040528093929190818152602001838380828437600081840152601f19601f8201169050808301925050505050505091929192908035906020019064010000000081111561101957600080fd5b82018360208201111561102b57600080fd5b8035906020019184600183028401116401000000008311171561104d57600080fd5b91908080601f016020809104026020016040519081016040528093929190818152602001838380828437600081840152601f19601f820116905080830192505050505050509192919290803590602001906401000000008111156110b057600080fd5b8201836020820111156110c257600080fd5b803590602001918460018302840111640100000000831117156110e457600080fd5b91908080601f016020809104026020016040519081016040528093929190818152602001838380828437600081840152601f19601f82011690508083019250505050505050919291929050505061252e565b005b6111406127e3565b005b61116e6004803603602081101561115857600080fd5b8101908080359060200190929190505050612a3a565b60405180806020018573ffffffffffffffffffffffffffffffffffffffff1673ffffffffffffffffffffffffffffffffffffffff16815260200184815260200183151515158152602001828103825286818151815260200191508051906020019080838360005b838110156111f05780820151818401526020810190506111d5565b50505050905090810190601f16801561121d5780820380516001836020036101000a031916815260200191505b509550505050505060405180910390f35b6000600880549050905090565b60606000606060008060606112fe6008888154811061125657fe5b906000526020600020018054600181600116156101000203166002900480601f0160208091040260200160405190810160405280929190818152602001828054600181600116156101000203166002900480156112f45780601f106112c9576101008083540402835291602001916112f4565b820191906000526020600020905b8154815290600101906020018083116112d757829003601f168201915b5050505050612b08565b95509550955095509550955091939550919395565b6000600a80549050905090565b6000809054906101000a900473ffffffffffffffffffffffffffffffffffffffff1673ffffffffffffffffffffffffffffffffffffffff166316ab8a35336040518263ffffffff1660e01b8152600401808273ffffffffffffffffffffffffffffffffffffffff1673ffffffffffffffffffffffffffffffffffffffff16815260200191505060206040518083038186803b1580156113be57600080fd5b505afa1580156113d2573d6000803e3d6000fd5b505050506040513d60208110156113e857600080fd5b810190808051906020019092919050505061140257600080fd5b600073ffffffffffffffffffffffffffffffffffffffff16600b60003373ffffffffffffffffffffffffffffffffffffffff1673ffffffffffffffffffffffffffffffffffffffff16815260200190815260200160002060010160009054906101000a900473ffffffffffffffffffffffffffffffffffffffff1673ffffffffffffffffffffffffffffffffffffffff16141561149e57600080fd5b6001600b60003373ffffffffffffffffffffffffffffffffffffffff1673ffffffffffffffffffffffffffffffffffffffff16815260200190815260200160002060040160006101000a81548160ff0219169083151502179055503373ffffffffffffffffffffffffffffffffffffffff16600160009054906101000a900473ffffffffffffffffffffffffffffffffffffffff1673ffffffffffffffffffffffffffffffffffffffff167fd3853b28b74307a236136e78e426aefcbff624b7e212b46509ae6739c86416e260405160405180910390a3565b6000600e80549050905090565b6000606080600060606115cd600e878154811061159d57fe5b9060005260206000200160009054906101000a900473ffffffffffffffffffffffffffffffffffffffff16612fb4565b9450945094509450945091939590929450565b600160009054906101000a900473ffffffffffffffffffffffffffffffffffffffff1673ffffffffffffffffffffffffffffffffffffffff163373ffffffffffffffffffffffffffffffffffffffff161461163a57600080fd5b6116426139fa565b83816000018190525082816020019073ffffffffffffffffffffffffffffffffffffffff16908173ffffffffffffffffffffffffffffffffffffffff1681525050818160400181815250506000816060019015159081151581525050806009856040518082805190602001908083835b602083106116d557805182526020820191506020810190506020830392506116b2565b6001836020036101000a03801982511681845116808217855250505050505090500191505090815260200160405180910390206000820151816000019080519060200190611724929190613a3a565b5060208201518160010160006101000a81548173ffffffffffffffffffffffffffffffffffffffff021916908373ffffffffffffffffffffffffffffffffffffffff1602179055506040820151816002015560608201518160030160006101000a81548160ff021916908315150217905550905050600a8490806001815401808255809150509060018203906000526020600020016000909192909190915090805190602001906117d6929190613aba565b50508273ffffffffffffffffffffffffffffffffffffffff163373ffffffffffffffffffffffffffffffffffffffff167f40b7a7c75aa35b2ef85b7e97cece105e620377c5665897153d41710a117257b260405160405180910390a350505050565b6000600c80549050905090565b60006060806060600080600160009054906101000a900473ffffffffffffffffffffffffffffffffffffffff16600660026003600454600554848054600181600116156101000203166002900480601f0160208091040260200160405190810160405280929190818152602001828054600181600116156101000203166002900480156119135780601f106118e857610100808354040283529160200191611913565b820191906000526020600020905b8154815290600101906020018083116118f657829003601f168201915b50505050509450838054600181600116156101000203166002900480601f0160208091040260200160405190810160405280929190818152602001828054600181600116156101000203166002900480156119af5780601f10611984576101008083540402835291602001916119af565b820191906000526020600020905b81548152906001019060200180831161199257829003601f168201915b50505050509350828054600181600116156101000203166002900480601f016020809104026020016040519081016040528092919081815260200182805460018160011615610100020316600290048015611a4b5780601f10611a2057610100808354040283529160200191611a4b565b820191906000526020600020905b815481529060010190602001808311611a2e57829003601f168201915b50505050509250955095509550955095509550909192939495565b6000809054906101000a900473ffffffffffffffffffffffffffffffffffffffff1673ffffffffffffffffffffffffffffffffffffffff166316ab8a35336040518263ffffffff1660e01b8152600401808273ffffffffffffffffffffffffffffffffffffffff1673ffffffffffffffffffffffffffffffffffffffff16815260200191505060206040518083038186803b158015611b0457600080fd5b505afa158015611b18573d6000803e3d6000fd5b505050506040513d6020811015611b2e57600080fd5b8101908080519060200190929190505050611b4857600080fd5b806007836040518082805190602001908083835b60208310611b7f5780518252602082019150602081019050602083039250611b5c565b6001836020036101000a0380198251168184511680821785525050505050509050019150509081526020016040518091039020600101819055508060046000828254019250508190555060016005540160058190555060016007836040518082805190602001908083835b60208310611c0d5780518252602082019150602081019050602083039250611bea565b6001836020036101000a038019825116818451168082178552505050505050905001915050908152602001604051809103902060030160006101000a81548160ff0219169083151502179055503373ffffffffffffffffffffffffffffffffffffffff16600160009054906101000a900473ffffffffffffffffffffffffffffffffffffffff1673ffffffffffffffffffffffffffffffffffffffff167fd962338e9a02a44a3891ecd64b928e53cd107293a89559bcc1ac0c21be8723c260405160405180910390a35050565b600160009054906101000a900473ffffffffffffffffffffffffffffffffffffffff1673ffffffffffffffffffffffffffffffffffffffff163373ffffffffffffffffffffffffffffffffffffffff1614611d3457600080fd5b611d3c613b3a565b84816000019073ffffffffffffffffffffffffffffffffffffffff16908173ffffffffffffffffffffffffffffffffffffffff1681525050838160200181905250828160400181905250600081606001901515908115158152505081816080018190525080600d60008773ffffffffffffffffffffffffffffffffffffffff1673ffffffffffffffffffffffffffffffffffffffff16815260200190815260200160002060008201518160000160006101000a81548173ffffffffffffffffffffffffffffffffffffffff021916908373ffffffffffffffffffffffffffffffffffffffff1602179055506020820151816001019080519060200190611e43929190613a3a565b506040820151816002019080519060200190611e60929190613a3a565b5060608201518160030160006101000a81548160ff0219169083151502179055506080820151816004019080519060200190611e9d929190613a3a565b50905050600e8590806001815401808255809150509060018203906000526020600020016000909192909190916101000a81548173ffffffffffffffffffffffffffffffffffffffff021916908373ffffffffffffffffffffffffffffffffffffffff160217905550508473ffffffffffffffffffffffffffffffffffffffff163373ffffffffffffffffffffffffffffffffffffffff167febf815b8f0dabf4433d35397abbc3e8df123b4de4d85eb148dc87d4072dcc28460405160405180910390a35050505050565b6000809054906101000a900473ffffffffffffffffffffffffffffffffffffffff1673ffffffffffffffffffffffffffffffffffffffff166316ab8a35336040518263ffffffff1660e01b8152600401808273ffffffffffffffffffffffffffffffffffffffff1673ffffffffffffffffffffffffffffffffffffffff16815260200191505060206040518083038186803b15801561200657600080fd5b505afa15801561201a573d6000803e3d6000fd5b505050506040513d602081101561203057600080fd5b810190808051906020019092919050505061204a57600080fd5b6009816040518082805190602001908083835b60208310612080578051825260208201915060208101905060208303925061205d565b6001836020036101000a038019825116818451168082178552505050505050905001915050908152602001604051809103902060010160009054906101000a900473ffffffffffffffffffffffffffffffffffffffff1673ffffffffffffffffffffffffffffffffffffffff163373ffffffffffffffffffffffffffffffffffffffff161461210e57600080fd5b60016009826040518082805190602001908083835b602083106121465780518252602082019150602081019050602083039250612123565b6001836020036101000a038019825116818451168082178552505050505050905001915050908152602001604051809103902060030160006101000a81548160ff0219169083151502179055503373ffffffffffffffffffffffffffffffffffffffff16600160009054906101000a900473ffffffffffffffffffffffffffffffffffffffff1673ffffffffffffffffffffffffffffffffffffffff167fe65e4646c5f6480fa093c6b0f4b02d4ebea98d8f60b9d4daf2f3023fd810627260405160405180910390a350565b606060006060806000606061225d600c888154811061222d57fe5b9060005260206000200160009054906101000a900473ffffffffffffffffffffffffffffffffffffffff1661331d565b95509550955095509550955091939550919395565b600160009054906101000a900473ffffffffffffffffffffffffffffffffffffffff1673ffffffffffffffffffffffffffffffffffffffff163373ffffffffffffffffffffffffffffffffffffffff16146122cc57600080fd5b6122d4613b81565b82816000018190525081816040018190525060008160200181815250506000816060019015159081151581525050806007846040518082805190602001908083835b602083106123395780518252602082019150602081019050602083039250612316565b6001836020036101000a03801982511681845116808217855250505050505090500191505090815260200160405180910390206000820151816000019080519060200190612388929190613a3a565b506020820151816001015560408201518160020190805190602001906123af929190613a3a565b5060608201518160030160006101000a81548160ff02191690831515021790555060808201518160030160016101000a81548173ffffffffffffffffffffffffffffffffffffffff021916908373ffffffffffffffffffffffffffffffffffffffff16021790555060a0820151816004019080519060200190612433929190613a3a565b509050506008839080600181540180825580915050906001820390600052602060002001600090919290919091509080519060200190612474929190613aba565b50503373ffffffffffffffffffffffffffffffffffffffff167f981a3bf7992e3440945215dba219edeec66e57d6763d5da6c119cae472df9830846040518080602001828103825283818151815260200191508051906020019080838360005b838110156124ef5780820151818401526020810190506124d4565b50505050905090810190601f16801561251c5780820380516001836020036101000a031916815260200191505b509250505060405180910390a2505050565b600160009054906101000a900473ffffffffffffffffffffffffffffffffffffffff1673ffffffffffffffffffffffffffffffffffffffff163373ffffffffffffffffffffffffffffffffffffffff161461258857600080fd5b612590613bcf565b85816000018190525084816020019073ffffffffffffffffffffffffffffffffffffffff16908173ffffffffffffffffffffffffffffffffffffffff16815250508381604001819052508281606001819052506000816080019015159081151581525050818160a0018190525080600b60008773ffffffffffffffffffffffffffffffffffffffff1673ffffffffffffffffffffffffffffffffffffffff1681526020019081526020016000206000820151816000019080519060200190612659929190613a3a565b5060208201518160010160006101000a81548173ffffffffffffffffffffffffffffffffffffffff021916908373ffffffffffffffffffffffffffffffffffffffff16021790555060408201518160020190805190602001906126bd929190613a3a565b5060608201518160030190805190602001906126da929190613a3a565b5060808201518160040160006101000a81548160ff02191690831515021790555060a0820151816005019080519060200190612717929190613a3a565b50905050600c8590806001815401808255809150509060018203906000526020600020016000909192909190916101000a81548173ffffffffffffffffffffffffffffffffffffffff021916908373ffffffffffffffffffffffffffffffffffffffff160217905550508473ffffffffffffffffffffffffffffffffffffffff163373ffffffffffffffffffffffffffffffffffffffff167f681eb68b60a6ff47416ab0d88be5675c91e34369f08c810a140dd20dd2afdc6160405160405180910390a3505050505050565b6000809054906101000a900473ffffffffffffffffffffffffffffffffffffffff1673ffffffffffffffffffffffffffffffffffffffff166316ab8a35336040518263ffffffff1660e01b8152600401808273ffffffffffffffffffffffffffffffffffffffff1673ffffffffffffffffffffffffffffffffffffffff16815260200191505060206040518083038186803b15801561288157600080fd5b505afa158015612895573d6000803e3d6000fd5b505050506040513d60208110156128ab57600080fd5b81019080805190602001909291905050506128c557600080fd5b600073ffffffffffffffffffffffffffffffffffffffff16600d60003373ffffffffffffffffffffffffffffffffffffffff1673ffffffffffffffffffffffffffffffffffffffff16815260200190815260200160002060000160009054906101000a900473ffffffffffffffffffffffffffffffffffffffff1673ffffffffffffffffffffffffffffffffffffffff16141561296157600080fd5b6001600d60003373ffffffffffffffffffffffffffffffffffffffff1673ffffffffffffffffffffffffffffffffffffffff16815260200190815260200160002060030160006101000a81548160ff0219169083151502179055503373ffffffffffffffffffffffffffffffffffffffff16600160009054906101000a900473ffffffffffffffffffffffffffffffffffffffff1673ffffffffffffffffffffffffffffffffffffffff167f03763cba7f8edd1642ea05d9645087d4699f4fa2317bcb91aa96aee8433a6b7c60405160405180910390a3565b60606000806000612af9600a8681548110612a5157fe5b906000526020600020018054600181600116156101000203166002900480601f016020809104026020016040519081016040528092919081815260200182805460018160011615610100020316600290048015612aef5780601f10612ac457610100808354040283529160200191612aef565b820191906000526020600020905b815481529060010190602001808311612ad257829003601f168201915b5050505050613768565b93509350935093509193509193565b60606000606060008060606007876040518082805190602001908083835b60208310612b495780518252602082019150602081019050602083039250612b26565b6001836020036101000a03801982511681845116808217855250505050505090500191505090815260200160405180910390206000016007886040518082805190602001908083835b60208310612bb55780518252602082019150602081019050602083039250612b92565b6001836020036101000a0380198251168184511680821785525050505050509050019150509081526020016040518091039020600101546007896040518082805190602001908083835b60208310612c225780518252602082019150602081019050602083039250612bff565b6001836020036101000a038019825116818451168082178552505050505050905001915050908152602001604051809103902060020160078a6040518082805190602001908083835b60208310612c8e5780518252602082019150602081019050602083039250612c6b565b6001836020036101000a038019825116818451168082178552505050505050905001915050908152602001604051809103902060030160009054906101000a900460ff1660078b6040518082805190602001908083835b60208310612d085780518252602082019150602081019050602083039250612ce5565b6001836020036101000a038019825116818451168082178552505050505050905001915050908152602001604051809103902060030160019054906101000a900473ffffffffffffffffffffffffffffffffffffffff1660078c6040518082805190602001908083835b60208310612d955780518252602082019150602081019050602083039250612d72565b6001836020036101000a0380198251168184511680821785525050505050509050019150509081526020016040518091039020600401858054600181600116156101000203166002900480601f016020809104026020016040519081016040528092919081815260200182805460018160011615610100020316600290048015612e605780601f10612e3557610100808354040283529160200191612e60565b820191906000526020600020905b815481529060010190602001808311612e4357829003601f168201915b50505050509550838054600181600116156101000203166002900480601f016020809104026020016040519081016040528092919081815260200182805460018160011615610100020316600290048015612efc5780601f10612ed157610100808354040283529160200191612efc565b820191906000526020600020905b815481529060010190602001808311612edf57829003601f168201915b50505050509350808054600181600116156101000203166002900480601f016020809104026020016040519081016040528092919081815260200182805460018160011615610100020316600290048015612f985780601f10612f6d57610100808354040283529160200191612f98565b820191906000526020600020905b815481529060010190602001808311612f7b57829003601f168201915b5050505050905095509550955095509550955091939550919395565b600060608060006060600d60008773ffffffffffffffffffffffffffffffffffffffff1673ffffffffffffffffffffffffffffffffffffffff16815260200190815260200160002060000160009054906101000a900473ffffffffffffffffffffffffffffffffffffffff16600d60008873ffffffffffffffffffffffffffffffffffffffff1673ffffffffffffffffffffffffffffffffffffffff168152602001908152602001600020600101600d60008973ffffffffffffffffffffffffffffffffffffffff1673ffffffffffffffffffffffffffffffffffffffff168152602001908152602001600020600201600d60008a73ffffffffffffffffffffffffffffffffffffffff1673ffffffffffffffffffffffffffffffffffffffff16815260200190815260200160002060030160009054906101000a900460ff16600d60008b73ffffffffffffffffffffffffffffffffffffffff1673ffffffffffffffffffffffffffffffffffffffff168152602001908152602001600020600401838054600181600116156101000203166002900480601f0160208091040260200160405190810160405280929190818152602001828054600181600116156101000203166002900480156131cb5780601f106131a0576101008083540402835291602001916131cb565b820191906000526020600020905b8154815290600101906020018083116131ae57829003601f168201915b50505050509350828054600181600116156101000203166002900480601f0160208091040260200160405190810160405280929190818152602001828054600181600116156101000203166002900480156132675780601f1061323c57610100808354040283529160200191613267565b820191906000526020600020905b81548152906001019060200180831161324a57829003601f168201915b50505050509250808054600181600116156101000203166002900480601f0160208091040260200160405190810160405280929190818152602001828054600181600116156101000203166002900480156133035780601f106132d857610100808354040283529160200191613303565b820191906000526020600020905b8154815290600101906020018083116132e657829003601f168201915b505050505090509450945094509450945091939590929450565b6060600060608060006060600b60008873ffffffffffffffffffffffffffffffffffffffff1673ffffffffffffffffffffffffffffffffffffffff168152602001908152602001600020600001600b60008973ffffffffffffffffffffffffffffffffffffffff1673ffffffffffffffffffffffffffffffffffffffff16815260200190815260200160002060010160009054906101000a900473ffffffffffffffffffffffffffffffffffffffff16600b60008a73ffffffffffffffffffffffffffffffffffffffff1673ffffffffffffffffffffffffffffffffffffffff168152602001908152602001600020600201600b60008b73ffffffffffffffffffffffffffffffffffffffff1673ffffffffffffffffffffffffffffffffffffffff168152602001908152602001600020600301600b60008c73ffffffffffffffffffffffffffffffffffffffff1673ffffffffffffffffffffffffffffffffffffffff16815260200190815260200160002060040160009054906101000a900460ff16600b60008d73ffffffffffffffffffffffffffffffffffffffff1673ffffffffffffffffffffffffffffffffffffffff168152602001908152602001600020600501858054600181600116156101000203166002900480601f0160208091040260200160405190810160405280929190818152602001828054600181600116156101000203166002900480156135785780601f1061354d57610100808354040283529160200191613578565b820191906000526020600020905b81548152906001019060200180831161355b57829003601f168201915b50505050509550838054600181600116156101000203166002900480601f0160208091040260200160405190810160405280929190818152602001828054600181600116156101000203166002900480156136145780601f106135e957610100808354040283529160200191613614565b820191906000526020600020905b8154815290600101906020018083116135f757829003601f168201915b50505050509350828054600181600116156101000203166002900480601f0160208091040260200160405190810160405280929190818152602001828054600181600116156101000203166002900480156136b05780601f10613685576101008083540402835291602001916136b0565b820191906000526020600020905b81548152906001019060200180831161369357829003601f168201915b50505050509250808054600181600116156101000203166002900480601f01602080910402602001604051908101604052809291908181526020018280546001816001161561010002031660029004801561374c5780601f106137215761010080835404028352916020019161374c565b820191906000526020600020905b81548152906001019060200180831161372f57829003601f168201915b5050505050905095509550955095509550955091939550919395565b606060008060006009856040518082805190602001908083835b602083106137a55780518252602082019150602081019050602083039250613782565b6001836020036101000a03801982511681845116808217855250505050505090500191505090815260200160405180910390206000016009866040518082805190602001908083835b6020831061381157805182526020820191506020810190506020830392506137ee565b6001836020036101000a038019825116818451168082178552505050505050905001915050908152602001604051809103902060010160009054906101000a900473ffffffffffffffffffffffffffffffffffffffff166009876040518082805190602001908083835b6020831061389e578051825260208201915060208101905060208303925061387b565b6001836020036101000a0380198251168184511680821785525050505050509050019150509081526020016040518091039020600201546007886040518082805190602001908083835b6020831061390b57805182526020820191506020810190506020830392506138e8565b6001836020036101000a038019825116818451168082178552505050505050905001915050908152602001604051809103902060030160009054906101000a900460ff16838054600181600116156101000203166002900480601f0160208091040260200160405190810160405280929190818152602001828054600181600116156101000203166002900480156139e45780601f106139b9576101008083540402835291602001916139e4565b820191906000526020600020905b8154815290600101906020018083116139c757829003601f168201915b5050505050935093509350935093509193509193565b604051806080016040528060608152602001600073ffffffffffffffffffffffffffffffffffffffff168152602001600081526020016000151581525090565b828054600181600116156101000203166002900490600052602060002090601f016020900481019282601f10613a7b57805160ff1916838001178555613aa9565b82800160010185558215613aa9579182015b82811115613aa8578251825591602001919060010190613a8d565b5b509050613ab69190613c1d565b5090565b828054600181600116156101000203166002900490600052602060002090601f016020900481019282601f10613afb57805160ff1916838001178555613b29565b82800160010185558215613b29579182015b82811115613b28578251825591602001919060010190613b0d565b5b509050613b369190613c1d565b5090565b6040518060a00160405280600073ffffffffffffffffffffffffffffffffffffffff1681526020016060815260200160608152602001600015158152602001606081525090565b6040518060c00160405280606081526020016000815260200160608152602001600015158152602001600073ffffffffffffffffffffffffffffffffffffffff168152602001606081525090565b6040518060c0016040528060608152602001600073ffffffffffffffffffffffffffffffffffffffff1681526020016060815260200160608152602001600015158152602001606081525090565b613c3f91905b80821115613c3b576000816000905550600101613c23565b5090565b9056fea265627a7a7231582063eafed2915104b320bc1a497f0fd592594e068f8548ed4b5832bbf2f40f718064736f6c63430005100032",
  "source": "pragma solidity >=0.5.0 <0.9.0;\r\nimport \"./Admin.sol\";\r\n\r\ncontract Employee {\r\n  address admin;\r\n  address employee_address;\r\n  string description;\r\n  string location;\r\n  uint256 overallEndorsement;\r\n  uint256 endorsecount;\r\n  string name;\r\n\r\n  constructor(\r\n    address _admin,\r\n    address _employee_address,\r\n    string memory _name,\r\n    string memory _description,\r\n    string memory _location\r\n  ) public {\r\n    admin = _admin;\r\n    name = _name;\r\n    employee_address = _employee_address;\r\n    description = _description;\r\n    location = _location;\r\n  }\r\n\r\n  modifier OnlyEmployee() {\r\n    require(msg.sender == employee_address);\r\n    _;\r\n  }\r\n\r\n  function getEmployeeInfo()\r\n    public\r\n    view\r\n    returns (\r\n      address,\r\n      string memory,\r\n      string memory,\r\n      string memory,\r\n      uint256,\r\n      uint256\r\n    )\r\n  {\r\n    return (\r\n      employee_address,\r\n      name,\r\n      description,\r\n      location,\r\n      overallEndorsement,\r\n      endorsecount\r\n    );\r\n  }\r\n\r\n  /*********************************************************SKILLS SECTION**********************************************************/\r\n\r\n  struct skillInfo {\r\n    string name;\r\n    uint256 overall_percentage;\r\n    string experience;\r\n    bool endorsed;\r\n    address endorser_address;\r\n    string review;\r\n  }\r\n\r\n  mapping(string => skillInfo) skillmap;\r\n  string[] skills;\r\n\r\n  event skillVerified(address indexed employee, address indexed endorser);\r\n\r\n  event skillAdded(address indexed employee, string skillname);\r\n\r\n  function addSkill(string memory _name, string memory _experience)\r\n    public\r\n    OnlyEmployee\r\n  {\r\n    skillInfo memory employeeSkillSet;\r\n    employeeSkillSet.name = _name;\r\n    employeeSkillSet.experience = _experience;\r\n    employeeSkillSet.overall_percentage = 0;\r\n    employeeSkillSet.endorsed = false;\r\n    skillmap[_name] = employeeSkillSet;\r\n    skills.push(_name);\r\n    emit skillAdded(msg.sender, _name);\r\n  }\r\n\r\n  function endorseSkill(string memory _name, uint256 _overall_percentage)\r\n    public\r\n  {\r\n    require(Admin(admin).isOrganizationEndorser(msg.sender));\r\n    skillmap[_name].overall_percentage = _overall_percentage;\r\n    overallEndorsement += _overall_percentage;\r\n    endorsecount = endorsecount + 1;\r\n    skillmap[_name].endorsed = true;\r\n    emit skillVerified(employee_address, msg.sender);\r\n  }\r\n\r\n  function getSkillByName(string memory _name)\r\n    private\r\n    view\r\n    returns (\r\n      string memory,\r\n      uint256,\r\n      string memory,\r\n      bool,\r\n      address,\r\n      string memory\r\n    )\r\n  {\r\n    return (\r\n      skillmap[_name].name,\r\n      skillmap[_name].overall_percentage,\r\n      skillmap[_name].experience,\r\n      skillmap[_name].endorsed,\r\n      skillmap[_name].endorser_address,\r\n      skillmap[_name].review\r\n    );\r\n  }\r\n\r\n  function getSkillCount() public view returns (uint256) {\r\n    return skills.length;\r\n  }\r\n\r\n  function getSkillByIndex(uint256 _index)\r\n    public\r\n    view\r\n    returns (\r\n      string memory,\r\n      uint256,\r\n      string memory,\r\n      bool,\r\n      address,\r\n      string memory\r\n    )\r\n  {\r\n    return getSkillByName(skills[_index]);\r\n  }\r\n\r\n  /*********************************************************CERTIFICATION SECTION**********************************************************/\r\n\r\n  event certificationAdded(\r\n    address indexed employee,\r\n    address indexed organization\r\n  );\r\n\r\n  event certificationVerified(\r\n    address indexed employee,\r\n    address indexed organization\r\n  );\r\n\r\n  struct certificationInfo {\r\n    string name;\r\n    address organization;\r\n    uint256 score;\r\n    bool endorsed;\r\n  }\r\n\r\n  mapping(string => certificationInfo) certificationmap;\r\n  string[] certifications;\r\n\r\n  function addCertification(\r\n    string memory _name,\r\n    address _organization,\r\n    uint256 _score\r\n  ) public OnlyEmployee {\r\n    certificationInfo memory newcertificationInfo;\r\n    newcertificationInfo.name = _name;\r\n    newcertificationInfo.organization = _organization;\r\n    newcertificationInfo.score = _score;\r\n    newcertificationInfo.endorsed = false;\r\n    certificationmap[_name] = newcertificationInfo;\r\n    certifications.push(_name);\r\n    emit certificationAdded(msg.sender, _organization);\r\n  }\r\n\r\n  function endorseCertification(string memory _name) public {\r\n    require(Admin(admin).isOrganizationEndorser(msg.sender));\r\n    require(msg.sender == certificationmap[_name].organization);\r\n    certificationmap[_name].endorsed = true;\r\n    emit certificationVerified(employee_address, msg.sender);\r\n  }\r\n\r\n  function getCertificationByName(string memory _name)\r\n    private\r\n    view\r\n    returns (\r\n      string memory,\r\n      address,\r\n      uint256,\r\n      bool\r\n    )\r\n  {\r\n    return (\r\n      certificationmap[_name].name,\r\n      certificationmap[_name].organization,\r\n      certificationmap[_name].score,\r\n      skillmap[_name].endorsed\r\n    );\r\n  }\r\n\r\n  function getCertificationCount() public view returns (uint256) {\r\n    return certifications.length;\r\n  }\r\n\r\n  function getCertificationByIndex(uint256 _index)\r\n    public\r\n    view\r\n    returns (\r\n      string memory,\r\n      address,\r\n      uint256,\r\n      bool\r\n    )\r\n  {\r\n    return getCertificationByName(certifications[_index]);\r\n  }\r\n\r\n  /********************************************************************Work Experience Section********************************************************************/\r\n\r\n  event workexpAdded(address indexed employee, address indexed organization);\r\n\r\n  event workexpEndorsed(address indexed employee, address indexed organization);\r\n\r\n  struct workexpInfo {\r\n    string role;\r\n    address organization;\r\n    string startdate;\r\n    string enddate;\r\n    bool endorsed;\r\n    string description;\r\n  }\r\n\r\n  mapping(address => workexpInfo) workexpmap;\r\n  address[] workexps;\r\n\r\n  function addWorkExp(\r\n    string memory _role,\r\n    address _organization,\r\n    string memory _startdate,\r\n    string memory _enddate,\r\n    string memory _description\r\n  ) public OnlyEmployee {\r\n    workexpInfo memory newworkexp;\r\n    newworkexp.role = _role;\r\n    newworkexp.organization = _organization;\r\n    newworkexp.startdate = _startdate;\r\n    newworkexp.enddate = _enddate;\r\n    newworkexp.endorsed = false;\r\n    newworkexp.description = _description;\r\n    workexpmap[_organization] = newworkexp;\r\n    workexps.push(_organization);\r\n    emit workexpAdded(msg.sender, _organization);\r\n  }\r\n\r\n  function endorseWorkExp() public {\r\n    require(Admin(admin).isOrganizationEndorser(msg.sender));\r\n    require(workexpmap[msg.sender].organization != address(0x0));\r\n    workexpmap[msg.sender].endorsed = true;\r\n    emit workexpEndorsed(employee_address, msg.sender);\r\n  }\r\n\r\n  function getWorkExpByAddress(address _organization)\r\n    private\r\n    view\r\n    returns (\r\n      string memory,\r\n      address,\r\n      string memory,\r\n      string memory,\r\n      bool,\r\n      string memory\r\n    )\r\n  {\r\n    return (\r\n      workexpmap[_organization].role,\r\n      workexpmap[_organization].organization,\r\n      workexpmap[_organization].startdate,\r\n      workexpmap[_organization].enddate,\r\n      workexpmap[_organization].endorsed,\r\n      workexpmap[_organization].description\r\n    );\r\n  }\r\n\r\n  function getWorkExpCount() public view returns (uint256) {\r\n    return workexps.length;\r\n  }\r\n\r\n  function getWorkExpByIndex(uint256 _index)\r\n    public\r\n    view\r\n    returns (\r\n      string memory,\r\n      address,\r\n      string memory,\r\n      string memory,\r\n      bool,\r\n      string memory\r\n    )\r\n  {\r\n    return getWorkExpByAddress(workexps[_index]);\r\n  }\r\n\r\n  /********************************************************************Education Section********************************************************************/\r\n\r\n  event EducationAdded(address indexed employee, address indexed institute);\r\n\r\n  event educationEndorsed(address indexed employee, address indexed institute);\r\n\r\n  struct educationInfo {\r\n    address institute;\r\n    string startdate;\r\n    string enddate;\r\n    bool endorsed;\r\n    string description;\r\n  }\r\n\r\n  mapping(address => educationInfo) educationmap;\r\n  address[] educations;\r\n\r\n  function addEducation(\r\n    address _institute,\r\n    string memory _startdate,\r\n    string memory _enddate,\r\n    string memory _description\r\n  ) public OnlyEmployee {\r\n    educationInfo memory newEducation;\r\n    newEducation.institute = _institute;\r\n    newEducation.startdate = _startdate;\r\n    newEducation.enddate = _enddate;\r\n    newEducation.endorsed = false;\r\n    newEducation.description = _description;\r\n    educationmap[_institute] = newEducation;\r\n    educations.push(_institute);\r\n    emit EducationAdded(msg.sender, _institute);\r\n  }\r\n\r\n  function endorseEducation() public {\r\n    require(Admin(admin).isOrganizationEndorser(msg.sender));\r\n    require(educationmap[msg.sender].institute != address(0x0));\r\n    educationmap[msg.sender].endorsed = true;\r\n    emit educationEndorsed(employee_address, msg.sender);\r\n  }\r\n\r\n  function getEducationByAddress(address _institute)\r\n    private\r\n    view\r\n    returns (\r\n      address,\r\n      string memory,\r\n      string memory,\r\n      bool,\r\n      string memory\r\n    )\r\n  {\r\n    return (\r\n      educationmap[_institute].institute,\r\n      educationmap[_institute].startdate,\r\n      educationmap[_institute].enddate,\r\n      educationmap[_institute].endorsed,\r\n      educationmap[_institute].description\r\n    );\r\n  }\r\n\r\n  function getEducationCount() public view returns (uint256) {\r\n    return educations.length;\r\n  }\r\n\r\n  function getEducationByIndex(uint256 _index)\r\n    public\r\n    view\r\n    returns (\r\n      address,\r\n      string memory,\r\n      string memory,\r\n      bool,\r\n      string memory\r\n    )\r\n  {\r\n    return getEducationByAddress(educations[_index]);\r\n  }\r\n}\r\n",
  "sourcePath": "C:\\Users\\Asus\\Desktop\\skillset-verified\\src\\contracts\\Employee.sol",
  "compiler": {
    "name": "solc",
    "version": "0.5.16+commit.9c3226ce.Emscripten.clang"
  },
  "schemaVersion": "3.2.3",
  "updatedAt": "2021-09-25T16:19:02.494Z",
  "networkType": "ethereum",
  "devdoc": {
    "methods": {}
  },
  "userdoc": {
    "methods": {}
  }
}