{
  "contractName": "Employee",
  "abi": [
    {
      "inputs": [
        {
          "internalType": "address",
          "name": "_admin",
          "type": "address"
        },
        {
          "internalType": "address",
          "name": "_employee_address",
          "type": "address"
        },
        {
          "internalType": "string",
          "name": "_name",
          "type": "string"
        },
        {
          "internalType": "string",
          "name": "_description",
          "type": "string"
        },
        {
          "internalType": "string",
          "name": "_location",
          "type": "string"
        }
      ],
      "payable": false,
      "stateMutability": "nonpayable",
      "type": "constructor"
    },
    {
      "constant": true,
      "inputs": [
        {
          "internalType": "uint256",
          "name": "",
          "type": "uint256"
        }
      ],
      "name": "overallEndorsement",
      "outputs": [
        {
          "internalType": "uint256",
          "name": "",
          "type": "uint256"
        }
      ],
      "payable": false,
      "stateMutability": "view",
      "type": "function"
    },
    {
      "constant": true,
      "inputs": [],
      "name": "getEmployeeInfo",
      "outputs": [
        {
          "internalType": "address",
          "name": "",
          "type": "address"
        },
        {
          "internalType": "string",
          "name": "",
          "type": "string"
        },
        {
          "internalType": "string",
          "name": "",
          "type": "string"
        },
        {
          "internalType": "string",
          "name": "",
          "type": "string"
        },
        {
          "internalType": "uint256",
          "name": "",
          "type": "uint256"
        },
        {
          "internalType": "uint256",
          "name": "",
          "type": "uint256"
        }
      ],
      "payable": false,
      "stateMutability": "view",
      "type": "function"
    },
    {
      "constant": false,
      "inputs": [
        {
          "internalType": "string",
          "name": "_name",
          "type": "string"
        },
        {
          "internalType": "string",
          "name": "_descrip",
          "type": "string"
        },
        {
          "internalType": "string",
          "name": "_location",
          "type": "string"
        }
      ],
      "name": "editInfo",
      "outputs": [],
      "payable": false,
      "stateMutability": "nonpayable",
      "type": "function"
    },
    {
      "constant": false,
      "inputs": [
        {
          "internalType": "string",
          "name": "_name",
          "type": "string"
        },
        {
          "internalType": "string",
          "name": "_experience",
          "type": "string"
        }
      ],
      "name": "addSkill",
      "outputs": [],
      "payable": false,
      "stateMutability": "nonpayable",
      "type": "function"
    },
    {
      "constant": false,
      "inputs": [
        {
          "internalType": "string",
          "name": "_name",
          "type": "string"
        },
        {
          "internalType": "uint256",
          "name": "_overall_percentage",
          "type": "uint256"
        },
        {
          "internalType": "string",
          "name": "_review",
          "type": "string"
        }
      ],
      "name": "endorseSkill",
      "outputs": [],
      "payable": false,
      "stateMutability": "nonpayable",
      "type": "function"
    },
    {
      "constant": true,
      "inputs": [],
      "name": "getSkillCount",
      "outputs": [
        {
          "internalType": "uint256",
          "name": "",
          "type": "uint256"
        }
      ],
      "payable": false,
      "stateMutability": "view",
      "type": "function"
    },
    {
      "constant": true,
      "inputs": [
        {
          "internalType": "uint256",
          "name": "_index",
          "type": "uint256"
        }
      ],
      "name": "getSkillByIndex",
      "outputs": [
        {
          "internalType": "string",
          "name": "",
          "type": "string"
        },
        {
          "internalType": "uint256",
          "name": "",
          "type": "uint256"
        },
        {
          "internalType": "string",
          "name": "",
          "type": "string"
        },
        {
          "internalType": "bool",
          "name": "",
          "type": "bool"
        },
        {
          "internalType": "address",
          "name": "",
          "type": "address"
        },
        {
          "internalType": "string",
          "name": "",
          "type": "string"
        },
        {
          "internalType": "bool",
          "name": "",
          "type": "bool"
        }
      ],
      "payable": false,
      "stateMutability": "view",
      "type": "function"
    },
    {
      "constant": false,
      "inputs": [
        {
          "internalType": "string",
          "name": "_name",
          "type": "string"
        }
      ],
      "name": "deleteSkill",
      "outputs": [],
      "payable": false,
      "stateMutability": "nonpayable",
      "type": "function"
    },
    {
      "constant": false,
      "inputs": [
        {
          "internalType": "string",
          "name": "_name",
          "type": "string"
        },
        {
          "internalType": "address",
          "name": "_organization",
          "type": "address"
        },
        {
          "internalType": "uint256",
          "name": "_score",
          "type": "uint256"
        }
      ],
      "name": "addCertification",
      "outputs": [],
      "payable": false,
      "stateMutability": "nonpayable",
      "type": "function"
    },
    {
      "constant": false,
      "inputs": [
        {
          "internalType": "string",
          "name": "_name",
          "type": "string"
        }
      ],
      "name": "endorseCertification",
      "outputs": [],
      "payable": false,
      "stateMutability": "nonpayable",
      "type": "function"
    },
    {
      "constant": true,
      "inputs": [],
      "name": "getCertificationCount",
      "outputs": [
        {
          "internalType": "uint256",
          "name": "",
          "type": "uint256"
        }
      ],
      "payable": false,
      "stateMutability": "view",
      "type": "function"
    },
    {
      "constant": true,
      "inputs": [
        {
          "internalType": "uint256",
          "name": "_index",
          "type": "uint256"
        }
      ],
      "name": "getCertificationByIndex",
      "outputs": [
        {
          "internalType": "string",
          "name": "",
          "type": "string"
        },
        {
          "internalType": "address",
          "name": "",
          "type": "address"
        },
        {
          "internalType": "uint256",
          "name": "",
          "type": "uint256"
        },
        {
          "internalType": "bool",
          "name": "",
          "type": "bool"
        },
        {
          "internalType": "bool",
          "name": "",
          "type": "bool"
        }
      ],
      "payable": false,
      "stateMutability": "view",
      "type": "function"
    },
    {
      "constant": false,
      "inputs": [
        {
          "internalType": "string",
          "name": "_name",
          "type": "string"
        }
      ],
      "name": "deleteCertification",
      "outputs": [],
      "payable": false,
      "stateMutability": "nonpayable",
      "type": "function"
    },
    {
      "constant": false,
      "inputs": [
        {
          "internalType": "string",
          "name": "_role",
          "type": "string"
        },
        {
          "internalType": "address",
          "name": "_organization",
          "type": "address"
        },
        {
          "internalType": "string",
          "name": "_startdate",
          "type": "string"
        },
        {
          "internalType": "string",
          "name": "_enddate",
          "type": "string"
        },
        {
          "internalType": "string",
          "name": "_description",
          "type": "string"
        }
      ],
      "name": "addWorkExp",
      "outputs": [],
      "payable": false,
      "stateMutability": "nonpayable",
      "type": "function"
    },
    {
      "constant": false,
      "inputs": [],
      "name": "endorseWorkExp",
      "outputs": [],
      "payable": false,
      "stateMutability": "nonpayable",
      "type": "function"
    },
    {
      "constant": true,
      "inputs": [],
      "name": "getWorkExpCount",
      "outputs": [
        {
          "internalType": "uint256",
          "name": "",
          "type": "uint256"
        }
      ],
      "payable": false,
      "stateMutability": "view",
      "type": "function"
    },
    {
      "constant": true,
      "inputs": [
        {
          "internalType": "uint256",
          "name": "_index",
          "type": "uint256"
        }
      ],
      "name": "getWorkExpByIndex",
      "outputs": [
        {
          "internalType": "string",
          "name": "",
          "type": "string"
        },
        {
          "internalType": "address",
          "name": "",
          "type": "address"
        },
        {
          "internalType": "string",
          "name": "",
          "type": "string"
        },
        {
          "internalType": "string",
          "name": "",
          "type": "string"
        },
        {
          "internalType": "bool",
          "name": "",
          "type": "bool"
        },
        {
          "internalType": "string",
          "name": "",
          "type": "string"
        },
        {
          "internalType": "bool",
          "name": "",
          "type": "bool"
        }
      ],
      "payable": false,
      "stateMutability": "view",
      "type": "function"
    },
    {
      "constant": false,
      "inputs": [
        {
          "internalType": "address",
          "name": "org",
          "type": "address"
        }
      ],
      "name": "deleteWorkExp",
      "outputs": [],
      "payable": false,
      "stateMutability": "nonpayable",
      "type": "function"
    },
    {
      "constant": false,
      "inputs": [
        {
          "internalType": "address",
          "name": "_institute",
          "type": "address"
        },
        {
          "internalType": "string",
          "name": "_startdate",
          "type": "string"
        },
        {
          "internalType": "string",
          "name": "_enddate",
          "type": "string"
        },
        {
          "internalType": "string",
          "name": "_description",
          "type": "string"
        }
      ],
      "name": "addEducation",
      "outputs": [],
      "payable": false,
      "stateMutability": "nonpayable",
      "type": "function"
    },
    {
      "constant": false,
      "inputs": [],
      "name": "endorseEducation",
      "outputs": [],
      "payable": false,
      "stateMutability": "nonpayable",
      "type": "function"
    },
    {
      "constant": true,
      "inputs": [],
      "name": "getEducationCount",
      "outputs": [
        {
          "internalType": "uint256",
          "name": "",
          "type": "uint256"
        }
      ],
      "payable": false,
      "stateMutability": "view",
      "type": "function"
    },
    {
      "constant": true,
      "inputs": [
        {
          "internalType": "uint256",
          "name": "_index",
          "type": "uint256"
        }
      ],
      "name": "getEducationByIndex",
      "outputs": [
        {
          "internalType": "address",
          "name": "",
          "type": "address"
        },
        {
          "internalType": "string",
          "name": "",
          "type": "string"
        },
        {
          "internalType": "string",
          "name": "",
          "type": "string"
        },
        {
          "internalType": "bool",
          "name": "",
          "type": "bool"
        },
        {
          "internalType": "string",
          "name": "",
          "type": "string"
        }
      ],
      "payable": false,
      "stateMutability": "view",
      "type": "function"
    }
  ],
  "bytecode": "0x60806040523480156200001157600080fd5b506040516200464b3803806200464b833981810160405260a08110156200003757600080fd5b810190808051906020019092919080519060200190929190805160405193929190846401000000008211156200006c57600080fd5b838201915060208201858111156200008357600080fd5b8251866001820283011164010000000082111715620000a157600080fd5b8083526020830192505050908051906020019080838360005b83811015620000d7578082015181840152602081019050620000ba565b50505050905090810190601f168015620001055780820380516001836020036101000a031916815260200191505b50604052602001805160405193929190846401000000008211156200012957600080fd5b838201915060208201858111156200014057600080fd5b82518660018202830111640100000000821117156200015e57600080fd5b8083526020830192505050908051906020019080838360005b838110156200019457808201518184015260208101905062000177565b50505050905090810190601f168015620001c25780820380516001836020036101000a031916815260200191505b5060405260200180516040519392919084640100000000821115620001e657600080fd5b83820191506020820185811115620001fd57600080fd5b82518660018202830111640100000000821117156200021b57600080fd5b8083526020830192505050908051906020019080838360005b838110156200025157808201518184015260208101905062000234565b50505050905090810190601f1680156200027f5780820380516001836020036101000a031916815260200191505b50604052505050846000806101000a81548173ffffffffffffffffffffffffffffffffffffffff021916908373ffffffffffffffffffffffffffffffffffffffff1602179055508260069080519060200190620002de92919062000365565b5083600160006101000a81548173ffffffffffffffffffffffffffffffffffffffff021916908373ffffffffffffffffffffffffffffffffffffffff16021790555081600290805190602001906200033892919062000365565b5080600390805190602001906200035192919062000365565b506000600581905550505050505062000414565b828054600181600116156101000203166002900490600052602060002090601f016020900481019282601f10620003a857805160ff1916838001178555620003d9565b82800160010185558215620003d9579182015b82811115620003d8578251825591602001919060010190620003bb565b5b509050620003e89190620003ec565b5090565b6200041191905b808211156200040d576000816000905550600101620003f3565b5090565b90565b61422780620004246000396000f3fe608060405234801561001057600080fd5b50600436106101425760003560e01c8063c07f7d16116100b8578063eda3467c1161007c578063eda3467c14610f61578063f1d9efb21461101c578063f5e616a6146112bc578063fc017f25146112c6578063fdb10361146114af578063fee7989e1461160b57610142565b8063c07f7d16146108d3578063cf6431c614610adc578063d57e0ad614610b97578063d862ae8714610dcb578063e260175114610f1d57610142565b80636212fa021161010a5780636212fa0214610417578063645f29a8146104355780637b1d2d00146105f25780637c067d8d146106d757806394fb3da714610719578063a3e3bf7d1461073757610142565b806305f53b29146101475780632186879c14610165578063444fc6621461022057806344afd134146103ef57806344f034ae1461040d575b600080fd5b61014f611702565b6040518082815260200191505060405180910390f35b61021e6004803603602081101561017b57600080fd5b810190808035906020019064010000000081111561019857600080fd5b8201836020820111156101aa57600080fd5b803590602001918460018302840111640100000000831117156101cc57600080fd5b91908080601f016020809104026020016040519081016040528093929190818152602001838380828437600081840152601f19601f82011690508083019250505050505050919291929050505061170f565b005b61024c6004803603602081101561023657600080fd5b810190808035906020019092919050505061186a565b604051808060200188815260200180602001871515151581526020018673ffffffffffffffffffffffffffffffffffffffff1673ffffffffffffffffffffffffffffffffffffffff168152602001806020018515151515815260200184810384528b818151815260200191508051906020019080838360005b838110156102e05780820151818401526020810190506102c5565b50505050905090810190601f16801561030d5780820380516001836020036101000a031916815260200191505b50848103835289818151815260200191508051906020019080838360005b8381101561034657808201518184015260208101905061032b565b50505050905090810190601f1680156103735780820380516001836020036101000a031916815260200191505b50848103825286818151815260200191508051906020019080838360005b838110156103ac578082015181840152602081019050610391565b50505050905090810190601f1680156103d95780820380516001836020036101000a031916815260200191505b509a505050505050505050505060405180910390f35b6103f7611948565b6040518082815260200191505060405180910390f35b610415611955565b005b61041f611a4e565b6040518082815260200191505060405180910390f35b6104616004803603602081101561044b57600080fd5b8101908080359060200190929190505050611a5b565b604051808673ffffffffffffffffffffffffffffffffffffffff1673ffffffffffffffffffffffffffffffffffffffff16815260200180602001806020018515151515815260200180602001848103845288818151815260200191508051906020019080838360005b838110156104e55780820151818401526020810190506104ca565b50505050905090810190601f1680156105125780820380516001836020036101000a031916815260200191505b50848103835287818151815260200191508051906020019080838360005b8381101561054b578082015181840152602081019050610530565b50505050905090810190601f1680156105785780820380516001836020036101000a031916815260200191505b50848103825285818151815260200191508051906020019080838360005b838110156105b1578082015181840152602081019050610596565b50505050905090810190601f1680156105de5780820380516001836020036101000a031916815260200191505b509850505050505050505060405180910390f35b6106d56004803603606081101561060857600080fd5b810190808035906020019064010000000081111561062557600080fd5b82018360208201111561063757600080fd5b8035906020019184600183028401116401000000008311171561065957600080fd5b91908080601f016020809104026020016040519081016040528093929190818152602001838380828437600081840152601f19601f820116905080830192505050505050509192919290803573ffffffffffffffffffffffffffffffffffffffff16906020019092919080359060200190929190505050611ab7565b005b610703600480360360208110156106ed57600080fd5b8101908080359060200190929190505050611ce6565b6040518082815260200191505060405180910390f35b610721611d07565b6040518082815260200191505060405180910390f35b61073f611d14565b604051808773ffffffffffffffffffffffffffffffffffffffff1673ffffffffffffffffffffffffffffffffffffffff168152602001806020018060200180602001868152602001858152602001848103845289818151815260200191508051906020019080838360005b838110156107c55780820151818401526020810190506107aa565b50505050905090810190601f1680156107f25780820380516001836020036101000a031916815260200191505b50848103835288818151815260200191508051906020019080838360005b8381101561082b578082015181840152602081019050610810565b50505050905090810190601f1680156108585780820380516001836020036101000a031916815260200191505b50848103825287818151815260200191508051906020019080838360005b83811015610891578082015181840152602081019050610876565b50505050905090810190601f1680156108be5780820380516001836020036101000a031916815260200191505b50995050505050505050505060405180910390f35b610ada600480360360808110156108e957600080fd5b81019080803573ffffffffffffffffffffffffffffffffffffffff1690602001909291908035906020019064010000000081111561092657600080fd5b82018360208201111561093857600080fd5b8035906020019184600183028401116401000000008311171561095a57600080fd5b91908080601f016020809104026020016040519081016040528093929190818152602001838380828437600081840152601f19601f820116905080830192505050505050509192919290803590602001906401000000008111156109bd57600080fd5b8201836020820111156109cf57600080fd5b803590602001918460018302840111640100000000831117156109f157600080fd5b91908080601f016020809104026020016040519081016040528093929190818152602001838380828437600081840152601f19601f82011690508083019250505050505050919291929080359060200190640100000000811115610a5457600080fd5b820183602082011115610a6657600080fd5b80359060200191846001830284011164010000000083111715610a8857600080fd5b91908080601f016020809104026020016040519081016040528093929190818152602001838380828437600081840152601f19601f820116905080830192505050505050509192919290505050611f37565b005b610b9560048036036020811015610af257600080fd5b8101908080359060200190640100000000811115610b0f57600080fd5b820183602082011115610b2157600080fd5b80359060200191846001830284011164010000000083111715610b4357600080fd5b91908080601f016020809104026020016040519081016040528093929190818152602001838380828437600081840152601f19601f82011690508083019250505050505050919291929050505061216b565b005b610bc360048036036020811015610bad57600080fd5b81019080803590602001909291905050506122b7565b60405180806020018873ffffffffffffffffffffffffffffffffffffffff1673ffffffffffffffffffffffffffffffffffffffff168152602001806020018060200187151515158152602001806020018615151515815260200185810385528c818151815260200191508051906020019080838360005b83811015610c55578082015181840152602081019050610c3a565b50505050905090810190601f168015610c825780820380516001836020036101000a031916815260200191505b5085810384528a818151815260200191508051906020019080838360005b83811015610cbb578082015181840152602081019050610ca0565b50505050905090810190601f168015610ce85780820380516001836020036101000a031916815260200191505b50858103835289818151815260200191508051906020019080838360005b83811015610d21578082015181840152602081019050610d06565b50505050905090810190601f168015610d4e5780820380516001836020036101000a031916815260200191505b50858103825287818151815260200191508051906020019080838360005b83811015610d87578082015181840152602081019050610d6c565b50505050905090810190601f168015610db45780820380516001836020036101000a031916815260200191505b509b50505050505050505050505060405180910390f35b610f1b60048036036040811015610de157600080fd5b8101908080359060200190640100000000811115610dfe57600080fd5b820183602082011115610e1057600080fd5b80359060200191846001830284011164010000000083111715610e3257600080fd5b91908080601f016020809104026020016040519081016040528093929190818152602001838380828437600081840152601f19601f82011690508083019250505050505050919291929080359060200190640100000000811115610e9557600080fd5b820183602082011115610ea757600080fd5b80359060200191846001830284011164010000000083111715610ec957600080fd5b91908080601f016020809104026020016040519081016040528093929190818152602001838380828437600081840152601f19601f82011690508083019250505050505050919291929050505061231d565b005b610f5f60048036036020811015610f3357600080fd5b81019080803573ffffffffffffffffffffffffffffffffffffffff169060200190929190505050612557565b005b61101a60048036036020811015610f7757600080fd5b8101908080359060200190640100000000811115610f9457600080fd5b820183602082011115610fa657600080fd5b80359060200191846001830284011164010000000083111715610fc857600080fd5b91908080601f016020809104026020016040519081016040528093929190818152602001838380828437600081840152601f19601f82011690508083019250505050505050919291929050505061260f565b005b6112ba600480360360a081101561103257600080fd5b810190808035906020019064010000000081111561104f57600080fd5b82018360208201111561106157600080fd5b8035906020019184600183028401116401000000008311171561108357600080fd5b91908080601f016020809104026020016040519081016040528093929190818152602001838380828437600081840152601f19601f820116905080830192505050505050509192919290803573ffffffffffffffffffffffffffffffffffffffff1690602001909291908035906020019064010000000081111561110657600080fd5b82018360208201111561111857600080fd5b8035906020019184600183028401116401000000008311171561113a57600080fd5b91908080601f016020809104026020016040519081016040528093929190818152602001838380828437600081840152601f19601f8201169050808301925050505050505091929192908035906020019064010000000081111561119d57600080fd5b8201836020820111156111af57600080fd5b803590602001918460018302840111640100000000831117156111d157600080fd5b91908080601f016020809104026020016040519081016040528093929190818152602001838380828437600081840152601f19601f8201169050808301925050505050505091929192908035906020019064010000000081111561123457600080fd5b82018360208201111561124657600080fd5b8035906020019184600183028401116401000000008311171561126857600080fd5b91908080601f016020809104026020016040519081016040528093929190818152602001838380828437600081840152601f19601f82011690508083019250505050505050919291929050505061276a565b005b6112c46129f6565b005b6114ad600480360360608110156112dc57600080fd5b81019080803590602001906401000000008111156112f957600080fd5b82018360208201111561130b57600080fd5b8035906020019184600183028401116401000000008311171561132d57600080fd5b91908080601f016020809104026020016040519081016040528093929190818152602001838380828437600081840152601f19601f8201169050808301925050505050505091929192908035906020019064010000000081111561139057600080fd5b8201836020820111156113a257600080fd5b803590602001918460018302840111640100000000831117156113c457600080fd5b91908080601f016020809104026020016040519081016040528093929190818152602001838380828437600081840152601f19601f8201169050808301925050505050505091929192908035906020019064010000000081111561142757600080fd5b82018360208201111561143957600080fd5b8035906020019184600183028401116401000000008311171561145b57600080fd5b91908080601f016020809104026020016040519081016040528093929190818152602001838380828437600081840152601f19601f820116905080830192505050505050509192919290505050612aef565b005b611609600480360360608110156114c557600080fd5b81019080803590602001906401000000008111156114e257600080fd5b8201836020820111156114f457600080fd5b8035906020019184600183028401116401000000008311171561151657600080fd5b91908080601f016020809104026020016040519081016040528093929190818152602001838380828437600081840152601f19601f820116905080830192505050505050509192919290803590602001909291908035906020019064010000000081111561158357600080fd5b82018360208201111561159557600080fd5b803590602001918460018302840111640100000000831117156115b757600080fd5b91908080601f016020809104026020016040519081016040528093929190818152602001838380828437600081840152601f19601f820116905080830192505050505050509192919290505050612b93565b005b6116376004803603602081101561162157600080fd5b8101908080359060200190929190505050612e75565b60405180806020018673ffffffffffffffffffffffffffffffffffffffff1673ffffffffffffffffffffffffffffffffffffffff1681526020018581526020018415151515815260200183151515158152602001828103825287818151815260200191508051906020019080838360005b838110156116c35780820151818401526020810190506116a8565b50505050905090810190601f1680156116f05780820380516001836020036101000a031916815260200191505b50965050505050505060405180910390f35b6000600880549050905090565b600160009054906101000a900473ffffffffffffffffffffffffffffffffffffffff1673ffffffffffffffffffffffffffffffffffffffff163373ffffffffffffffffffffffffffffffffffffffff161461176957600080fd5b6009816040518082805190602001908083835b6020831061179f578051825260208201915060208101905060208303925061177c565b6001836020036101000a038019825116818451168082178552505050505050905001915050908152602001604051809103902060030160019054906101000a900460ff16156009826040518082805190602001908083835b6020831061181a57805182526020820191506020810190506020830392506117f7565b6001836020036101000a038019825116818451168082178552505050505050905001915050908152602001604051809103902060030160016101000a81548160ff02191690831515021790555050565b6060600060606000806060600061192f6008898154811061188757fe5b906000526020600020018054600181600116156101000203166002900480601f0160208091040260200160405190810160405280929190818152602001828054600181600116156101000203166002900480156119255780601f106118fa57610100808354040283529160200191611925565b820191906000526020600020905b81548152906001019060200180831161190857829003601f168201915b5050505050612f48565b9650965096509650965096509650919395979092949650565b6000600a80549050905090565b600073ffffffffffffffffffffffffffffffffffffffff16600b60003373ffffffffffffffffffffffffffffffffffffffff1673ffffffffffffffffffffffffffffffffffffffff16815260200190815260200160002060010160009054906101000a900473ffffffffffffffffffffffffffffffffffffffff1673ffffffffffffffffffffffffffffffffffffffff1614156119f157600080fd5b6001600b60003373ffffffffffffffffffffffffffffffffffffffff1673ffffffffffffffffffffffffffffffffffffffff16815260200190815260200160002060040160006101000a81548160ff021916908315150217905550565b6000600e80549050905090565b600060608060006060611aa4600e8781548110611a7457fe5b9060005260206000200160009054906101000a900473ffffffffffffffffffffffffffffffffffffffff16613474565b9450945094509450945091939590929450565b600160009054906101000a900473ffffffffffffffffffffffffffffffffffffffff1673ffffffffffffffffffffffffffffffffffffffff163373ffffffffffffffffffffffffffffffffffffffff1614611b1157600080fd5b611b19613f8f565b83816000018190525082816020019073ffffffffffffffffffffffffffffffffffffffff16908173ffffffffffffffffffffffffffffffffffffffff16815250508181604001818152505060008160600190151590811515815250506001816080019015159081151581525050806009856040518082805190602001908083835b60208310611bbd5780518252602082019150602081019050602083039250611b9a565b6001836020036101000a03801982511681845116808217855250505050505090500191505090815260200160405180910390206000820151816000019080519060200190611c0c929190613fd8565b5060208201518160010160006101000a81548173ffffffffffffffffffffffffffffffffffffffff021916908373ffffffffffffffffffffffffffffffffffffffff1602179055506040820151816002015560608201518160030160006101000a81548160ff02191690831515021790555060808201518160030160016101000a81548160ff021916908315150217905550905050600a849080600181540180825580915050906001820390600052602060002001600090919290919091509080519060200190611cde929190614058565b505050505050565b60048181548110611cf357fe5b906000526020600020016000915090505481565b6000600c80549050905090565b60006060806060600080600160009054906101000a900473ffffffffffffffffffffffffffffffffffffffff166006600260036000600554848054600181600116156101000203166002900480601f016020809104026020016040519081016040528092919081815260200182805460018160011615610100020316600290048015611de15780601f10611db657610100808354040283529160200191611de1565b820191906000526020600020905b815481529060010190602001808311611dc457829003601f168201915b50505050509450838054600181600116156101000203166002900480601f016020809104026020016040519081016040528092919081815260200182805460018160011615610100020316600290048015611e7d5780601f10611e5257610100808354040283529160200191611e7d565b820191906000526020600020905b815481529060010190602001808311611e6057829003601f168201915b50505050509350828054600181600116156101000203166002900480601f016020809104026020016040519081016040528092919081815260200182805460018160011615610100020316600290048015611f195780601f10611eee57610100808354040283529160200191611f19565b820191906000526020600020905b815481529060010190602001808311611efc57829003601f168201915b50505050509250819150955095509550955095509550909192939495565b600160009054906101000a900473ffffffffffffffffffffffffffffffffffffffff1673ffffffffffffffffffffffffffffffffffffffff163373ffffffffffffffffffffffffffffffffffffffff1614611f9157600080fd5b611f996140d8565b84816000019073ffffffffffffffffffffffffffffffffffffffff16908173ffffffffffffffffffffffffffffffffffffffff1681525050838160200181905250828160400181905250600081606001901515908115158152505081816080018190525080600d60008773ffffffffffffffffffffffffffffffffffffffff1673ffffffffffffffffffffffffffffffffffffffff16815260200190815260200160002060008201518160000160006101000a81548173ffffffffffffffffffffffffffffffffffffffff021916908373ffffffffffffffffffffffffffffffffffffffff16021790555060208201518160010190805190602001906120a0929190613fd8565b5060408201518160020190805190602001906120bd929190613fd8565b5060608201518160030160006101000a81548160ff02191690831515021790555060808201518160040190805190602001906120fa929190613fd8565b50905050600e8590806001815401808255809150509060018203906000526020600020016000909192909190916101000a81548173ffffffffffffffffffffffffffffffffffffffff021916908373ffffffffffffffffffffffffffffffffffffffff160217905550505050505050565b6009816040518082805190602001908083835b602083106121a1578051825260208201915060208101905060208303925061217e565b6001836020036101000a038019825116818451168082178552505050505050905001915050908152602001604051809103902060010160009054906101000a900473ffffffffffffffffffffffffffffffffffffffff1673ffffffffffffffffffffffffffffffffffffffff163373ffffffffffffffffffffffffffffffffffffffff161461222f57600080fd5b60016009826040518082805190602001908083835b602083106122675780518252602082019150602081019050602083039250612244565b6001836020036101000a038019825116818451168082178552505050505050905001915050908152602001604051809103902060030160006101000a81548160ff02191690831515021790555050565b60606000606080600060606000612304600c89815481106122d457fe5b9060005260206000200160009054906101000a900473ffffffffffffffffffffffffffffffffffffffff166137dd565b9650965096509650965096509650919395979092949650565b600160009054906101000a900473ffffffffffffffffffffffffffffffffffffffff1673ffffffffffffffffffffffffffffffffffffffff163373ffffffffffffffffffffffffffffffffffffffff161461237757600080fd5b61237f61411f565b8281600001819052508181604001819052506000816020018181525050600081606001901515908115158152505060018160c0019015159081151581525050806007846040518082805190602001908083835b602083106123f557805182526020820191506020810190506020830392506123d2565b6001836020036101000a03801982511681845116808217855250505050505090500191505090815260200160405180910390206000820151816000019080519060200190612444929190613fd8565b5060208201518160010155604082015181600201908051906020019061246b929190613fd8565b5060608201518160030160006101000a81548160ff02191690831515021790555060808201518160030160016101000a81548173ffffffffffffffffffffffffffffffffffffffff021916908373ffffffffffffffffffffffffffffffffffffffff16021790555060a08201518160040190805190602001906124ef929190613fd8565b5060c08201518160050160006101000a81548160ff0219169083151502179055509050506008839080600181540180825580915050906001820390600052602060002001600090919290919091509080519060200190612550929190614058565b5050505050565b600160009054906101000a900473ffffffffffffffffffffffffffffffffffffffff1673ffffffffffffffffffffffffffffffffffffffff163373ffffffffffffffffffffffffffffffffffffffff16146125b157600080fd5b6000600b60008373ffffffffffffffffffffffffffffffffffffffff1673ffffffffffffffffffffffffffffffffffffffff16815260200190815260200160002060060160006101000a81548160ff02191690831515021790555050565b600160009054906101000a900473ffffffffffffffffffffffffffffffffffffffff1673ffffffffffffffffffffffffffffffffffffffff163373ffffffffffffffffffffffffffffffffffffffff161461266957600080fd5b6007816040518082805190602001908083835b6020831061269f578051825260208201915060208101905060208303925061267c565b6001836020036101000a038019825116818451168082178552505050505050905001915050908152602001604051809103902060050160009054906101000a900460ff16156007826040518082805190602001908083835b6020831061271a57805182526020820191506020810190506020830392506126f7565b6001836020036101000a038019825116818451168082178552505050505050905001915050908152602001604051809103902060050160006101000a81548160ff02191690831515021790555050565b600160009054906101000a900473ffffffffffffffffffffffffffffffffffffffff1673ffffffffffffffffffffffffffffffffffffffff163373ffffffffffffffffffffffffffffffffffffffff16146127c457600080fd5b6127cc614176565b85816000018190525084816020019073ffffffffffffffffffffffffffffffffffffffff16908173ffffffffffffffffffffffffffffffffffffffff1681525050838160400181905250828160600181905250600081608001901515908115158152505060018160c0019015159081151581525050818160a0018190525080600b60008773ffffffffffffffffffffffffffffffffffffffff1673ffffffffffffffffffffffffffffffffffffffff16815260200190815260200160002060008201518160000190805190602001906128a6929190613fd8565b5060208201518160010160006101000a81548173ffffffffffffffffffffffffffffffffffffffff021916908373ffffffffffffffffffffffffffffffffffffffff160217905550604082015181600201908051906020019061290a929190613fd8565b506060820151816003019080519060200190612927929190613fd8565b5060808201518160040160006101000a81548160ff02191690831515021790555060a0820151816005019080519060200190612964929190613fd8565b5060c08201518160060160006101000a81548160ff021916908315150217905550905050600c8590806001815401808255809150509060018203906000526020600020016000909192909190916101000a81548173ffffffffffffffffffffffffffffffffffffffff021916908373ffffffffffffffffffffffffffffffffffffffff16021790555050505050505050565b600073ffffffffffffffffffffffffffffffffffffffff16600d60003373ffffffffffffffffffffffffffffffffffffffff1673ffffffffffffffffffffffffffffffffffffffff16815260200190815260200160002060000160009054906101000a900473ffffffffffffffffffffffffffffffffffffffff1673ffffffffffffffffffffffffffffffffffffffff161415612a9257600080fd5b6001600d60003373ffffffffffffffffffffffffffffffffffffffff1673ffffffffffffffffffffffffffffffffffffffff16815260200190815260200160002060030160006101000a81548160ff021916908315150217905550565b600160009054906101000a900473ffffffffffffffffffffffffffffffffffffffff1673ffffffffffffffffffffffffffffffffffffffff163373ffffffffffffffffffffffffffffffffffffffff1614612b4957600080fd5b8260069080519060200190612b5f929190614058565b508160029080519060200190612b76929190614058565b508060039080519060200190612b8d929190614058565b50505050565b6007836040518082805190602001908083835b60208310612bc95780518252602082019150602081019050602083039250612ba6565b6001836020036101000a038019825116818451168082178552505050505050905001915050908152602001604051809103902060050160009054906101000a900460ff16612c1657600080fd5b816007846040518082805190602001908083835b60208310612c4d5780518252602082019150602081019050602083039250612c2a565b6001836020036101000a038019825116818451168082178552505050505050905001915050908152602001604051809103902060010181905550600482908060018154018082558091505090600182039060005260206000200160009091929091909150555060016005540160058190555060016007846040518082805190602001908083835b60208310612cf75780518252602082019150602081019050602083039250612cd4565b6001836020036101000a038019825116818451168082178552505050505050905001915050908152602001604051809103902060030160006101000a81548160ff021916908315150217905550336007846040518082805190602001908083835b60208310612d7b5780518252602082019150602081019050602083039250612d58565b6001836020036101000a038019825116818451168082178552505050505050905001915050908152602001604051809103902060030160016101000a81548173ffffffffffffffffffffffffffffffffffffffff021916908373ffffffffffffffffffffffffffffffffffffffff160217905550806007846040518082805190602001908083835b60208310612e265780518252602082019150602081019050602083039250612e03565b6001836020036101000a03801982511681845116808217855250505050505090500191505090815260200160405180910390206004019080519060200190612e6f929190614058565b50505050565b6060600080600080612f35600a8781548110612e8d57fe5b906000526020600020018054600181600116156101000203166002900480601f016020809104026020016040519081016040528092919081815260200182805460018160011615610100020316600290048015612f2b5780601f10612f0057610100808354040283529160200191612f2b565b820191906000526020600020905b815481529060010190602001808311612f0e57829003601f168201915b5050505050613c7e565b9450945094509450945091939590929450565b606060006060600080606060006007886040518082805190602001908083835b60208310612f8b5780518252602082019150602081019050602083039250612f68565b6001836020036101000a03801982511681845116808217855250505050505090500191505090815260200160405180910390206000016007896040518082805190602001908083835b60208310612ff75780518252602082019150602081019050602083039250612fd4565b6001836020036101000a03801982511681845116808217855250505050505090500191505090815260200160405180910390206001015460078a6040518082805190602001908083835b602083106130645780518252602082019150602081019050602083039250613041565b6001836020036101000a038019825116818451168082178552505050505050905001915050908152602001604051809103902060020160078b6040518082805190602001908083835b602083106130d057805182526020820191506020810190506020830392506130ad565b6001836020036101000a038019825116818451168082178552505050505050905001915050908152602001604051809103902060030160009054906101000a900460ff1660078c6040518082805190602001908083835b6020831061314a5780518252602082019150602081019050602083039250613127565b6001836020036101000a038019825116818451168082178552505050505050905001915050908152602001604051809103902060030160019054906101000a900473ffffffffffffffffffffffffffffffffffffffff1660078d6040518082805190602001908083835b602083106131d757805182526020820191506020810190506020830392506131b4565b6001836020036101000a038019825116818451168082178552505050505050905001915050908152602001604051809103902060040160078e6040518082805190602001908083835b602083106132435780518252602082019150602081019050602083039250613220565b6001836020036101000a038019825116818451168082178552505050505050905001915050908152602001604051809103902060050160009054906101000a900460ff16868054600181600116156101000203166002900480601f01602080910402602001604051908101604052809291908181526020018280546001816001161561010002031660029004801561331c5780601f106132f15761010080835404028352916020019161331c565b820191906000526020600020905b8154815290600101906020018083116132ff57829003601f168201915b50505050509650848054600181600116156101000203166002900480601f0160208091040260200160405190810160405280929190818152602001828054600181600116156101000203166002900480156133b85780601f1061338d576101008083540402835291602001916133b8565b820191906000526020600020905b81548152906001019060200180831161339b57829003601f168201915b50505050509450818054600181600116156101000203166002900480601f0160208091040260200160405190810160405280929190818152602001828054600181600116156101000203166002900480156134545780601f1061342957610100808354040283529160200191613454565b820191906000526020600020905b81548152906001019060200180831161343757829003601f168201915b505050505091509650965096509650965096509650919395979092949650565b600060608060006060600d60008773ffffffffffffffffffffffffffffffffffffffff1673ffffffffffffffffffffffffffffffffffffffff16815260200190815260200160002060000160009054906101000a900473ffffffffffffffffffffffffffffffffffffffff16600d60008873ffffffffffffffffffffffffffffffffffffffff1673ffffffffffffffffffffffffffffffffffffffff168152602001908152602001600020600101600d60008973ffffffffffffffffffffffffffffffffffffffff1673ffffffffffffffffffffffffffffffffffffffff168152602001908152602001600020600201600d60008a73ffffffffffffffffffffffffffffffffffffffff1673ffffffffffffffffffffffffffffffffffffffff16815260200190815260200160002060030160009054906101000a900460ff16600d60008b73ffffffffffffffffffffffffffffffffffffffff1673ffffffffffffffffffffffffffffffffffffffff168152602001908152602001600020600401838054600181600116156101000203166002900480601f01602080910402602001604051908101604052809291908181526020018280546001816001161561010002031660029004801561368b5780601f106136605761010080835404028352916020019161368b565b820191906000526020600020905b81548152906001019060200180831161366e57829003601f168201915b50505050509350828054600181600116156101000203166002900480601f0160208091040260200160405190810160405280929190818152602001828054600181600116156101000203166002900480156137275780601f106136fc57610100808354040283529160200191613727565b820191906000526020600020905b81548152906001019060200180831161370a57829003601f168201915b50505050509250808054600181600116156101000203166002900480601f0160208091040260200160405190810160405280929190818152602001828054600181600116156101000203166002900480156137c35780601f10613798576101008083540402835291602001916137c3565b820191906000526020600020905b8154815290600101906020018083116137a657829003601f168201915b505050505090509450945094509450945091939590929450565b60606000606080600060606000600b60008973ffffffffffffffffffffffffffffffffffffffff1673ffffffffffffffffffffffffffffffffffffffff168152602001908152602001600020600001600b60008a73ffffffffffffffffffffffffffffffffffffffff1673ffffffffffffffffffffffffffffffffffffffff16815260200190815260200160002060010160009054906101000a900473ffffffffffffffffffffffffffffffffffffffff16600b60008b73ffffffffffffffffffffffffffffffffffffffff1673ffffffffffffffffffffffffffffffffffffffff168152602001908152602001600020600201600b60008c73ffffffffffffffffffffffffffffffffffffffff1673ffffffffffffffffffffffffffffffffffffffff168152602001908152602001600020600301600b60008d73ffffffffffffffffffffffffffffffffffffffff1673ffffffffffffffffffffffffffffffffffffffff16815260200190815260200160002060040160009054906101000a900460ff16600b60008e73ffffffffffffffffffffffffffffffffffffffff1673ffffffffffffffffffffffffffffffffffffffff168152602001908152602001600020600501600b60008f73ffffffffffffffffffffffffffffffffffffffff1673ffffffffffffffffffffffffffffffffffffffff16815260200190815260200160002060060160009054906101000a900460ff16868054600181600116156101000203166002900480601f016020809104026020016040519081016040528092919081815260200182805460018160011615610100020316600290048015613a8a5780601f10613a5f57610100808354040283529160200191613a8a565b820191906000526020600020905b815481529060010190602001808311613a6d57829003601f168201915b50505050509650848054600181600116156101000203166002900480601f016020809104026020016040519081016040528092919081815260200182805460018160011615610100020316600290048015613b265780601f10613afb57610100808354040283529160200191613b26565b820191906000526020600020905b815481529060010190602001808311613b0957829003601f168201915b50505050509450838054600181600116156101000203166002900480601f016020809104026020016040519081016040528092919081815260200182805460018160011615610100020316600290048015613bc25780601f10613b9757610100808354040283529160200191613bc2565b820191906000526020600020905b815481529060010190602001808311613ba557829003601f168201915b50505050509350818054600181600116156101000203166002900480601f016020809104026020016040519081016040528092919081815260200182805460018160011615610100020316600290048015613c5e5780601f10613c3357610100808354040283529160200191613c5e565b820191906000526020600020905b815481529060010190602001808311613c4157829003601f168201915b505050505091509650965096509650965096509650919395979092949650565b60606000806000806009866040518082805190602001908083835b60208310613cbc5780518252602082019150602081019050602083039250613c99565b6001836020036101000a03801982511681845116808217855250505050505090500191505090815260200160405180910390206000016009876040518082805190602001908083835b60208310613d285780518252602082019150602081019050602083039250613d05565b6001836020036101000a038019825116818451168082178552505050505050905001915050908152602001604051809103902060010160009054906101000a900473ffffffffffffffffffffffffffffffffffffffff166009886040518082805190602001908083835b60208310613db55780518252602082019150602081019050602083039250613d92565b6001836020036101000a0380198251168184511680821785525050505050509050019150509081526020016040518091039020600201546009896040518082805190602001908083835b60208310613e225780518252602082019150602081019050602083039250613dff565b6001836020036101000a038019825116818451168082178552505050505050905001915050908152602001604051809103902060030160009054906101000a900460ff1660098a6040518082805190602001908083835b60208310613e9c5780518252602082019150602081019050602083039250613e79565b6001836020036101000a038019825116818451168082178552505050505050905001915050908152602001604051809103902060030160019054906101000a900460ff16848054600181600116156101000203166002900480601f016020809104026020016040519081016040528092919081815260200182805460018160011615610100020316600290048015613f755780601f10613f4a57610100808354040283529160200191613f75565b820191906000526020600020905b815481529060010190602001808311613f5857829003601f168201915b505050505094509450945094509450945091939590929450565b6040518060a0016040528060608152602001600073ffffffffffffffffffffffffffffffffffffffff168152602001600081526020016000151581526020016000151581525090565b828054600181600116156101000203166002900490600052602060002090601f016020900481019282601f1061401957805160ff1916838001178555614047565b82800160010185558215614047579182015b8281111561404657825182559160200191906001019061402b565b5b50905061405491906141cd565b5090565b828054600181600116156101000203166002900490600052602060002090601f016020900481019282601f1061409957805160ff19168380011785556140c7565b828001600101855582156140c7579182015b828111156140c65782518255916020019190600101906140ab565b5b5090506140d491906141cd565b5090565b6040518060a00160405280600073ffffffffffffffffffffffffffffffffffffffff1681526020016060815260200160608152602001600015158152602001606081525090565b6040518060e00160405280606081526020016000815260200160608152602001600015158152602001600073ffffffffffffffffffffffffffffffffffffffff168152602001606081526020016000151581525090565b6040518060e0016040528060608152602001600073ffffffffffffffffffffffffffffffffffffffff1681526020016060815260200160608152602001600015158152602001606081526020016000151581525090565b6141ef91905b808211156141eb5760008160009055506001016141d3565b5090565b9056fea265627a7a723158204fb8b107ff72ea0f711a301658d802c2bdca00c4a6737fc76f57b1e4777d786764736f6c63430005100032",
  "source": "pragma solidity >=0.5.0 <0.9.0;\r\n\r\ncontract Employee {\r\n  address admin;\r\n  address employee_address;\r\n  string description;\r\n  string location;\r\n  uint256[] public overallEndorsement;\r\n  uint256 endorsecount;\r\n  string name;\r\n\r\n  constructor(\r\n    address _admin,\r\n    address _employee_address,\r\n    string memory _name,\r\n    string memory _description,\r\n    string memory _location\r\n  ) public {\r\n    admin = _admin;\r\n    name = _name;\r\n    employee_address = _employee_address;\r\n    description = _description;\r\n    location = _location;\r\n    endorsecount = 0;\r\n  }\r\n\r\n  modifier OnlyEmployee() {\r\n    require(msg.sender == employee_address);\r\n    _;\r\n  }\r\n\r\n  function getEmployeeInfo()\r\n    public\r\n    view\r\n    returns (\r\n      address,\r\n      string memory,\r\n      string memory,\r\n      string memory,\r\n      uint256,\r\n      uint256\r\n    )\r\n  {\r\n    return (employee_address, name, description, location, 0, endorsecount);\r\n  }\r\n\r\n  function editInfo(\r\n    string memory _name,\r\n    string memory _descrip,\r\n    string memory _location\r\n  ) public OnlyEmployee {\r\n    name = _name;\r\n    description = _descrip;\r\n    location = _location;\r\n  }\r\n\r\n  /*********************************************************SKILLS SECTION**********************************************************/\r\n\r\n  struct skillInfo {\r\n    string name;\r\n    uint256 overall_percentage;\r\n    string experience;\r\n    bool endorsed;\r\n    address endorser_address;\r\n    string review;\r\n    bool visible;\r\n  }\r\n\r\n  mapping(string => skillInfo) skillmap;\r\n  string[] skills;\r\n\r\n  function addSkill(string memory _name, string memory _experience)\r\n    public\r\n    OnlyEmployee\r\n  {\r\n    skillInfo memory employeeSkillSet;\r\n    employeeSkillSet.name = _name;\r\n    employeeSkillSet.experience = _experience;\r\n    employeeSkillSet.overall_percentage = 0;\r\n    employeeSkillSet.endorsed = false;\r\n    employeeSkillSet.visible = true;\r\n    skillmap[_name] = employeeSkillSet;\r\n    skills.push(_name);\r\n  }\r\n\r\n  function endorseSkill(\r\n    string memory _name,\r\n    uint256 _overall_percentage,\r\n    string memory _review\r\n  ) public {\r\n    require(skillmap[_name].visible);\r\n    skillmap[_name].overall_percentage = _overall_percentage;\r\n    overallEndorsement.push(_overall_percentage);\r\n    endorsecount = endorsecount + 1;\r\n    skillmap[_name].endorsed = true;\r\n    skillmap[_name].endorser_address = msg.sender;\r\n    skillmap[_name].review = _review;\r\n  }\r\n\r\n  function getSkillByName(string memory _name)\r\n    private\r\n    view\r\n    returns (\r\n      string memory,\r\n      uint256,\r\n      string memory,\r\n      bool,\r\n      address,\r\n      string memory,\r\n      bool\r\n    )\r\n  {\r\n    return (\r\n      skillmap[_name].name,\r\n      skillmap[_name].overall_percentage,\r\n      skillmap[_name].experience,\r\n      skillmap[_name].endorsed,\r\n      skillmap[_name].endorser_address,\r\n      skillmap[_name].review,\r\n      skillmap[_name].visible\r\n    );\r\n  }\r\n\r\n  function getSkillCount() public view returns (uint256) {\r\n    return skills.length;\r\n  }\r\n\r\n  function getSkillByIndex(uint256 _index)\r\n    public\r\n    view\r\n    returns (\r\n      string memory,\r\n      uint256,\r\n      string memory,\r\n      bool,\r\n      address,\r\n      string memory,\r\n      bool\r\n    )\r\n  {\r\n    return getSkillByName(skills[_index]);\r\n  }\r\n\r\n  function deleteSkill(string memory _name) public OnlyEmployee {\r\n    skillmap[_name].visible = !skillmap[_name].visible;\r\n  }\r\n\r\n  /*********************************************************CERTIFICATION SECTION**********************************************************/\r\n\r\n  struct certificationInfo {\r\n    string name;\r\n    address organization;\r\n    uint256 score;\r\n    bool endorsed;\r\n    bool visible;\r\n  }\r\n\r\n  mapping(string => certificationInfo) certificationmap;\r\n  string[] certifications;\r\n\r\n  function addCertification(\r\n    string memory _name,\r\n    address _organization,\r\n    uint256 _score\r\n  ) public OnlyEmployee {\r\n    certificationInfo memory newcertificationInfo;\r\n    newcertificationInfo.name = _name;\r\n    newcertificationInfo.organization = _organization;\r\n    newcertificationInfo.score = _score;\r\n    newcertificationInfo.endorsed = false;\r\n    newcertificationInfo.visible = true;\r\n    certificationmap[_name] = newcertificationInfo;\r\n    certifications.push(_name);\r\n  }\r\n\r\n  function endorseCertification(string memory _name) public {\r\n    require(msg.sender == certificationmap[_name].organization);\r\n    certificationmap[_name].endorsed = true;\r\n  }\r\n\r\n  function getCertificationByName(string memory _name)\r\n    private\r\n    view\r\n    returns (\r\n      string memory,\r\n      address,\r\n      uint256,\r\n      bool,\r\n      bool\r\n    )\r\n  {\r\n    return (\r\n      certificationmap[_name].name,\r\n      certificationmap[_name].organization,\r\n      certificationmap[_name].score,\r\n      certificationmap[_name].endorsed,\r\n      certificationmap[_name].visible\r\n    );\r\n  }\r\n\r\n  function getCertificationCount() public view returns (uint256) {\r\n    return certifications.length;\r\n  }\r\n\r\n  function getCertificationByIndex(uint256 _index)\r\n    public\r\n    view\r\n    returns (\r\n      string memory,\r\n      address,\r\n      uint256,\r\n      bool,\r\n      bool\r\n    )\r\n  {\r\n    return getCertificationByName(certifications[_index]);\r\n  }\r\n\r\n  function deleteCertification(string memory _name) public OnlyEmployee {\r\n    certificationmap[_name].visible = !certificationmap[_name].visible;\r\n  }\r\n\r\n  /********************************************************************Work Experience Section********************************************************************/\r\n\r\n  struct workexpInfo {\r\n    string role;\r\n    address organization;\r\n    string startdate;\r\n    string enddate;\r\n    bool endorsed;\r\n    string description;\r\n    bool visible;\r\n  }\r\n\r\n  mapping(address => workexpInfo) workexpmap;\r\n  address[] workexps;\r\n\r\n  function addWorkExp(\r\n    string memory _role,\r\n    address _organization,\r\n    string memory _startdate,\r\n    string memory _enddate,\r\n    string memory _description\r\n  ) public OnlyEmployee {\r\n    workexpInfo memory newworkexp;\r\n    newworkexp.role = _role;\r\n    newworkexp.organization = _organization;\r\n    newworkexp.startdate = _startdate;\r\n    newworkexp.enddate = _enddate;\r\n    newworkexp.endorsed = false;\r\n    newworkexp.visible = true;\r\n    newworkexp.description = _description;\r\n    workexpmap[_organization] = newworkexp;\r\n    workexps.push(_organization);\r\n  }\r\n\r\n  function endorseWorkExp() public {\r\n    require(workexpmap[msg.sender].organization != address(0x0));\r\n    workexpmap[msg.sender].endorsed = true;\r\n  }\r\n\r\n  function getWorkExpByAddress(address _organization)\r\n    private\r\n    view\r\n    returns (\r\n      string memory,\r\n      address,\r\n      string memory,\r\n      string memory,\r\n      bool,\r\n      string memory,\r\n      bool\r\n    )\r\n  {\r\n    return (\r\n      workexpmap[_organization].role,\r\n      workexpmap[_organization].organization,\r\n      workexpmap[_organization].startdate,\r\n      workexpmap[_organization].enddate,\r\n      workexpmap[_organization].endorsed,\r\n      workexpmap[_organization].description,\r\n      workexpmap[_organization].visible\r\n    );\r\n  }\r\n\r\n  function getWorkExpCount() public view returns (uint256) {\r\n    return workexps.length;\r\n  }\r\n\r\n  function getWorkExpByIndex(uint256 _index)\r\n    public\r\n    view\r\n    returns (\r\n      string memory,\r\n      address,\r\n      string memory,\r\n      string memory,\r\n      bool,\r\n      string memory,\r\n      bool\r\n    )\r\n  {\r\n    return getWorkExpByAddress(workexps[_index]);\r\n  }\r\n\r\n  function deleteWorkExp(address org) public OnlyEmployee {\r\n    workexpmap[org].visible = false;\r\n  }\r\n\r\n  /********************************************************************Education Section********************************************************************/\r\n\r\n  struct educationInfo {\r\n    address institute;\r\n    string startdate;\r\n    string enddate;\r\n    bool endorsed;\r\n    string description;\r\n  }\r\n\r\n  mapping(address => educationInfo) educationmap;\r\n  address[] educations;\r\n\r\n  function addEducation(\r\n    address _institute,\r\n    string memory _startdate,\r\n    string memory _enddate,\r\n    string memory _description\r\n  ) public OnlyEmployee {\r\n    educationInfo memory newEducation;\r\n    newEducation.institute = _institute;\r\n    newEducation.startdate = _startdate;\r\n    newEducation.enddate = _enddate;\r\n    newEducation.endorsed = false;\r\n    newEducation.description = _description;\r\n    educationmap[_institute] = newEducation;\r\n    educations.push(_institute);\r\n  }\r\n\r\n  function endorseEducation() public {\r\n    require(educationmap[msg.sender].institute != address(0x0));\r\n    educationmap[msg.sender].endorsed = true;\r\n  }\r\n\r\n  function getEducationByAddress(address _institute)\r\n    private\r\n    view\r\n    returns (\r\n      address,\r\n      string memory,\r\n      string memory,\r\n      bool,\r\n      string memory\r\n    )\r\n  {\r\n    return (\r\n      educationmap[_institute].institute,\r\n      educationmap[_institute].startdate,\r\n      educationmap[_institute].enddate,\r\n      educationmap[_institute].endorsed,\r\n      educationmap[_institute].description\r\n    );\r\n  }\r\n\r\n  function getEducationCount() public view returns (uint256) {\r\n    return educations.length;\r\n  }\r\n\r\n  function getEducationByIndex(uint256 _index)\r\n    public\r\n    view\r\n    returns (\r\n      address,\r\n      string memory,\r\n      string memory,\r\n      bool,\r\n      string memory\r\n    )\r\n  {\r\n    return getEducationByAddress(educations[_index]);\r\n  }\r\n}\r\n",
  "sourcePath": "C:\\Users\\Asus\\Desktop\\skillset-verified\\src\\contracts\\Employee.sol",
  "compiler": {
    "name": "solc",
    "version": "0.5.16+commit.9c3226ce.Emscripten.clang"
  },
  "schemaVersion": "3.2.3",
  "updatedAt": "2021-10-06T09:23:44.627Z",
  "devdoc": {
    "methods": {}
  },
  "userdoc": {
    "methods": {}
  }
}