{
  "contractName": "OrganizationEndorser",
  "abi": [
    {
      "inputs": [
        {
          "internalType": "address",
          "name": "_admin",
          "type": "address"
        },
        {
          "internalType": "address",
          "name": "_organization_address",
          "type": "address"
        },
        {
          "internalType": "string",
          "name": "_name",
          "type": "string"
        },
        {
          "internalType": "string",
          "name": "_description",
          "type": "string"
        },
        {
          "internalType": "string",
          "name": "_location",
          "type": "string"
        }
      ],
      "payable": false,
      "stateMutability": "nonpayable",
      "type": "constructor"
    },
    {
      "constant": false,
      "inputs": [
        {
          "internalType": "address",
          "name": "employee_address",
          "type": "address"
        }
      ],
      "name": "addEmployees",
      "outputs": [],
      "payable": false,
      "stateMutability": "nonpayable",
      "type": "function"
    },
    {
      "constant": true,
      "inputs": [],
      "name": "totalEmployees",
      "outputs": [
        {
          "internalType": "uint256",
          "name": "",
          "type": "uint256"
        }
      ],
      "payable": false,
      "stateMutability": "view",
      "type": "function"
    }
  ],
  "bytecode": "0x608060405234801561001057600080fd5b50604051610698380380610698833981810160405260a081101561003357600080fd5b8101908080519060200190929190805190602001909291908051604051939291908464010000000082111561006757600080fd5b8382019150602082018581111561007d57600080fd5b825186600182028301116401000000008211171561009a57600080fd5b8083526020830192505050908051906020019080838360005b838110156100ce5780820151818401526020810190506100b3565b50505050905090810190601f1680156100fb5780820380516001836020036101000a031916815260200191505b506040526020018051604051939291908464010000000082111561011e57600080fd5b8382019150602082018581111561013457600080fd5b825186600182028301116401000000008211171561015157600080fd5b8083526020830192505050908051906020019080838360005b8381101561018557808201518184015260208101905061016a565b50505050905090810190601f1680156101b25780820380516001836020036101000a031916815260200191505b50604052602001805160405193929190846401000000008211156101d557600080fd5b838201915060208201858111156101eb57600080fd5b825186600182028301116401000000008211171561020857600080fd5b8083526020830192505050908051906020019080838360005b8381101561023c578082015181840152602081019050610221565b50505050905090810190601f1680156102695780820380516001836020036101000a031916815260200191505b50604052505050846000806101000a81548173ffffffffffffffffffffffffffffffffffffffff021916908373ffffffffffffffffffffffffffffffffffffffff16021790555082600190805190602001906102c6929190610340565b5083600260006101000a81548173ffffffffffffffffffffffffffffffffffffffff021916908373ffffffffffffffffffffffffffffffffffffffff160217905550816003908051906020019061031e929190610340565b508060049080519060200190610335929190610340565b5050505050506103e5565b828054600181600116156101000203166002900490600052602060002090601f016020900481019282601f1061038157805160ff19168380011785556103af565b828001600101855582156103af579182015b828111156103ae578251825591602001919060010190610393565b5b5090506103bc91906103c0565b5090565b6103e291905b808211156103de5760008160009055506001016103c6565b5090565b90565b6102a4806103f46000396000f3fe608060405234801561001057600080fd5b50600436106100355760003560e01c8062ac80951461003a57806352b9b9731461007e575b600080fd5b61007c6004803603602081101561005057600080fd5b81019080803573ffffffffffffffffffffffffffffffffffffffff16906020019092919050505061009c565b005b610086610233565b6040518082815260200191505060405180910390f35b6000809054906101000a900473ffffffffffffffffffffffffffffffffffffffff1673ffffffffffffffffffffffffffffffffffffffff166316ab8a35336040518263ffffffff1660e01b8152600401808273ffffffffffffffffffffffffffffffffffffffff1673ffffffffffffffffffffffffffffffffffffffff16815260200191505060206040518083038186803b15801561013a57600080fd5b505afa15801561014e573d6000803e3d6000fd5b505050506040513d602081101561016457600080fd5b81019080805190602001909291905050506101ca576040517f08c379a000000000000000000000000000000000000000000000000000000000815260040180806020018281038252602f815260200180610241602f913960400191505060405180910390fd5b60058190806001815401808255809150509060018203906000526020600020016000909192909190916101000a81548173ffffffffffffffffffffffffffffffffffffffff021916908373ffffffffffffffffffffffffffffffffffffffff1602179055505050565b600060058054905090509056fe4f6e6c79204f7267616e697a6174696f6e2063616e206163636573732074686520746869732066756e6374696f6e21a265627a7a72315820559d9ff23ae8ee4db90289dd43fa9643f19684e681b6bf796751281cbd73f48264736f6c63430005100032",
  "source": "pragma solidity >=0.5.0 <0.9.0;\r\nimport \"./Admin.sol\";\r\n\r\ncontract OrganizationEndorser {\r\n  address admin;\r\n  string name;\r\n  address organization_address;\r\n  string description;\r\n  string location;\r\n\r\n  constructor(\r\n    address _admin,\r\n    address _organization_address,\r\n    string memory _name,\r\n    string memory _description,\r\n    string memory _location\r\n  ) public {\r\n    admin = _admin;\r\n    name = _name;\r\n    organization_address = _organization_address;\r\n    description = _description;\r\n    location = _location;\r\n  }\r\n\r\n  modifier onlyOrganization() {\r\n    require(\r\n      Admin(admin).isOrganizationEndorser(msg.sender),\r\n      \"Only Organization can access the this function!\"\r\n    );\r\n    _;\r\n  }\r\n\r\n  /**************************************************************Endorse Skills*************************************************************/\r\n\r\n  address[] allEmployees;\r\n\r\n  function addEmployees(address employee_address) public onlyOrganization {\r\n    allEmployees.push(employee_address);\r\n  }\r\n\r\n  function totalEmployees() public view returns (uint256) {\r\n    return allEmployees.length;\r\n  }\r\n}\r\n",
  "sourcePath": "C:\\Users\\Asus\\Desktop\\skillset-verified\\src\\contracts\\OrganizationEndorser.sol",
  "compiler": {
    "name": "solc",
    "version": "0.5.16+commit.9c3226ce.Emscripten.clang"
  },
  "schemaVersion": "3.2.3",
  "updatedAt": "2021-09-23T14:53:41.682Z",
  "networkType": "ethereum",
  "devdoc": {
    "methods": {}
  },
  "userdoc": {
    "methods": {}
  }
}