{
  "contractName": "Skills",
  "abi": [
    {
      "constant": false,
      "inputs": [
        {
          "internalType": "string",
          "name": "_name",
          "type": "string"
        },
        {
          "internalType": "address",
          "name": "_employee",
          "type": "address"
        }
      ],
      "name": "addEmployeeToSkill",
      "outputs": [],
      "payable": false,
      "stateMutability": "nonpayable",
      "type": "function"
    },
    {
      "constant": true,
      "inputs": [],
      "name": "getSkillLength",
      "outputs": [
        {
          "internalType": "uint256",
          "name": "",
          "type": "uint256"
        }
      ],
      "payable": false,
      "stateMutability": "view",
      "type": "function"
    },
    {
      "constant": true,
      "inputs": [
        {
          "internalType": "uint256",
          "name": "index",
          "type": "uint256"
        }
      ],
      "name": "getSkillsByIndex",
      "outputs": [
        {
          "internalType": "string",
          "name": "",
          "type": "string"
        }
      ],
      "payable": false,
      "stateMutability": "view",
      "type": "function"
    },
    {
      "constant": true,
      "inputs": [
        {
          "internalType": "uint256",
          "name": "index",
          "type": "uint256"
        }
      ],
      "name": "getTotalEmployeeInSkillByIndex",
      "outputs": [
        {
          "internalType": "uint256",
          "name": "",
          "type": "uint256"
        }
      ],
      "payable": false,
      "stateMutability": "view",
      "type": "function"
    },
    {
      "constant": true,
      "inputs": [
        {
          "internalType": "string",
          "name": "_name",
          "type": "string"
        }
      ],
      "name": "getTotalEmployeeInSkillByName",
      "outputs": [
        {
          "internalType": "uint256",
          "name": "",
          "type": "uint256"
        }
      ],
      "payable": false,
      "stateMutability": "view",
      "type": "function"
    },
    {
      "constant": true,
      "inputs": [
        {
          "internalType": "uint256",
          "name": "skill_index",
          "type": "uint256"
        },
        {
          "internalType": "uint256",
          "name": "emp_index",
          "type": "uint256"
        }
      ],
      "name": "getEmployeeInSkillByIndex",
      "outputs": [
        {
          "internalType": "address",
          "name": "",
          "type": "address"
        }
      ],
      "payable": false,
      "stateMutability": "view",
      "type": "function"
    },
    {
      "constant": true,
      "inputs": [
        {
          "internalType": "string",
          "name": "_name",
          "type": "string"
        },
        {
          "internalType": "uint256",
          "name": "emp_index",
          "type": "uint256"
        }
      ],
      "name": "getEmployeeBySkillName",
      "outputs": [
        {
          "internalType": "address",
          "name": "",
          "type": "address"
        }
      ],
      "payable": false,
      "stateMutability": "view",
      "type": "function"
    }
  ],
  "bytecode": "0x608060405234801561001057600080fd5b50610a4b806100206000396000f3fe608060405234801561001057600080fd5b506004361061007d5760003560e01c80638673de531161005b5780638673de53146101bd578063bb50d77214610264578063e518dc3c146102dc578063f4cee617146103ab5761007d565b80632e2acc4c14610082578063359c410f1461015d5780633dc1a6bc1461019f575b600080fd5b61015b6004803603604081101561009857600080fd5b81019080803590602001906401000000008111156100b557600080fd5b8201836020820111156100c757600080fd5b803590602001918460018302840111640100000000831117156100e957600080fd5b91908080601f016020809104026020016040519081016040528093929190818152602001838380828437600081840152601f19601f820116905080830192505050505050509192919290803573ffffffffffffffffffffffffffffffffffffffff1690602001909291905050506104b0565b005b6101896004803603602081101561017357600080fd5b8101908080359060200190929190505050610635565b6040518082815260200191505060405180910390f35b6101a76106c8565b6040518082815260200191505060405180910390f35b6101e9600480360360208110156101d357600080fd5b81019080803590602001909291905050506106d5565b6040518080602001828103825283818151815260200191508051906020019080838360005b8381101561022957808201518184015260208101905061020e565b50505050905090810190601f1680156102565780820380516001836020036101000a031916815260200191505b509250505060405180910390f35b61029a6004803603604081101561027a57600080fd5b81019080803590602001909291908035906020019092919050505061078e565b604051808273ffffffffffffffffffffffffffffffffffffffff1673ffffffffffffffffffffffffffffffffffffffff16815260200191505060405180910390f35b610395600480360360208110156102f257600080fd5b810190808035906020019064010000000081111561030f57600080fd5b82018360208201111561032157600080fd5b8035906020019184600183028401116401000000008311171561034357600080fd5b91908080601f016020809104026020016040519081016040528093929190818152602001838380828437600081840152601f19601f820116905080830192505050505050509192919290505050610854565b6040518082815260200191505060405180910390f35b61046e600480360360408110156103c157600080fd5b81019080803590602001906401000000008111156103de57600080fd5b8201836020820111156103f057600080fd5b8035906020019184600183028401116401000000008311171561041257600080fd5b91908080601f016020809104026020016040519081016040528093929190818152602001838380828437600081840152601f19601f820116905080830192505050505050509192919290803590602001909291905050506108c9565b604051808273ffffffffffffffffffffffffffffffffffffffff1673ffffffffffffffffffffffffffffffffffffffff16815260200191505060405180910390f35b600080836040518082805190602001908083835b602083106104e757805182526020820191506020810190506020830392506104c4565b6001836020036101000a0380198251168184511680821785525050505050509050019150509081526020016040518091039020805490501415610564576001829080600181540180825580915050906001820390600052602060002001600090919290919091509080519060200190610561929190610971565b50505b6000826040518082805190602001908083835b6020831061059a5780518252602082019150602081019050602083039250610577565b6001836020036101000a03801982511681845116808217855250505050505090500191505090815260200160405180910390208190806001815401808255809150509060018203906000526020600020016000909192909190916101000a81548173ffffffffffffffffffffffffffffffffffffffff021916908373ffffffffffffffffffffffffffffffffffffffff160217905550505050565b6000806001838154811061064557fe5b9060005260206000200160405180828054600181600116156101000203166002900480156106aa5780601f106106885761010080835404028352918201916106aa565b820191906000526020600020905b815481529060010190602001808311610696575b50509150509081526020016040518091039020805490509050919050565b6000600180549050905090565b6060600182815481106106e457fe5b906000526020600020018054600181600116156101000203166002900480601f0160208091040260200160405190810160405280929190818152602001828054600181600116156101000203166002900480156107825780601f1061075757610100808354040283529160200191610782565b820191906000526020600020905b81548152906001019060200180831161076557829003601f168201915b50505050509050919050565b6000806001848154811061079e57fe5b9060005260206000200160405180828054600181600116156101000203166002900480156108035780601f106107e1576101008083540402835291820191610803565b820191906000526020600020905b8154815290600101906020018083116107ef575b50509150509081526020016040518091039020828154811061082157fe5b9060005260206000200160009054906101000a900473ffffffffffffffffffffffffffffffffffffffff16905092915050565b600080826040518082805190602001908083835b6020831061088b5780518252602082019150602081019050602083039250610868565b6001836020036101000a0380198251168184511680821785525050505050509050019150509081526020016040518091039020805490509050919050565b600080836040518082805190602001908083835b6020831061090057805182526020820191506020810190506020830392506108dd565b6001836020036101000a0380198251168184511680821785525050505050509050019150509081526020016040518091039020828154811061093e57fe5b9060005260206000200160009054906101000a900473ffffffffffffffffffffffffffffffffffffffff16905092915050565b828054600181600116156101000203166002900490600052602060002090601f016020900481019282601f106109b257805160ff19168380011785556109e0565b828001600101855582156109e0579182015b828111156109df5782518255916020019190600101906109c4565b5b5090506109ed91906109f1565b5090565b610a1391905b80821115610a0f5760008160009055506001016109f7565b5090565b9056fea265627a7a7231582007f91434e60860a349c42535f6c58fe6be240dfcd28d3bb30846be1a65b5c1b464736f6c63430005100032",
  "source": "pragma solidity >=0.5.0 <0.9.0;\r\n\r\ncontract Skills {\r\n  mapping(string => address[]) skillmap;\r\n  string[] skill;\r\n\r\n  function addEmployeeToSkill(string memory _name, address _employee) public {\r\n    if (skillmap[_name].length == 0) {\r\n      skill.push(_name);\r\n    }\r\n    skillmap[_name].push(_employee);\r\n  }\r\n\r\n  function getSkillLength() public view returns (uint256) {\r\n    return skill.length;\r\n  }\r\n\r\n  function getSkillsByIndex(uint256 index) public view returns (string memory) {\r\n    return skill[index];\r\n  }\r\n\r\n  function getTotalEmployeeInSkillByIndex(uint256 index)\r\n    public\r\n    view\r\n    returns (uint256)\r\n  {\r\n    return skillmap[skill[index]].length;\r\n  }\r\n\r\n  function getTotalEmployeeInSkillByName(string memory _name)\r\n    public\r\n    view\r\n    returns (uint256)\r\n  {\r\n    return skillmap[_name].length;\r\n  }\r\n\r\n  function getEmployeeInSkillByIndex(uint256 skill_index, uint256 emp_index)\r\n    public\r\n    view\r\n    returns (address)\r\n  {\r\n    return skillmap[skill[skill_index]][emp_index];\r\n  }\r\n\r\n  function getEmployeeBySkillName(string memory _name, uint256 emp_index)\r\n    public\r\n    view\r\n    returns (address)\r\n  {\r\n    return skillmap[_name][emp_index];\r\n  }\r\n}\r\n",
  "sourcePath": "C:/Users/Asus/Desktop/skillset-verified/src/contracts/Skills.sol",
  "compiler": {
    "name": "solc",
    "version": "0.5.16+commit.9c3226ce.Emscripten.clang"
  },
  "schemaVersion": "3.2.3",
  "updatedAt": "2021-10-06T09:26:29.946Z",
  "networkType": "ethereum",
  "devdoc": {
    "methods": {}
  },
  "userdoc": {
    "methods": {}
  }
}